{
  "contractName": "bytesSwap",
  "abi": [
    {
      "inputs": [
        {
          "internalType": "bytes32",
          "name": "_bytes32",
          "type": "bytes32"
        }
      ],
      "name": "bytes32ToString",
      "outputs": [
        {
          "internalType": "string",
          "name": "",
          "type": "string"
        }
      ],
      "stateMutability": "pure",
      "type": "function"
    },
    {
      "inputs": [
        {
          "internalType": "string",
          "name": "source",
          "type": "string"
        }
      ],
      "name": "stringToBytes32",
      "outputs": [
        {
          "internalType": "bytes32",
          "name": "result",
          "type": "bytes32"
        }
      ],
      "stateMutability": "pure",
      "type": "function"
    }
  ],
  "bytecode": "0x610650610053600b82828239805160001a607314610046577f4e487b7100000000000000000000000000000000000000000000000000000000600052600060045260246000fd5b30600052607381538281f3fe73000000000000000000000000000000000000000030146080604052600436106100405760003560e01c80639201de5514610045578063cfb5192814610075575b600080fd5b61005f600480360381019061005a91906103a5565b6100a5565b60405161006c9190610472565b60405180910390f35b61008f600480360381019061008a91906103ce565b6102fe565b60405161009c9190610457565b60405180910390f35b606060005b60208160ff161080156101225750600060f81b838260ff16602081106100f9577f4e487b7100000000000000000000000000000000000000000000000000000000600052603260045260246000fd5b1a60f81b7effffffffffffffffffffffffffffffffffffffffffffffffffffffffffffff191614155b1561013a5780806101329061056a565b9150506100aa565b60008160ff1667ffffffffffffffff81111561017f577f4e487b7100000000000000000000000000000000000000000000000000000000600052604160045260246000fd5b6040519080825280601f01601f1916602001820160405280156101b15781602001600182028036833780820191505090505b509050600091505b60208260ff161080156102315750600060f81b848360ff1660208110610208577f4e487b7100000000000000000000000000000000000000000000000000000000600052603260045260246000fd5b1a60f81b7effffffffffffffffffffffffffffffffffffffffffffffffffffffffffffff191614155b156102f457838260ff1660208110610272577f4e487b7100000000000000000000000000000000000000000000000000000000600052603260045260246000fd5b1a60f81b818360ff16815181106102b2577f4e487b7100000000000000000000000000000000000000000000000000000000600052603260045260246000fd5b60200101907effffffffffffffffffffffffffffffffffffffffffffffffffffffffffffff1916908160001a90535081806102ec9061056a565b9250506101b9565b8092505050919050565b60008082905060008151141561031a576000801b915050610323565b60208301519150505b919050565b600061033b610336846104c5565b610494565b90508281526020810184848401111561035357600080fd5b61035e848285610528565b509392505050565b60008135905061037581610603565b92915050565b600082601f83011261038c57600080fd5b813561039c848260208601610328565b91505092915050565b6000602082840312156103b757600080fd5b60006103c584828501610366565b91505092915050565b6000602082840312156103e057600080fd5b600082013567ffffffffffffffff8111156103fa57600080fd5b6104068482850161037b565b91505092915050565b61041881610511565b82525050565b6000610429826104f5565b6104338185610500565b9350610443818560208601610537565b61044c816105f2565b840191505092915050565b600060208201905061046c600083018461040f565b92915050565b6000602082019050818103600083015261048c818461041e565b905092915050565b6000604051905081810181811067ffffffffffffffff821117156104bb576104ba6105c3565b5b8060405250919050565b600067ffffffffffffffff8211156104e0576104df6105c3565b5b601f19601f8301169050602081019050919050565b600081519050919050565b600082825260208201905092915050565b6000819050919050565b600060ff82169050919050565b82818337600083830152505050565b60005b8381101561055557808201518184015260208101905061053a565b83811115610564576000848401525b50505050565b60006105758261051b565b915060ff82141561058957610588610594565b5b600182019050919050565b7f4e487b7100000000000000000000000000000000000000000000000000000000600052601160045260246000fd5b7f4e487b7100000000000000000000000000000000000000000000000000000000600052604160045260246000fd5b6000601f19601f8301169050919050565b61060c81610511565b811461061757600080fd5b5056fea2646970667358221220c0ce20bdf457a826306f9959d08bcdfb82069675f9a5be9767d512dcadd9e57064736f6c63430008000033",
  "immutableReferences": {},
  "source": "// SPDX-License-Identifier: MIT\r\npragma solidity ^0.8.0;\r\n\r\nlibrary bytesSwap {\r\n\r\n    function bytes32ToString(bytes32 _bytes32) public pure returns (string memory) {\r\n        uint8 i = 0;\r\n        while(i < 32 && _bytes32[i] != 0) {\r\n            i++;\r\n        }\r\n        bytes memory bytesArray = new bytes(i);\r\n        for (i = 0; i < 32 && _bytes32[i] != 0; i++) {\r\n            bytesArray[i] = _bytes32[i];\r\n        }\r\n        return string(bytesArray);\r\n    }\r\n    \r\n    function stringToBytes32(string memory source) public pure returns (bytes32 result) {\r\n        bytes memory tempEmptyStringTest = bytes(source);\r\n        if (tempEmptyStringTest.length == 0) {\r\n            return 0x0;\r\n        }\r\n\r\n        assembly { // solhint-disable-line no-inline-assembly\r\n            result := mload(add(source, 32))\r\n        }\r\n  }\r\n}",
  "sourcePath": "C:/Users/solus/Documents/Solidity/Hackathon/contentnfts V0/contracts/Dependencies/BytesToString.sol",
  "compiler": {
    "name": "solc",
    "version": "0.8.0+commit.c7dfd78e.Emscripten.clang"
  },
  "schemaVersion": "3.4.1",
  "updatedAt": "2021-12-13T17:18:46.377Z",
  "devdoc": {
    "kind": "dev",
    "methods": {},
    "version": 1
  },
  "userdoc": {
    "kind": "user",
    "methods": {},
    "version": 1
  }
}