{
  "contractName": "ContractFactory721",
  "abi": [
    {
      "anonymous": false,
      "inputs": [
        {
          "indexed": false,
          "internalType": "bool",
          "name": "isAccepted",
          "type": "bool"
        },
        {
          "indexed": false,
          "internalType": "address",
          "name": "contractAddress",
          "type": "address"
        }
      ],
      "name": "contractAccepted",
      "type": "event"
    },
    {
      "anonymous": false,
      "inputs": [
        {
          "indexed": false,
          "internalType": "address",
          "name": "creatorAddress",
          "type": "address"
        },
        {
          "indexed": false,
          "internalType": "address",
          "name": "contractAddress",
          "type": "address"
        },
        {
          "indexed": false,
          "internalType": "uint256",
          "name": "contractID",
          "type": "uint256"
        }
      ],
      "name": "contractCreated",
      "type": "event"
    },
    {
      "anonymous": false,
      "inputs": [
        {
          "indexed": false,
          "internalType": "address",
          "name": "newAddress",
          "type": "address"
        }
      ],
      "name": "contractUpgraded",
      "type": "event"
    },
    {
      "inputs": [
        {
          "internalType": "address",
          "name": "_creatorAddress",
          "type": "address"
        }
      ],
      "name": "getAllContracts",
      "outputs": [
        {
          "internalType": "address[]",
          "name": "",
          "type": "address[]"
        }
      ],
      "stateMutability": "view",
      "type": "function"
    },
    {
      "inputs": [
        {
          "internalType": "address",
          "name": "_creatorAddress",
          "type": "address"
        }
      ],
      "name": "numberContractsCreated",
      "outputs": [
        {
          "internalType": "uint256",
          "name": "contractsCreated",
          "type": "uint256"
        }
      ],
      "stateMutability": "view",
      "type": "function"
    },
    {
      "inputs": [],
      "name": "totalCreators",
      "outputs": [
        {
          "internalType": "uint256",
          "name": "",
          "type": "uint256"
        }
      ],
      "stateMutability": "view",
      "type": "function"
    },
    {
      "inputs": [
        {
          "internalType": "address",
          "name": "_newOwner",
          "type": "address"
        },
        {
          "internalType": "address",
          "name": "_contract",
          "type": "address"
        }
      ],
      "name": "updateOwner",
      "outputs": [
        {
          "internalType": "bool",
          "name": "",
          "type": "bool"
        }
      ],
      "stateMutability": "nonpayable",
      "type": "function"
    },
    {
      "inputs": [
        {
          "internalType": "string",
          "name": "name",
          "type": "string"
        },
        {
          "internalType": "string",
          "name": "symbol",
          "type": "string"
        }
      ],
      "name": "newERC721Contract",
      "outputs": [
        {
          "internalType": "address",
          "name": "newContract",
          "type": "address"
        }
      ],
      "stateMutability": "nonpayable",
      "type": "function"
    }
  ],
  "bytecode": "0x608060405234801561001057600080fd5b5033600760006101000a81548173ffffffffffffffffffffffffffffffffffffffff021916908373ffffffffffffffffffffffffffffffffffffffff16021790555033600860006101000a81548173ffffffffffffffffffffffffffffffffffffffff021916908373ffffffffffffffffffffffffffffffffffffffff160217905550615a93806100a26000396000f3fe60806040523480156200001157600080fd5b50600436106200005e5760003560e01c806311c0036c1462000063578063277c376b146200008557806353a1381114620000bb57806383c3565214620000f1578063a6348c801462000127575b600080fd5b6200006d6200015d565b6040516200007c919062000b96565b60405180910390f35b620000a360048036038101906200009d91906200084d565b62000163565b604051620000b2919062000b96565b60405180910390f35b620000d96004803603810190620000d39190620008ba565b620001ae565b604051620000e8919062000a9e565b60405180910390f35b6200010f60048036038101906200010991906200084d565b62000205565b6040516200011e919062000af8565b60405180910390f35b6200014560048036038101906200013f919062000879565b620002d3565b60405162000154919062000b1c565b60405180910390f35b60045481565b60008060008373ffffffffffffffffffffffffffffffffffffffff1673ffffffffffffffffffffffffffffffffffffffff168152602001908152602001600020805490509050919050565b6000808383604051620001c190620007b6565b620001ce92919062000b39565b604051809103906000f080158015620001eb573d6000803e3d6000fd5b509050809150620001fe826001620003d0565b5092915050565b60606000808373ffffffffffffffffffffffffffffffffffffffff1673ffffffffffffffffffffffffffffffffffffffff168152602001908152602001600020805480602002602001604051908101604052809291908181526020018280548015620002c757602002820191906000526020600020905b8160009054906101000a900473ffffffffffffffffffffffffffffffffffffffff1673ffffffffffffffffffffffffffffffffffffffff16815260200190600101908083116200027c575b50505050509050919050565b6000818073ffffffffffffffffffffffffffffffffffffffff163373ffffffffffffffffffffffffffffffffffffffff161462000347576040517f08c379a00000000000000000000000000000000000000000000000000000000081526004016200033e9062000b74565b60405180910390fd5b83600160008573ffffffffffffffffffffffffffffffffffffffff1673ffffffffffffffffffffffffffffffffffffffff16815260200190815260200160002060006101000a81548173ffffffffffffffffffffffffffffffffffffffff021916908373ffffffffffffffffffffffffffffffffffffffff160217905550600191505092915050565b6006829080600181540180825580915050600190039060005260206000200160009091909190916101000a81548173ffffffffffffffffffffffffffffffffffffffff021916908373ffffffffffffffffffffffffffffffffffffffff1602179055506000803373ffffffffffffffffffffffffffffffffffffffff1673ffffffffffffffffffffffffffffffffffffffff168152602001908152602001600020829080600181540180825580915050600190039060005260206000200160009091909190916101000a81548173ffffffffffffffffffffffffffffffffffffffff021916908373ffffffffffffffffffffffffffffffffffffffff16021790555033600160008473ffffffffffffffffffffffffffffffffffffffff1673ffffffffffffffffffffffffffffffffffffffff16815260200190815260200160002060006101000a81548173ffffffffffffffffffffffffffffffffffffffff021916908373ffffffffffffffffffffffffffffffffffffffff160217905550600260003373ffffffffffffffffffffffffffffffffffffffff1673ffffffffffffffffffffffffffffffffffffffff16815260200190815260200160002060009054906101000a900460ff1662000615576001600260003373ffffffffffffffffffffffffffffffffffffffff1673ffffffffffffffffffffffffffffffffffffffff16815260200190815260200160002060006101000a81548160ff021916908315150217905550600460008154809291906200060f9062000cfe565b91905055505b60006040518060a0016040528060055481526020018473ffffffffffffffffffffffffffffffffffffffff1681526020013373ffffffffffffffffffffffffffffffffffffffff1681526020018363ffffffff168152602001428152509050806003600060055481526020019081526020016000206000820151816000015560208201518160010160006101000a81548173ffffffffffffffffffffffffffffffffffffffff021916908373ffffffffffffffffffffffffffffffffffffffff16021790555060408201518160020160006101000a81548173ffffffffffffffffffffffffffffffffffffffff021916908373ffffffffffffffffffffffffffffffffffffffff16021790555060608201518160020160146101000a81548163ffffffff021916908363ffffffff16021790555060808201518160030155905050600560008154809291906200076b9062000cfe565b91905055507f8b51e2e8a750103c3f5223729e20c51f4330bcfda9a0192fa399751ce536606533848360800151604051620007a99392919062000abb565b60405180910390a1505050565b614c888062000dd683390190565b6000620007db620007d58462000be7565b62000bb3565b905082815260208101848484011115620007f457600080fd5b6200080184828562000cb9565b509392505050565b6000813590506200081a8162000dbb565b92915050565b600082601f8301126200083257600080fd5b813562000844848260208601620007c4565b91505092915050565b6000602082840312156200086057600080fd5b6000620008708482850162000809565b91505092915050565b600080604083850312156200088d57600080fd5b60006200089d8582860162000809565b9250506020620008b08582860162000809565b9150509250929050565b60008060408385031215620008ce57600080fd5b600083013567ffffffffffffffff811115620008e957600080fd5b620008f78582860162000820565b925050602083013567ffffffffffffffff8111156200091557600080fd5b620009238582860162000820565b9150509250929050565b60006200093b838362000947565b60208301905092915050565b620009528162000c6f565b82525050565b620009638162000c6f565b82525050565b6000620009768262000c2a565b62000982818562000c4d565b93506200098f8362000c1a565b8060005b83811015620009c6578151620009aa88826200092d565b9750620009b78362000c40565b92505060018101905062000993565b5085935050505092915050565b620009de8162000c83565b82525050565b6000620009f18262000c35565b620009fd818562000c5e565b935062000a0f81856020860162000cc8565b62000a1a8162000daa565b840191505092915050565b600062000a3460258362000c5e565b91507f4f6e6c79206368696c6420636f6e74726163742063616e2063616c6c2066756e60008301527f6374696f6e0000000000000000000000000000000000000000000000000000006020830152604082019050919050565b62000a988162000caf565b82525050565b600060208201905062000ab5600083018462000958565b92915050565b600060608201905062000ad2600083018662000958565b62000ae1602083018562000958565b62000af0604083018462000a8d565b949350505050565b6000602082019050818103600083015262000b14818462000969565b905092915050565b600060208201905062000b336000830184620009d3565b92915050565b6000604082019050818103600083015262000b558185620009e4565b9050818103602083015262000b6b8184620009e4565b90509392505050565b6000602082019050818103600083015262000b8f8162000a25565b9050919050565b600060208201905062000bad600083018462000a8d565b92915050565b6000604051905081810181811067ffffffffffffffff8211171562000bdd5762000bdc62000d7b565b5b8060405250919050565b600067ffffffffffffffff82111562000c055762000c0462000d7b565b5b601f19601f8301169050602081019050919050565b6000819050602082019050919050565b600081519050919050565b600081519050919050565b6000602082019050919050565b600082825260208201905092915050565b600082825260208201905092915050565b600062000c7c8262000c8f565b9050919050565b60008115159050919050565b600073ffffffffffffffffffffffffffffffffffffffff82169050919050565b6000819050919050565b82818337600083830152505050565b60005b8381101562000ce857808201518184015260208101905062000ccb565b8381111562000cf8576000848401525b50505050565b600062000d0b8262000caf565b91507fffffffffffffffffffffffffffffffffffffffffffffffffffffffffffffffff82141562000d415762000d4062000d4c565b5b600182019050919050565b7f4e487b7100000000000000000000000000000000000000000000000000000000600052601160045260246000fd5b7f4e487b7100000000000000000000000000000000000000000000000000000000600052604160045260246000fd5b6000601f19601f8301169050919050565b62000dc68162000c6f565b811462000dd257600080fd5b5056fe60806040523480156200001157600080fd5b5060405162004c8838038062004c888339818101604052810190620000379190620004ee565b8181816002908051906020019062000051929190620003cc565b5080600390805190602001906200006a929190620003cc565b5050506000600c60006101000a81548160ff021916908315150217905550620000ac6000801b620000a06200013660201b60201c565b6200013e60201b60201c565b620000ed7f9f2df0fed2c77648de5860a4cc508cd0818c85b8b8a1ab4ceeef8d981c8956a6620000e16200013660201b60201c565b6200013e60201b60201c565b6200012e7f65d7a28e3265b37a6474929f336521b332c1681b933f6cb9f3376673440d862a620001226200013660201b60201c565b6200013e60201b60201c565b505062000692565b600033905090565b6200015582826200018660201b620013501760201c565b6200018181600160008581526020019081526020016000206200019c60201b6200135e1790919060201c565b505050565b620001988282620001d460201b60201c565b5050565b6000620001cc836000018373ffffffffffffffffffffffffffffffffffffffff1660001b620002c560201b60201c565b905092915050565b620001e682826200033f60201b60201c565b620002c157600160008084815260200190815260200160002060000160008373ffffffffffffffffffffffffffffffffffffffff1673ffffffffffffffffffffffffffffffffffffffff16815260200190815260200160002060006101000a81548160ff021916908315150217905550620002666200013660201b60201c565b73ffffffffffffffffffffffffffffffffffffffff168173ffffffffffffffffffffffffffffffffffffffff16837f2f8788117e7eff1d82e926ec794901d17c78024a50270940304540a733656f0d60405160405180910390a45b5050565b6000620002d98383620003a960201b60201c565b6200033457826000018290806001815401808255809150506001900390600052602060002001600090919091909150558260000180549050836001016000848152602001908152602001600020819055506001905062000339565b600090505b92915050565b600080600084815260200190815260200160002060000160008373ffffffffffffffffffffffffffffffffffffffff1673ffffffffffffffffffffffffffffffffffffffff16815260200190815260200160002060009054906101000a900460ff16905092915050565b600080836001016000848152602001908152602001600020541415905092915050565b828054620003da90620005fe565b90600052602060002090601f016020900481019282620003fe57600085556200044a565b82601f106200041957805160ff19168380011785556200044a565b828001600101855582156200044a579182015b82811115620004495782518255916020019190600101906200042c565b5b5090506200045991906200045d565b5090565b5b80821115620004785760008160009055506001016200045e565b5090565b6000620004936200048d8462000595565b62000561565b905082815260208101848484011115620004ac57600080fd5b620004b9848285620005c8565b509392505050565b600082601f830112620004d357600080fd5b8151620004e58482602086016200047c565b91505092915050565b600080604083850312156200050257600080fd5b600083015167ffffffffffffffff8111156200051d57600080fd5b6200052b85828601620004c1565b925050602083015167ffffffffffffffff8111156200054957600080fd5b6200055785828601620004c1565b9150509250929050565b6000604051905081810181811067ffffffffffffffff821117156200058b576200058a62000663565b5b8060405250919050565b600067ffffffffffffffff821115620005b357620005b262000663565b5b601f19601f8301169050602081019050919050565b60005b83811015620005e8578082015181840152602081019050620005cb565b83811115620005f8576000848401525b50505050565b600060028204905060018216806200061757607f821691505b602082108114156200062e576200062d62000634565b5b50919050565b7f4e487b7100000000000000000000000000000000000000000000000000000000600052602260045260246000fd5b7f4e487b7100000000000000000000000000000000000000000000000000000000600052604160045260246000fd5b6145e680620006a26000396000f3fe608060405234801561001057600080fd5b50600436106101e55760003560e01c80636352211e1161010f578063a22cb465116100a2578063d539139311610071578063d5391393146105a0578063d547741f146105be578063e63ab1e9146105da578063e985e9c5146105f8576101e5565b8063a22cb46514610508578063b88d4fde14610524578063c87b56dd14610540578063ca15c87314610570576101e5565b80639010d07c116100de5780639010d07c1461046c57806391d148541461049c57806395d89b41146104cc578063a217fddf146104ea576101e5565b80636352211e146103e65780636a6278421461041657806370a08231146104325780638456cb5914610462576101e5565b80632f2ff15d1161018757806342842e0e1161015657806342842e0e1461036057806342966c681461037c5780634f6ccce7146103985780635c975abb146103c8576101e5565b80632f2ff15d146102ee5780632f745c591461030a57806336568abe1461033a5780633f4ba83a14610356576101e5565b8063095ea7b3116101c3578063095ea7b31461026857806318160ddd1461028457806323b872dd146102a2578063248a9ca3146102be576101e5565b806301ffc9a7146101ea57806306fdde031461021a578063081812fc14610238575b600080fd5b61020460048036038101906101ff91906132db565b610628565b6040516102119190613e68565b60405180910390f35b61022261063a565b60405161022f9190613e9e565b60405180910390f35b610252600480360381019061024d919061332d565b6106cc565b60405161025f9190613e01565b60405180910390f35b610282600480360381019061027d91906131fe565b610751565b005b61028c610869565b60405161029991906141e0565b60405180910390f35b6102bc60048036038101906102b791906130f8565b610876565b005b6102d860048036038101906102d3919061323a565b6108d6565b6040516102e59190613e83565b60405180910390f35b61030860048036038101906103039190613263565b6108f5565b005b610324600480360381019061031f91906131fe565b610929565b60405161033191906141e0565b60405180910390f35b610354600480360381019061034f9190613263565b6109ce565b005b61035e610a02565b005b61037a600480360381019061037591906130f8565b610a7c565b005b6103966004803603810190610391919061332d565b610a9c565b005b6103b260048036038101906103ad919061332d565b610af8565b6040516103bf91906141e0565b60405180910390f35b6103d0610b8f565b6040516103dd9190613e68565b60405180910390f35b61040060048036038101906103fb919061332d565b610ba6565b60405161040d9190613e01565b60405180910390f35b610430600480360381019061042b9190613093565b610c58565b005b61044c60048036038101906104479190613093565b610ce8565b60405161045991906141e0565b60405180910390f35b61046a610da0565b005b6104866004803603810190610481919061329f565b610e1a565b6040516104939190613e01565b60405180910390f35b6104b660048036038101906104b19190613263565b610e49565b6040516104c39190613e68565b60405180910390f35b6104d4610eb3565b6040516104e19190613e9e565b60405180910390f35b6104f2610f45565b6040516104ff9190613e83565b60405180910390f35b610522600480360381019061051d91906131c2565b610f4c565b005b61053e60048036038101906105399190613147565b6110cd565b005b61055a6004803603810190610555919061332d565b61112f565b6040516105679190613e9e565b60405180910390f35b61058a6004803603810190610585919061323a565b61121c565b60405161059791906141e0565b60405180910390f35b6105a8611240565b6040516105b59190613e83565b60405180910390f35b6105d860048036038101906105d39190613263565b611264565b005b6105e2611298565b6040516105ef9190613e83565b60405180910390f35b610612600480360381019061060d91906130bc565b6112bc565b60405161061f9190613e68565b60405180910390f35b60006106338261138e565b9050919050565b6060600280546106499061446d565b80601f01602080910402602001604051908101604052809291908181526020018280546106759061446d565b80156106c25780601f10610697576101008083540402835291602001916106c2565b820191906000526020600020905b8154815290600101906020018083116106a557829003601f168201915b5050505050905090565b60006106d782611408565b610716576040517f08c379a000000000000000000000000000000000000000000000000000000000815260040161070d906140c0565b60405180910390fd5b6006600083815260200190815260200160002060009054906101000a900473ffffffffffffffffffffffffffffffffffffffff169050919050565b600061075c82610ba6565b90508073ffffffffffffffffffffffffffffffffffffffff168373ffffffffffffffffffffffffffffffffffffffff1614156107cd576040517f08c379a00000000000000000000000000000000000000000000000000000000081526004016107c490614100565b60405180910390fd5b8073ffffffffffffffffffffffffffffffffffffffff166107ec611474565b73ffffffffffffffffffffffffffffffffffffffff16148061081b575061081a81610815611474565b6112bc565b5b61085a576040517f08c379a000000000000000000000000000000000000000000000000000000000815260040161085190614020565b60405180910390fd5b610864838361147c565b505050565b6000600a80549050905090565b610887610881611474565b82611535565b6108c6576040517f08c379a00000000000000000000000000000000000000000000000000000000081526004016108bd90614120565b60405180910390fd5b6108d1838383611613565b505050565b6000806000838152602001908152602001600020600101549050919050565b6108ff828261186f565b610924816001600085815260200190815260200160002061135e90919063ffffffff16565b505050565b600061093483610ce8565b8210610975576040517f08c379a000000000000000000000000000000000000000000000000000000000815260040161096c90613f20565b60405180910390fd5b600860008473ffffffffffffffffffffffffffffffffffffffff1673ffffffffffffffffffffffffffffffffffffffff168152602001908152602001600020600083815260200190815260200160002054905092915050565b6109d88282611898565b6109fd816001600085815260200190815260200160002061191b90919063ffffffff16565b505050565b610a337f65d7a28e3265b37a6474929f336521b332c1681b933f6cb9f3376673440d862a610a2e611474565b610e49565b610a72576040517f08c379a0000000000000000000000000000000000000000000000000000000008152600401610a69906141a0565b60405180910390fd5b610a7a61194b565b565b610a97838383604051806020016040528060008152506110cd565b505050565b610aad610aa7611474565b82611535565b610aec576040517f08c379a0000000000000000000000000000000000000000000000000000000008152600401610ae390614180565b60405180910390fd5b610af5816119ed565b50565b6000610b02610869565b8210610b43576040517f08c379a0000000000000000000000000000000000000000000000000000000008152600401610b3a90614140565b60405180910390fd5b600a8281548110610b7d577f4e487b7100000000000000000000000000000000000000000000000000000000600052603260045260246000fd5b90600052602060002001549050919050565b6000600c60009054906101000a900460ff16905090565b6000806004600084815260200190815260200160002060009054906101000a900473ffffffffffffffffffffffffffffffffffffffff169050600073ffffffffffffffffffffffffffffffffffffffff168173ffffffffffffffffffffffffffffffffffffffff161415610c4f576040517f08c379a0000000000000000000000000000000000000000000000000000000008152600401610c4690614060565b60405180910390fd5b80915050919050565b610c897f9f2df0fed2c77648de5860a4cc508cd0818c85b8b8a1ab4ceeef8d981c8956a6610c84611474565b610e49565b610cc8576040517f08c379a0000000000000000000000000000000000000000000000000000000008152600401610cbf90614160565b60405180910390fd5b610cdb81610cd6600d611a40565b611a4e565b610ce5600d611c1c565b50565b60008073ffffffffffffffffffffffffffffffffffffffff168273ffffffffffffffffffffffffffffffffffffffff161415610d59576040517f08c379a0000000000000000000000000000000000000000000000000000000008152600401610d5090614040565b60405180910390fd5b600560008373ffffffffffffffffffffffffffffffffffffffff1673ffffffffffffffffffffffffffffffffffffffff168152602001908152602001600020549050919050565b610dd17f65d7a28e3265b37a6474929f336521b332c1681b933f6cb9f3376673440d862a610dcc611474565b610e49565b610e10576040517f08c379a0000000000000000000000000000000000000000000000000000000008152600401610e0790613f80565b60405180910390fd5b610e18611c32565b565b6000610e418260016000868152602001908152602001600020611cd590919063ffffffff16565b905092915050565b600080600084815260200190815260200160002060000160008373ffffffffffffffffffffffffffffffffffffffff1673ffffffffffffffffffffffffffffffffffffffff16815260200190815260200160002060009054906101000a900460ff16905092915050565b606060038054610ec29061446d565b80601f0160208091040260200160405190810160405280929190818152602001828054610eee9061446d565b8015610f3b5780601f10610f1057610100808354040283529160200191610f3b565b820191906000526020600020905b815481529060010190602001808311610f1e57829003601f168201915b5050505050905090565b6000801b81565b610f54611474565b73ffffffffffffffffffffffffffffffffffffffff168273ffffffffffffffffffffffffffffffffffffffff161415610fc2576040517f08c379a0000000000000000000000000000000000000000000000000000000008152600401610fb990613fc0565b60405180910390fd5b8060076000610fcf611474565b73ffffffffffffffffffffffffffffffffffffffff1673ffffffffffffffffffffffffffffffffffffffff16815260200190815260200160002060008473ffffffffffffffffffffffffffffffffffffffff1673ffffffffffffffffffffffffffffffffffffffff16815260200190815260200160002060006101000a81548160ff0219169083151502179055508173ffffffffffffffffffffffffffffffffffffffff1661107c611474565b73ffffffffffffffffffffffffffffffffffffffff167f17307eab39ab6107e8899845ad3d59bd9653f200f220920489ca2b5937696c31836040516110c19190613e68565b60405180910390a35050565b6110de6110d8611474565b83611535565b61111d576040517f08c379a000000000000000000000000000000000000000000000000000000000815260040161111490614120565b60405180910390fd5b61112984848484611cef565b50505050565b606061113a82611408565b611179576040517f08c379a0000000000000000000000000000000000000000000000000000000008152600401611170906140a0565b60405180910390fd5b600e600083815260200190815260200160002080546111979061446d565b80601f01602080910402602001604051908101604052809291908181526020018280546111c39061446d565b80156112105780601f106111e557610100808354040283529160200191611210565b820191906000526020600020905b8154815290600101906020018083116111f357829003601f168201915b50505050509050919050565b600061123960016000848152602001908152602001600020611d4b565b9050919050565b7f9f2df0fed2c77648de5860a4cc508cd0818c85b8b8a1ab4ceeef8d981c8956a681565b61126e8282611d60565b611293816001600085815260200190815260200160002061191b90919063ffffffff16565b505050565b7f65d7a28e3265b37a6474929f336521b332c1681b933f6cb9f3376673440d862a81565b6000600760008473ffffffffffffffffffffffffffffffffffffffff1673ffffffffffffffffffffffffffffffffffffffff16815260200190815260200160002060008373ffffffffffffffffffffffffffffffffffffffff1673ffffffffffffffffffffffffffffffffffffffff16815260200190815260200160002060009054906101000a900460ff16905092915050565b61135a8282611d89565b5050565b6000611386836000018373ffffffffffffffffffffffffffffffffffffffff1660001b611e69565b905092915050565b60007f780e9d63000000000000000000000000000000000000000000000000000000007bffffffffffffffffffffffffffffffffffffffffffffffffffffffff1916827bffffffffffffffffffffffffffffffffffffffffffffffffffffffff19161480611401575061140082611ed9565b5b9050919050565b60008073ffffffffffffffffffffffffffffffffffffffff166004600084815260200190815260200160002060009054906101000a900473ffffffffffffffffffffffffffffffffffffffff1673ffffffffffffffffffffffffffffffffffffffff1614159050919050565b600033905090565b816006600083815260200190815260200160002060006101000a81548173ffffffffffffffffffffffffffffffffffffffff021916908373ffffffffffffffffffffffffffffffffffffffff160217905550808273ffffffffffffffffffffffffffffffffffffffff166114ef83610ba6565b73ffffffffffffffffffffffffffffffffffffffff167f8c5be1e5ebec7d5bd14f71427d1e84f3dd0314c0f7b2291e5b200ac8c7c3b92560405160405180910390a45050565b600061154082611408565b61157f576040517f08c379a000000000000000000000000000000000000000000000000000000000815260040161157690613fe0565b60405180910390fd5b600061158a83610ba6565b90508073ffffffffffffffffffffffffffffffffffffffff168473ffffffffffffffffffffffffffffffffffffffff1614806115f957508373ffffffffffffffffffffffffffffffffffffffff166115e1846106cc565b73ffffffffffffffffffffffffffffffffffffffff16145b8061160a575061160981856112bc565b5b91505092915050565b8273ffffffffffffffffffffffffffffffffffffffff1661163382610ba6565b73ffffffffffffffffffffffffffffffffffffffff1614611689576040517f08c379a0000000000000000000000000000000000000000000000000000000008152600401611680906140e0565b60405180910390fd5b600073ffffffffffffffffffffffffffffffffffffffff168273ffffffffffffffffffffffffffffffffffffffff1614156116f9576040517f08c379a00000000000000000000000000000000000000000000000000000000081526004016116f090613fa0565b60405180910390fd5b611704838383611fbb565b61170f60008261147c565b6001600560008573ffffffffffffffffffffffffffffffffffffffff1673ffffffffffffffffffffffffffffffffffffffff168152602001908152602001600020600082825461175f919061434f565b925050819055506001600560008473ffffffffffffffffffffffffffffffffffffffff1673ffffffffffffffffffffffffffffffffffffffff16815260200190815260200160002060008282546117b6919061429f565b92505081905550816004600083815260200190815260200160002060006101000a81548173ffffffffffffffffffffffffffffffffffffffff021916908373ffffffffffffffffffffffffffffffffffffffff160217905550808273ffffffffffffffffffffffffffffffffffffffff168473ffffffffffffffffffffffffffffffffffffffff167fddf252ad1be2c89b69c2b068fc378daa952ba7f163c4a11628f55a4df523b3ef60405160405180910390a4505050565b611878826108d6565b61188981611884611474565b611fcb565b6118938383611d89565b505050565b6118a0611474565b73ffffffffffffffffffffffffffffffffffffffff168173ffffffffffffffffffffffffffffffffffffffff161461190d576040517f08c379a0000000000000000000000000000000000000000000000000000000008152600401611904906141c0565b60405180910390fd5b6119178282612068565b5050565b6000611943836000018373ffffffffffffffffffffffffffffffffffffffff1660001b612149565b905092915050565b611953610b8f565b611992576040517f08c379a000000000000000000000000000000000000000000000000000000000815260040161198990613f00565b60405180910390fd5b6000600c60006101000a81548160ff0219169083151502179055507f5db9ee0a495bf2e6ff9c91a7834c1ba4fdd244a5e8aa4e537bd38aeae4b073aa6119d6611474565b6040516119e39190613e01565b60405180910390a1565b6119f6816122cf565b6000600e60008381526020019081526020016000208054611a169061446d565b905014611a3d57600e60008281526020019081526020016000206000611a3c9190612f50565b5b50565b600081600001549050919050565b600073ffffffffffffffffffffffffffffffffffffffff168273ffffffffffffffffffffffffffffffffffffffff161415611abe576040517f08c379a0000000000000000000000000000000000000000000000000000000008152600401611ab590614080565b60405180910390fd5b611ac781611408565b15611b07576040517f08c379a0000000000000000000000000000000000000000000000000000000008152600401611afe90613f60565b60405180910390fd5b611b1360008383611fbb565b6001600560008473ffffffffffffffffffffffffffffffffffffffff1673ffffffffffffffffffffffffffffffffffffffff1681526020019081526020016000206000828254611b63919061429f565b92505081905550816004600083815260200190815260200160002060006101000a81548173ffffffffffffffffffffffffffffffffffffffff021916908373ffffffffffffffffffffffffffffffffffffffff160217905550808273ffffffffffffffffffffffffffffffffffffffff16600073ffffffffffffffffffffffffffffffffffffffff167fddf252ad1be2c89b69c2b068fc378daa952ba7f163c4a11628f55a4df523b3ef60405160405180910390a45050565b6001816000016000828254019250508190555050565b611c3a610b8f565b15611c7a576040517f08c379a0000000000000000000000000000000000000000000000000000000008152600401611c7190614000565b60405180910390fd5b6001600c60006101000a81548160ff0219169083151502179055507f62e78cea01bee320cd4e420270b5ea74000d11b0c9f74754ebdbfc544b05a258611cbe611474565b604051611ccb9190613e01565b60405180910390a1565b6000611ce483600001836123e0565b60001c905092915050565b611cfa848484611613565b611d0684848484612431565b611d45576040517f08c379a0000000000000000000000000000000000000000000000000000000008152600401611d3c90613f40565b60405180910390fd5b50505050565b6000611d59826000016125c8565b9050919050565b611d69826108d6565b611d7a81611d75611474565b611fcb565b611d848383612068565b505050565b611d938282610e49565b611e6557600160008084815260200190815260200160002060000160008373ffffffffffffffffffffffffffffffffffffffff1673ffffffffffffffffffffffffffffffffffffffff16815260200190815260200160002060006101000a81548160ff021916908315150217905550611e0a611474565b73ffffffffffffffffffffffffffffffffffffffff168173ffffffffffffffffffffffffffffffffffffffff16837f2f8788117e7eff1d82e926ec794901d17c78024a50270940304540a733656f0d60405160405180910390a45b5050565b6000611e7583836125d9565b611ece578260000182908060018154018082558091505060019003906000526020600020016000909190919091505582600001805490508360010160008481526020019081526020016000208190555060019050611ed3565b600090505b92915050565b60007f80ac58cd000000000000000000000000000000000000000000000000000000007bffffffffffffffffffffffffffffffffffffffffffffffffffffffff1916827bffffffffffffffffffffffffffffffffffffffffffffffffffffffff19161480611fa457507f5b5e139f000000000000000000000000000000000000000000000000000000007bffffffffffffffffffffffffffffffffffffffffffffffffffffffff1916827bffffffffffffffffffffffffffffffffffffffffffffffffffffffff1916145b80611fb45750611fb3826125fc565b5b9050919050565b611fc6838383612676565b505050565b611fd58282610e49565b61206457611ffa8173ffffffffffffffffffffffffffffffffffffffff1660146126ce565b6120088360001c60206126ce565b604051602001612019929190613dc7565b6040516020818303038152906040526040517f08c379a000000000000000000000000000000000000000000000000000000000815260040161205b9190613e9e565b60405180910390fd5b5050565b6120728282610e49565b1561214557600080600084815260200190815260200160002060000160008373ffffffffffffffffffffffffffffffffffffffff1673ffffffffffffffffffffffffffffffffffffffff16815260200190815260200160002060006101000a81548160ff0219169083151502179055506120ea611474565b73ffffffffffffffffffffffffffffffffffffffff168173ffffffffffffffffffffffffffffffffffffffff16837ff6391f5c32d9c69d2a47ea670b442974b53935d1edc7fd64eb21e047a839171b60405160405180910390a45b5050565b600080836001016000848152602001908152602001600020549050600081146122c357600060018261217b919061434f565b9050600060018660000180549050612193919061434f565b905081811461224e5760008660000182815481106121da577f4e487b7100000000000000000000000000000000000000000000000000000000600052603260045260246000fd5b9060005260206000200154905080876000018481548110612224577f4e487b7100000000000000000000000000000000000000000000000000000000600052603260045260246000fd5b90600052602060002001819055508387600101600083815260200190815260200160002081905550505b85600001805480612288577f4e487b7100000000000000000000000000000000000000000000000000000000600052603160045260246000fd5b6001900381819060005260206000200160009055905585600101600086815260200190815260200160002060009055600193505050506122c9565b60009150505b92915050565b60006122da82610ba6565b90506122e881600084611fbb565b6122f360008361147c565b6001600560008373ffffffffffffffffffffffffffffffffffffffff1673ffffffffffffffffffffffffffffffffffffffff1681526020019081526020016000206000828254612343919061434f565b925050819055506004600083815260200190815260200160002060006101000a81549073ffffffffffffffffffffffffffffffffffffffff021916905581600073ffffffffffffffffffffffffffffffffffffffff168273ffffffffffffffffffffffffffffffffffffffff167fddf252ad1be2c89b69c2b068fc378daa952ba7f163c4a11628f55a4df523b3ef60405160405180910390a45050565b600082600001828154811061241e577f4e487b7100000000000000000000000000000000000000000000000000000000600052603260045260246000fd5b9060005260206000200154905092915050565b60006124528473ffffffffffffffffffffffffffffffffffffffff166129c8565b156125bb578373ffffffffffffffffffffffffffffffffffffffff1663150b7a0261247b611474565b8786866040518563ffffffff1660e01b815260040161249d9493929190613e1c565b602060405180830381600087803b1580156124b757600080fd5b505af19250505080156124e857506040513d601f19601f820116820180604052508101906124e59190613304565b60015b61256b573d8060008114612518576040519150601f19603f3d011682016040523d82523d6000602084013e61251d565b606091505b50600081511415612563576040517f08c379a000000000000000000000000000000000000000000000000000000000815260040161255a90613f40565b60405180910390fd5b805181602001fd5b63150b7a0260e01b7bffffffffffffffffffffffffffffffffffffffffffffffffffffffff1916817bffffffffffffffffffffffffffffffffffffffffffffffffffffffff1916149150506125c0565b600190505b949350505050565b600081600001805490509050919050565b600080836001016000848152602001908152602001600020541415905092915050565b60007f5a05180f000000000000000000000000000000000000000000000000000000007bffffffffffffffffffffffffffffffffffffffffffffffffffffffff1916827bffffffffffffffffffffffffffffffffffffffffffffffffffffffff1916148061266f575061266e826129db565b5b9050919050565b612681838383612a55565b612689610b8f565b156126c9576040517f08c379a00000000000000000000000000000000000000000000000000000000081526004016126c090613ee0565b60405180910390fd5b505050565b6060600060028360026126e191906142f5565b6126eb919061429f565b67ffffffffffffffff81111561272a577f4e487b7100000000000000000000000000000000000000000000000000000000600052604160045260246000fd5b6040519080825280601f01601f19166020018201604052801561275c5781602001600182028036833780820191505090505b5090507f3000000000000000000000000000000000000000000000000000000000000000816000815181106127ba577f4e487b7100000000000000000000000000000000000000000000000000000000600052603260045260246000fd5b60200101907effffffffffffffffffffffffffffffffffffffffffffffffffffffffffffff1916908160001a9053507f780000000000000000000000000000000000000000000000000000000000000081600181518110612844577f4e487b7100000000000000000000000000000000000000000000000000000000600052603260045260246000fd5b60200101907effffffffffffffffffffffffffffffffffffffffffffffffffffffffffffff1916908160001a9053506000600184600261288491906142f5565b61288e919061429f565b90505b600181111561297a577f3031323334353637383961626364656600000000000000000000000000000000600f8616601081106128f6577f4e487b7100000000000000000000000000000000000000000000000000000000600052603260045260246000fd5b1a60f81b828281518110612933577f4e487b7100000000000000000000000000000000000000000000000000000000600052603260045260246000fd5b60200101907effffffffffffffffffffffffffffffffffffffffffffffffffffffffffffff1916908160001a905350600485901c94508061297390614443565b9050612891565b50600084146129be576040517f08c379a00000000000000000000000000000000000000000000000000000000081526004016129b590613ec0565b60405180910390fd5b8091505092915050565b600080823b905060008111915050919050565b60007f7965db0b000000000000000000000000000000000000000000000000000000007bffffffffffffffffffffffffffffffffffffffffffffffffffffffff1916827bffffffffffffffffffffffffffffffffffffffffffffffffffffffff19161480612a4e5750612a4d82612b69565b5b9050919050565b612a60838383612bd3565b600073ffffffffffffffffffffffffffffffffffffffff168373ffffffffffffffffffffffffffffffffffffffff161415612aa357612a9e81612bd8565b612ae2565b8173ffffffffffffffffffffffffffffffffffffffff168373ffffffffffffffffffffffffffffffffffffffff1614612ae157612ae08382612c21565b5b5b600073ffffffffffffffffffffffffffffffffffffffff168273ffffffffffffffffffffffffffffffffffffffff161415612b2557612b2081612d8e565b612b64565b8273ffffffffffffffffffffffffffffffffffffffff168273ffffffffffffffffffffffffffffffffffffffff1614612b6357612b628282612ed1565b5b5b505050565b60007f01ffc9a7000000000000000000000000000000000000000000000000000000007bffffffffffffffffffffffffffffffffffffffffffffffffffffffff1916827bffffffffffffffffffffffffffffffffffffffffffffffffffffffff1916149050919050565b505050565b600a80549050600b600083815260200190815260200160002081905550600a81908060018154018082558091505060019003906000526020600020016000909190919091505550565b60006001612c2e84610ce8565b612c38919061434f565b9050600060096000848152602001908152602001600020549050818114612d1d576000600860008673ffffffffffffffffffffffffffffffffffffffff1673ffffffffffffffffffffffffffffffffffffffff168152602001908152602001600020600084815260200190815260200160002054905080600860008773ffffffffffffffffffffffffffffffffffffffff1673ffffffffffffffffffffffffffffffffffffffff168152602001908152602001600020600084815260200190815260200160002081905550816009600083815260200190815260200160002081905550505b6009600084815260200190815260200160002060009055600860008573ffffffffffffffffffffffffffffffffffffffff1673ffffffffffffffffffffffffffffffffffffffff16815260200190815260200160002060008381526020019081526020016000206000905550505050565b60006001600a80549050612da2919061434f565b90506000600b60008481526020019081526020016000205490506000600a8381548110612df8577f4e487b7100000000000000000000000000000000000000000000000000000000600052603260045260246000fd5b9060005260206000200154905080600a8381548110612e40577f4e487b7100000000000000000000000000000000000000000000000000000000600052603260045260246000fd5b906000526020600020018190555081600b600083815260200190815260200160002081905550600b600085815260200190815260200160002060009055600a805480612eb5577f4e487b7100000000000000000000000000000000000000000000000000000000600052603160045260246000fd5b6001900381819060005260206000200160009055905550505050565b6000612edc83610ce8565b905081600860008573ffffffffffffffffffffffffffffffffffffffff1673ffffffffffffffffffffffffffffffffffffffff168152602001908152602001600020600083815260200190815260200160002081905550806009600084815260200190815260200160002081905550505050565b508054612f5c9061446d565b6000825580601f10612f6e5750612f8d565b601f016020900490600052602060002090810190612f8c9190612f90565b5b50565b5b80821115612fa9576000816000905550600101612f91565b5090565b6000612fc0612fbb8461422c565b6141fb565b905082815260208101848484011115612fd857600080fd5b612fe3848285614401565b509392505050565b600081359050612ffa8161453d565b92915050565b60008135905061300f81614554565b92915050565b6000813590506130248161456b565b92915050565b60008135905061303981614582565b92915050565b60008151905061304e81614582565b92915050565b600082601f83011261306557600080fd5b8135613075848260208601612fad565b91505092915050565b60008135905061308d81614599565b92915050565b6000602082840312156130a557600080fd5b60006130b384828501612feb565b91505092915050565b600080604083850312156130cf57600080fd5b60006130dd85828601612feb565b92505060206130ee85828601612feb565b9150509250929050565b60008060006060848603121561310d57600080fd5b600061311b86828701612feb565b935050602061312c86828701612feb565b925050604061313d8682870161307e565b9150509250925092565b6000806000806080858703121561315d57600080fd5b600061316b87828801612feb565b945050602061317c87828801612feb565b935050604061318d8782880161307e565b925050606085013567ffffffffffffffff8111156131aa57600080fd5b6131b687828801613054565b91505092959194509250565b600080604083850312156131d557600080fd5b60006131e385828601612feb565b92505060206131f485828601613000565b9150509250929050565b6000806040838503121561321157600080fd5b600061321f85828601612feb565b92505060206132308582860161307e565b9150509250929050565b60006020828403121561324c57600080fd5b600061325a84828501613015565b91505092915050565b6000806040838503121561327657600080fd5b600061328485828601613015565b925050602061329585828601612feb565b9150509250929050565b600080604083850312156132b257600080fd5b60006132c085828601613015565b92505060206132d18582860161307e565b9150509250929050565b6000602082840312156132ed57600080fd5b60006132fb8482850161302a565b91505092915050565b60006020828403121561331657600080fd5b60006133248482850161303f565b91505092915050565b60006020828403121561333f57600080fd5b600061334d8482850161307e565b91505092915050565b61335f81614383565b82525050565b61336e81614395565b82525050565b61337d816143a1565b82525050565b600061338e8261425c565b6133988185614272565b93506133a8818560208601614410565b6133b18161452c565b840191505092915050565b60006133c782614267565b6133d18185614283565b93506133e1818560208601614410565b6133ea8161452c565b840191505092915050565b600061340082614267565b61340a8185614294565b935061341a818560208601614410565b80840191505092915050565b6000613433602083614283565b91507f537472696e67733a20686578206c656e67746820696e73756666696369656e746000830152602082019050919050565b6000613473602b83614283565b91507f4552433732315061757361626c653a20746f6b656e207472616e73666572207760008301527f68696c65207061757365640000000000000000000000000000000000000000006020830152604082019050919050565b60006134d9601483614283565b91507f5061757361626c653a206e6f74207061757365640000000000000000000000006000830152602082019050919050565b6000613519602b83614283565b91507f455243373231456e756d657261626c653a206f776e657220696e646578206f7560008301527f74206f6620626f756e64730000000000000000000000000000000000000000006020830152604082019050919050565b600061357f603283614283565b91507f4552433732313a207472616e7366657220746f206e6f6e20455243373231526560008301527f63656976657220696d706c656d656e74657200000000000000000000000000006020830152604082019050919050565b60006135e5601c83614283565b91507f4552433732313a20746f6b656e20616c7265616479206d696e746564000000006000830152602082019050919050565b6000613625603e83614283565b91507f4552433732315072657365744d696e7465725061757365724175746f49643a2060008301527f6d75737420686176652070617573657220726f6c6520746f20706175736500006020830152604082019050919050565b600061368b602483614283565b91507f4552433732313a207472616e7366657220746f20746865207a65726f2061646460008301527f72657373000000000000000000000000000000000000000000000000000000006020830152604082019050919050565b60006136f1601983614283565b91507f4552433732313a20617070726f766520746f2063616c6c6572000000000000006000830152602082019050919050565b6000613731602c83614283565b91507f4552433732313a206f70657261746f7220717565727920666f72206e6f6e657860008301527f697374656e7420746f6b656e00000000000000000000000000000000000000006020830152604082019050919050565b6000613797601083614283565b91507f5061757361626c653a20706175736564000000000000000000000000000000006000830152602082019050919050565b60006137d7603883614283565b91507f4552433732313a20617070726f76652063616c6c6572206973206e6f74206f7760008301527f6e6572206e6f7220617070726f76656420666f7220616c6c00000000000000006020830152604082019050919050565b600061383d602a83614283565b91507f4552433732313a2062616c616e636520717565727920666f7220746865207a6560008301527f726f2061646472657373000000000000000000000000000000000000000000006020830152604082019050919050565b60006138a3602983614283565b91507f4552433732313a206f776e657220717565727920666f72206e6f6e657869737460008301527f656e7420746f6b656e00000000000000000000000000000000000000000000006020830152604082019050919050565b6000613909602083614283565b91507f4552433732313a206d696e7420746f20746865207a65726f20616464726573736000830152602082019050919050565b6000613949603183614283565b91507f45524337323155524953746f726167653a2055524920717565727920666f722060008301527f6e6f6e6578697374656e7420746f6b656e0000000000000000000000000000006020830152604082019050919050565b60006139af602c83614283565b91507f4552433732313a20617070726f76656420717565727920666f72206e6f6e657860008301527f697374656e7420746f6b656e00000000000000000000000000000000000000006020830152604082019050919050565b6000613a15602983614283565b91507f4552433732313a207472616e73666572206f6620746f6b656e2074686174206960008301527f73206e6f74206f776e00000000000000000000000000000000000000000000006020830152604082019050919050565b6000613a7b602183614283565b91507f4552433732313a20617070726f76616c20746f2063757272656e74206f776e6560008301527f72000000000000000000000000000000000000000000000000000000000000006020830152604082019050919050565b6000613ae1603183614283565b91507f4552433732313a207472616e736665722063616c6c6572206973206e6f74206f60008301527f776e6572206e6f7220617070726f7665640000000000000000000000000000006020830152604082019050919050565b6000613b47602c83614283565b91507f455243373231456e756d657261626c653a20676c6f62616c20696e646578206f60008301527f7574206f6620626f756e647300000000000000000000000000000000000000006020830152604082019050919050565b6000613bad601783614294565b91507f416363657373436f6e74726f6c3a206163636f756e74200000000000000000006000830152601782019050919050565b6000613bed603d83614283565b91507f4552433732315072657365744d696e7465725061757365724175746f49643a2060008301527f6d7573742068617665206d696e74657220726f6c6520746f206d696e740000006020830152604082019050919050565b6000613c53603083614283565b91507f4552433732314275726e61626c653a2063616c6c6572206973206e6f74206f7760008301527f6e6572206e6f7220617070726f766564000000000000000000000000000000006020830152604082019050919050565b6000613cb9604083614283565b91507f4552433732315072657365744d696e7465725061757365724175746f49643a2060008301527f6d75737420686176652070617573657220726f6c6520746f20756e70617573656020830152604082019050919050565b6000613d1f601183614294565b91507f206973206d697373696e6720726f6c65200000000000000000000000000000006000830152601182019050919050565b6000613d5f602f83614283565b91507f416363657373436f6e74726f6c3a2063616e206f6e6c792072656e6f756e636560008301527f20726f6c657320666f722073656c6600000000000000000000000000000000006020830152604082019050919050565b613dc1816143f7565b82525050565b6000613dd282613ba0565b9150613dde82856133f5565b9150613de982613d12565b9150613df582846133f5565b91508190509392505050565b6000602082019050613e166000830184613356565b92915050565b6000608082019050613e316000830187613356565b613e3e6020830186613356565b613e4b6040830185613db8565b8181036060830152613e5d8184613383565b905095945050505050565b6000602082019050613e7d6000830184613365565b92915050565b6000602082019050613e986000830184613374565b92915050565b60006020820190508181036000830152613eb881846133bc565b905092915050565b60006020820190508181036000830152613ed981613426565b9050919050565b60006020820190508181036000830152613ef981613466565b9050919050565b60006020820190508181036000830152613f19816134cc565b9050919050565b60006020820190508181036000830152613f398161350c565b9050919050565b60006020820190508181036000830152613f5981613572565b9050919050565b60006020820190508181036000830152613f79816135d8565b9050919050565b60006020820190508181036000830152613f9981613618565b9050919050565b60006020820190508181036000830152613fb98161367e565b9050919050565b60006020820190508181036000830152613fd9816136e4565b9050919050565b60006020820190508181036000830152613ff981613724565b9050919050565b600060208201905081810360008301526140198161378a565b9050919050565b60006020820190508181036000830152614039816137ca565b9050919050565b6000602082019050818103600083015261405981613830565b9050919050565b6000602082019050818103600083015261407981613896565b9050919050565b60006020820190508181036000830152614099816138fc565b9050919050565b600060208201905081810360008301526140b98161393c565b9050919050565b600060208201905081810360008301526140d9816139a2565b9050919050565b600060208201905081810360008301526140f981613a08565b9050919050565b6000602082019050818103600083015261411981613a6e565b9050919050565b6000602082019050818103600083015261413981613ad4565b9050919050565b6000602082019050818103600083015261415981613b3a565b9050919050565b6000602082019050818103600083015261417981613be0565b9050919050565b6000602082019050818103600083015261419981613c46565b9050919050565b600060208201905081810360008301526141b981613cac565b9050919050565b600060208201905081810360008301526141d981613d52565b9050919050565b60006020820190506141f56000830184613db8565b92915050565b6000604051905081810181811067ffffffffffffffff82111715614222576142216144fd565b5b8060405250919050565b600067ffffffffffffffff821115614247576142466144fd565b5b601f19601f8301169050602081019050919050565b600081519050919050565b600081519050919050565b600082825260208201905092915050565b600082825260208201905092915050565b600081905092915050565b60006142aa826143f7565b91506142b5836143f7565b9250827fffffffffffffffffffffffffffffffffffffffffffffffffffffffffffffffff038211156142ea576142e961449f565b5b828201905092915050565b6000614300826143f7565b915061430b836143f7565b9250817fffffffffffffffffffffffffffffffffffffffffffffffffffffffffffffffff04831182151516156143445761434361449f565b5b828202905092915050565b600061435a826143f7565b9150614365836143f7565b9250828210156143785761437761449f565b5b828203905092915050565b600061438e826143d7565b9050919050565b60008115159050919050565b6000819050919050565b60007fffffffff0000000000000000000000000000000000000000000000000000000082169050919050565b600073ffffffffffffffffffffffffffffffffffffffff82169050919050565b6000819050919050565b82818337600083830152505050565b60005b8381101561442e578082015181840152602081019050614413565b8381111561443d576000848401525b50505050565b600061444e826143f7565b915060008214156144625761446161449f565b5b600182039050919050565b6000600282049050600182168061448557607f821691505b60208210811415614499576144986144ce565b5b50919050565b7f4e487b7100000000000000000000000000000000000000000000000000000000600052601160045260246000fd5b7f4e487b7100000000000000000000000000000000000000000000000000000000600052602260045260246000fd5b7f4e487b7100000000000000000000000000000000000000000000000000000000600052604160045260246000fd5b6000601f19601f8301169050919050565b61454681614383565b811461455157600080fd5b50565b61455d81614395565b811461456857600080fd5b50565b614574816143a1565b811461457f57600080fd5b50565b61458b816143ab565b811461459657600080fd5b50565b6145a2816143f7565b81146145ad57600080fd5b5056fea264697066735822122026dd64f8fa4e6cf68f1c81ed37723dec68a90b95a73d9e05aa4f656693dd429b64736f6c63430008000033a264697066735822122072344b1e06daeaaa78efd6f8d29800d12201672ec763d54b20a56b64f327de8164736f6c63430008000033",
  "immutableReferences": {},
  "source": "/**\r\n * Contract factories have to occupy one contract for each contract type,\r\n * or else the 24kb size limit is exceeded. This factory produces the\r\n * ERC721PresetMinterPauserAutoId contract with a modification for IPFS\r\n * support which allows for unlimited minting of tokens. It is not\r\n * important for contract factories to be connected to each other,\r\n * they only need to inherit from FactoryStorage.\r\n */\r\n\r\n// SPDX-License-Identifier: MIT\r\npragma solidity ^0.8.0;\r\n\r\nimport \"../Dependencies/ERC1155PresetMinterPauser.sol\";\r\nimport \"../Dependencies/ERC721PresetMinterPauserAutoId.sol\";\r\nimport \"./FactoryStorage.sol\";\r\n\r\ncontract ContractFactory721 is FactoryStorage {\r\n\r\n    // Clones an ERC721PresetMinterPauserAutoId contract with IPFS minting support;\r\n    function newERC721Contract(string memory name, string memory symbol) external returns (address newContract) {        \r\n         ERC721PresetMinterPauserAutoId _newContract = new \r\n         ERC721PresetMinterPauserAutoId(name, symbol);\r\n         newContract = address(_newContract);\r\n\r\n        _storeInfo(newContract, 1);\r\n    }\r\n\r\n\r\n\r\n\r\n    \r\n\r\n}",
  "sourcePath": "C:/Users/solus/Documents/Solidity/Hackathon/contentnfts V0/contracts/TokenFactory/ContractFactory721.sol",
  "compiler": {
    "name": "solc",
    "version": "0.8.0+commit.c7dfd78e.Emscripten.clang"
  },
  "schemaVersion": "3.4.1",
  "updatedAt": "2021-12-13T17:18:47.065Z",
  "devdoc": {
    "kind": "dev",
    "methods": {},
    "version": 1
  },
  "userdoc": {
    "kind": "user",
    "methods": {},
    "version": 1
  }
}