{
  "contractName": "ERC1155",
  "abi": [
    {
      "inputs": [],
      "stateMutability": "nonpayable",
      "type": "constructor"
    },
    {
      "anonymous": false,
      "inputs": [
        {
          "indexed": true,
          "internalType": "address",
          "name": "account",
          "type": "address"
        },
        {
          "indexed": true,
          "internalType": "address",
          "name": "operator",
          "type": "address"
        },
        {
          "indexed": false,
          "internalType": "bool",
          "name": "approved",
          "type": "bool"
        }
      ],
      "name": "ApprovalForAll",
      "type": "event"
    },
    {
      "anonymous": false,
      "inputs": [
        {
          "indexed": true,
          "internalType": "address",
          "name": "operator",
          "type": "address"
        },
        {
          "indexed": true,
          "internalType": "address",
          "name": "from",
          "type": "address"
        },
        {
          "indexed": true,
          "internalType": "address",
          "name": "to",
          "type": "address"
        },
        {
          "indexed": false,
          "internalType": "uint256[]",
          "name": "ids",
          "type": "uint256[]"
        },
        {
          "indexed": false,
          "internalType": "uint256[]",
          "name": "values",
          "type": "uint256[]"
        }
      ],
      "name": "TransferBatch",
      "type": "event"
    },
    {
      "anonymous": false,
      "inputs": [
        {
          "indexed": true,
          "internalType": "address",
          "name": "operator",
          "type": "address"
        },
        {
          "indexed": true,
          "internalType": "address",
          "name": "from",
          "type": "address"
        },
        {
          "indexed": true,
          "internalType": "address",
          "name": "to",
          "type": "address"
        },
        {
          "indexed": false,
          "internalType": "uint256",
          "name": "id",
          "type": "uint256"
        },
        {
          "indexed": false,
          "internalType": "uint256",
          "name": "value",
          "type": "uint256"
        }
      ],
      "name": "TransferSingle",
      "type": "event"
    },
    {
      "anonymous": false,
      "inputs": [
        {
          "indexed": false,
          "internalType": "string",
          "name": "value",
          "type": "string"
        },
        {
          "indexed": true,
          "internalType": "uint256",
          "name": "id",
          "type": "uint256"
        }
      ],
      "name": "URI",
      "type": "event"
    },
    {
      "inputs": [
        {
          "internalType": "bytes4",
          "name": "interfaceId",
          "type": "bytes4"
        }
      ],
      "name": "supportsInterface",
      "outputs": [
        {
          "internalType": "bool",
          "name": "",
          "type": "bool"
        }
      ],
      "stateMutability": "view",
      "type": "function"
    },
    {
      "inputs": [
        {
          "internalType": "uint256",
          "name": "tokenID",
          "type": "uint256"
        }
      ],
      "name": "uri",
      "outputs": [
        {
          "internalType": "string",
          "name": "",
          "type": "string"
        }
      ],
      "stateMutability": "view",
      "type": "function"
    },
    {
      "inputs": [
        {
          "internalType": "address",
          "name": "account",
          "type": "address"
        },
        {
          "internalType": "uint256",
          "name": "id",
          "type": "uint256"
        }
      ],
      "name": "balanceOf",
      "outputs": [
        {
          "internalType": "uint256",
          "name": "",
          "type": "uint256"
        }
      ],
      "stateMutability": "view",
      "type": "function"
    },
    {
      "inputs": [
        {
          "internalType": "address[]",
          "name": "accounts",
          "type": "address[]"
        },
        {
          "internalType": "uint256[]",
          "name": "ids",
          "type": "uint256[]"
        }
      ],
      "name": "balanceOfBatch",
      "outputs": [
        {
          "internalType": "uint256[]",
          "name": "",
          "type": "uint256[]"
        }
      ],
      "stateMutability": "view",
      "type": "function"
    },
    {
      "inputs": [
        {
          "internalType": "address",
          "name": "operator",
          "type": "address"
        },
        {
          "internalType": "bool",
          "name": "approved",
          "type": "bool"
        }
      ],
      "name": "setApprovalForAll",
      "outputs": [],
      "stateMutability": "nonpayable",
      "type": "function"
    },
    {
      "inputs": [
        {
          "internalType": "address",
          "name": "account",
          "type": "address"
        },
        {
          "internalType": "address",
          "name": "operator",
          "type": "address"
        }
      ],
      "name": "isApprovedForAll",
      "outputs": [
        {
          "internalType": "bool",
          "name": "",
          "type": "bool"
        }
      ],
      "stateMutability": "view",
      "type": "function"
    },
    {
      "inputs": [
        {
          "internalType": "address",
          "name": "from",
          "type": "address"
        },
        {
          "internalType": "address",
          "name": "to",
          "type": "address"
        },
        {
          "internalType": "uint256",
          "name": "id",
          "type": "uint256"
        },
        {
          "internalType": "uint256",
          "name": "amount",
          "type": "uint256"
        },
        {
          "internalType": "bytes",
          "name": "data",
          "type": "bytes"
        }
      ],
      "name": "safeTransferFrom",
      "outputs": [],
      "stateMutability": "nonpayable",
      "type": "function"
    },
    {
      "inputs": [
        {
          "internalType": "address",
          "name": "from",
          "type": "address"
        },
        {
          "internalType": "address",
          "name": "to",
          "type": "address"
        },
        {
          "internalType": "uint256[]",
          "name": "ids",
          "type": "uint256[]"
        },
        {
          "internalType": "uint256[]",
          "name": "amounts",
          "type": "uint256[]"
        },
        {
          "internalType": "bytes",
          "name": "data",
          "type": "bytes"
        }
      ],
      "name": "safeBatchTransferFrom",
      "outputs": [],
      "stateMutability": "nonpayable",
      "type": "function"
    }
  ],
  "bytecode": "0x608060405234801561001057600080fd5b506125c9806100206000396000f3fe608060405234801561001057600080fd5b50600436106100875760003560e01c80634e1273f41161005b5780634e1273f414610138578063a22cb46514610168578063e985e9c514610184578063f242432a146101b457610087565b8062fdd58e1461008c57806301ffc9a7146100bc5780630e89341c146100ec5780632eb2c2d61461011c575b600080fd5b6100a660048036038101906100a191906117d2565b6101d0565b6040516100b391906120ad565b60405180910390f35b6100d660048036038101906100d1919061187a565b610299565b6040516100e39190611f30565b60405180910390f35b610106600480360381019061010191906118cc565b61037b565b6040516101139190611f4b565b60405180910390f35b61013660048036038101906101319190611648565b610420565b005b610152600480360381019061014d919061180e565b6104c1565b60405161015f9190611ed7565b60405180910390f35b610182600480360381019061017d9190611796565b610672565b005b61019e6004803603810190610199919061160c565b6107f3565b6040516101ab9190611f30565b60405180910390f35b6101ce60048036038101906101c99190611707565b610887565b005b60008073ffffffffffffffffffffffffffffffffffffffff168373ffffffffffffffffffffffffffffffffffffffff161415610241576040517f08c379a000000000000000000000000000000000000000000000000000000000815260040161023890611fad565b60405180910390fd5b60008083815260200190815260200160002060008473ffffffffffffffffffffffffffffffffffffffff1673ffffffffffffffffffffffffffffffffffffffff16815260200190815260200160002054905092915050565b60007fd9b67a26000000000000000000000000000000000000000000000000000000007bffffffffffffffffffffffffffffffffffffffffffffffffffffffff1916827bffffffffffffffffffffffffffffffffffffffffffffffffffffffff1916148061036457507f0e89341c000000000000000000000000000000000000000000000000000000007bffffffffffffffffffffffffffffffffffffffffffffffffffffffff1916827bffffffffffffffffffffffffffffffffffffffffffffffffffffffff1916145b80610374575061037382610928565b5b9050919050565b606060026000838152602001908152602001600020805461039b9061235b565b80601f01602080910402602001604051908101604052809291908181526020018280546103c79061235b565b80156104145780601f106103e957610100808354040283529160200191610414565b820191906000526020600020905b8154815290600101906020018083116103f757829003601f168201915b50505050509050919050565b610428610992565b73ffffffffffffffffffffffffffffffffffffffff168573ffffffffffffffffffffffffffffffffffffffff16148061046e575061046d85610468610992565b6107f3565b5b6104ad576040517f08c379a00000000000000000000000000000000000000000000000000000000081526004016104a49061200d565b60405180910390fd5b6104ba858585858561099a565b5050505050565b60608151835114610507576040517f08c379a00000000000000000000000000000000000000000000000000000000081526004016104fe9061206d565b60405180910390fd5b6000835167ffffffffffffffff81111561054a577f4e487b7100000000000000000000000000000000000000000000000000000000600052604160045260246000fd5b6040519080825280602002602001820160405280156105785781602001602082028036833780820191505090505b50905060005b8451811015610667576106118582815181106105c3577f4e487b7100000000000000000000000000000000000000000000000000000000600052603260045260246000fd5b6020026020010151858381518110610604577f4e487b7100000000000000000000000000000000000000000000000000000000600052603260045260246000fd5b60200260200101516101d0565b82828151811061064a577f4e487b7100000000000000000000000000000000000000000000000000000000600052603260045260246000fd5b602002602001018181525050806106609061238d565b905061057e565b508091505092915050565b8173ffffffffffffffffffffffffffffffffffffffff16610691610992565b73ffffffffffffffffffffffffffffffffffffffff1614156106e8576040517f08c379a00000000000000000000000000000000000000000000000000000000081526004016106df9061204d565b60405180910390fd5b80600160006106f5610992565b73ffffffffffffffffffffffffffffffffffffffff1673ffffffffffffffffffffffffffffffffffffffff16815260200190815260200160002060008473ffffffffffffffffffffffffffffffffffffffff1673ffffffffffffffffffffffffffffffffffffffff16815260200190815260200160002060006101000a81548160ff0219169083151502179055508173ffffffffffffffffffffffffffffffffffffffff166107a2610992565b73ffffffffffffffffffffffffffffffffffffffff167f17307eab39ab6107e8899845ad3d59bd9653f200f220920489ca2b5937696c31836040516107e79190611f30565b60405180910390a35050565b6000600160008473ffffffffffffffffffffffffffffffffffffffff1673ffffffffffffffffffffffffffffffffffffffff16815260200190815260200160002060008373ffffffffffffffffffffffffffffffffffffffff1673ffffffffffffffffffffffffffffffffffffffff16815260200190815260200160002060009054906101000a900460ff16905092915050565b61088f610992565b73ffffffffffffffffffffffffffffffffffffffff168573ffffffffffffffffffffffffffffffffffffffff1614806108d557506108d4856108cf610992565b6107f3565b5b610914576040517f08c379a000000000000000000000000000000000000000000000000000000000815260040161090b90611fcd565b60405180910390fd5b6109218585858585610d03565b5050505050565b60007f01ffc9a7000000000000000000000000000000000000000000000000000000007bffffffffffffffffffffffffffffffffffffffffffffffffffffffff1916827bffffffffffffffffffffffffffffffffffffffffffffffffffffffff1916149050919050565b600033905090565b81518351146109de576040517f08c379a00000000000000000000000000000000000000000000000000000000081526004016109d59061208d565b60405180910390fd5b600073ffffffffffffffffffffffffffffffffffffffff168473ffffffffffffffffffffffffffffffffffffffff161415610a4e576040517f08c379a0000000000000000000000000000000000000000000000000000000008152600401610a4590611fed565b60405180910390fd5b6000610a58610992565b9050610a68818787878787610f8e565b60005b8451811015610c6e576000858281518110610aaf577f4e487b7100000000000000000000000000000000000000000000000000000000600052603260045260246000fd5b602002602001015190506000858381518110610af4577f4e487b7100000000000000000000000000000000000000000000000000000000600052603260045260246000fd5b60200260200101519050600080600084815260200190815260200160002060008b73ffffffffffffffffffffffffffffffffffffffff1673ffffffffffffffffffffffffffffffffffffffff16815260200190815260200160002054905081811015610b95576040517f08c379a0000000000000000000000000000000000000000000000000000000008152600401610b8c9061202d565b60405180910390fd5b8181610ba19190612271565b60008085815260200190815260200160002060008c73ffffffffffffffffffffffffffffffffffffffff1673ffffffffffffffffffffffffffffffffffffffff168152602001908152602001600020819055508160008085815260200190815260200160002060008b73ffffffffffffffffffffffffffffffffffffffff1673ffffffffffffffffffffffffffffffffffffffff1681526020019081526020016000206000828254610c53919061221b565b9250508190555050505080610c679061238d565b9050610a6b565b508473ffffffffffffffffffffffffffffffffffffffff168673ffffffffffffffffffffffffffffffffffffffff168273ffffffffffffffffffffffffffffffffffffffff167f4a39dc06d4c0dbc64b70af90fd698a233a518aa5d07e595d983b8c0526c8f7fb8787604051610ce5929190611ef9565b60405180910390a4610cfb818787878787610f96565b505050505050565b600073ffffffffffffffffffffffffffffffffffffffff168473ffffffffffffffffffffffffffffffffffffffff161415610d73576040517f08c379a0000000000000000000000000000000000000000000000000000000008152600401610d6a90611fed565b60405180910390fd5b6000610d7d610992565b9050610d9d818787610d8e88611166565b610d9788611166565b87610f8e565b600080600086815260200190815260200160002060008873ffffffffffffffffffffffffffffffffffffffff1673ffffffffffffffffffffffffffffffffffffffff16815260200190815260200160002054905083811015610e34576040517f08c379a0000000000000000000000000000000000000000000000000000000008152600401610e2b9061202d565b60405180910390fd5b8381610e409190612271565b60008087815260200190815260200160002060008973ffffffffffffffffffffffffffffffffffffffff1673ffffffffffffffffffffffffffffffffffffffff168152602001908152602001600020819055508360008087815260200190815260200160002060008873ffffffffffffffffffffffffffffffffffffffff1673ffffffffffffffffffffffffffffffffffffffff1681526020019081526020016000206000828254610ef2919061221b565b925050819055508573ffffffffffffffffffffffffffffffffffffffff168773ffffffffffffffffffffffffffffffffffffffff168373ffffffffffffffffffffffffffffffffffffffff167fc3d58168c5ae7397731d063d5bbf3d657854427343f4c083240f7aacaa2d0f628888604051610f6f9291906120c8565b60405180910390a4610f8582888888888861122c565b50505050505050565b505050505050565b610fb58473ffffffffffffffffffffffffffffffffffffffff166113fc565b1561115e578373ffffffffffffffffffffffffffffffffffffffff1663bc197c8187878686866040518663ffffffff1660e01b8152600401610ffb959493929190611e15565b602060405180830381600087803b15801561101557600080fd5b505af192505050801561104657506040513d601f19601f8201168201806040525081019061104391906118a3565b60015b6110d557611052612481565b8061105d575061109a565b806040517f08c379a00000000000000000000000000000000000000000000000000000000081526004016110919190611f4b565b60405180910390fd5b6040517f08c379a00000000000000000000000000000000000000000000000000000000081526004016110cc90611f6d565b60405180910390fd5b63bc197c8160e01b7bffffffffffffffffffffffffffffffffffffffffffffffffffffffff1916817bffffffffffffffffffffffffffffffffffffffffffffffffffffffff19161461115c576040517f08c379a000000000000000000000000000000000000000000000000000000000815260040161115390611f8d565b60405180910390fd5b505b505050505050565b60606000600167ffffffffffffffff8111156111ab577f4e487b7100000000000000000000000000000000000000000000000000000000600052604160045260246000fd5b6040519080825280602002602001820160405280156111d95781602001602082028036833780820191505090505b5090508281600081518110611217577f4e487b7100000000000000000000000000000000000000000000000000000000600052603260045260246000fd5b60200260200101818152505080915050919050565b61124b8473ffffffffffffffffffffffffffffffffffffffff166113fc565b156113f4578373ffffffffffffffffffffffffffffffffffffffff1663f23a6e6187878686866040518663ffffffff1660e01b8152600401611291959493929190611e7d565b602060405180830381600087803b1580156112ab57600080fd5b505af19250505080156112dc57506040513d601f19601f820116820180604052508101906112d991906118a3565b60015b61136b576112e8612481565b806112f35750611330565b806040517f08c379a00000000000000000000000000000000000000000000000000000000081526004016113279190611f4b565b60405180910390fd5b6040517f08c379a000000000000000000000000000000000000000000000000000000000815260040161136290611f6d565b60405180910390fd5b63f23a6e6160e01b7bffffffffffffffffffffffffffffffffffffffffffffffffffffffff1916817bffffffffffffffffffffffffffffffffffffffffffffffffffffffff1916146113f2576040517f08c379a00000000000000000000000000000000000000000000000000000000081526004016113e990611f8d565b60405180910390fd5b505b505050505050565b600080823b905060008111915050919050565b600061142261141d84612122565b6120f1565b9050808382526020820190508285602086028201111561144157600080fd5b60005b8581101561147157816114578882611525565b845260208401935060208301925050600181019050611444565b5050509392505050565b600061148e6114898461214e565b6120f1565b905080838252602082019050828560208602820111156114ad57600080fd5b60005b858110156114dd57816114c388826115f7565b8452602084019350602083019250506001810190506114b0565b5050509392505050565b60006114fa6114f58461217a565b6120f1565b90508281526020810184848401111561151257600080fd5b61151d848285612319565b509392505050565b60008135905061153481612537565b92915050565b600082601f83011261154b57600080fd5b813561155b84826020860161140f565b91505092915050565b600082601f83011261157557600080fd5b813561158584826020860161147b565b91505092915050565b60008135905061159d8161254e565b92915050565b6000813590506115b281612565565b92915050565b6000815190506115c781612565565b92915050565b600082601f8301126115de57600080fd5b81356115ee8482602086016114e7565b91505092915050565b6000813590506116068161257c565b92915050565b6000806040838503121561161f57600080fd5b600061162d85828601611525565b925050602061163e85828601611525565b9150509250929050565b600080600080600060a0868803121561166057600080fd5b600061166e88828901611525565b955050602061167f88828901611525565b945050604086013567ffffffffffffffff81111561169c57600080fd5b6116a888828901611564565b935050606086013567ffffffffffffffff8111156116c557600080fd5b6116d188828901611564565b925050608086013567ffffffffffffffff8111156116ee57600080fd5b6116fa888289016115cd565b9150509295509295909350565b600080600080600060a0868803121561171f57600080fd5b600061172d88828901611525565b955050602061173e88828901611525565b945050604061174f888289016115f7565b9350506060611760888289016115f7565b925050608086013567ffffffffffffffff81111561177d57600080fd5b611789888289016115cd565b9150509295509295909350565b600080604083850312156117a957600080fd5b60006117b785828601611525565b92505060206117c88582860161158e565b9150509250929050565b600080604083850312156117e557600080fd5b60006117f385828601611525565b9250506020611804858286016115f7565b9150509250929050565b6000806040838503121561182157600080fd5b600083013567ffffffffffffffff81111561183b57600080fd5b6118478582860161153a565b925050602083013567ffffffffffffffff81111561186457600080fd5b61187085828601611564565b9150509250929050565b60006020828403121561188c57600080fd5b600061189a848285016115a3565b91505092915050565b6000602082840312156118b557600080fd5b60006118c3848285016115b8565b91505092915050565b6000602082840312156118de57600080fd5b60006118ec848285016115f7565b91505092915050565b60006119018383611df7565b60208301905092915050565b611916816122a5565b82525050565b6000611927826121ba565b61193181856121e8565b935061193c836121aa565b8060005b8381101561196d57815161195488826118f5565b975061195f836121db565b925050600181019050611940565b5085935050505092915050565b611983816122b7565b82525050565b6000611994826121c5565b61199e81856121f9565b93506119ae818560208601612328565b6119b781612463565b840191505092915050565b60006119cd826121d0565b6119d7818561220a565b93506119e7818560208601612328565b6119f081612463565b840191505092915050565b6000611a0860348361220a565b91507f455243313135353a207472616e7366657220746f206e6f6e204552433131353560008301527f526563656976657220696d706c656d656e7465720000000000000000000000006020830152604082019050919050565b6000611a6e60288361220a565b91507f455243313135353a204552433131353552656365697665722072656a6563746560008301527f6420746f6b656e730000000000000000000000000000000000000000000000006020830152604082019050919050565b6000611ad4602b8361220a565b91507f455243313135353a2062616c616e636520717565727920666f7220746865207a60008301527f65726f20616464726573730000000000000000000000000000000000000000006020830152604082019050919050565b6000611b3a60298361220a565b91507f455243313135353a2063616c6c6572206973206e6f74206f776e6572206e6f7260008301527f20617070726f76656400000000000000000000000000000000000000000000006020830152604082019050919050565b6000611ba060258361220a565b91507f455243313135353a207472616e7366657220746f20746865207a65726f20616460008301527f64726573730000000000000000000000000000000000000000000000000000006020830152604082019050919050565b6000611c0660328361220a565b91507f455243313135353a207472616e736665722063616c6c6572206973206e6f742060008301527f6f776e6572206e6f7220617070726f76656400000000000000000000000000006020830152604082019050919050565b6000611c6c602a8361220a565b91507f455243313135353a20696e73756666696369656e742062616c616e636520666f60008301527f72207472616e73666572000000000000000000000000000000000000000000006020830152604082019050919050565b6000611cd260298361220a565b91507f455243313135353a2073657474696e6720617070726f76616c2073746174757360008301527f20666f722073656c6600000000000000000000000000000000000000000000006020830152604082019050919050565b6000611d3860298361220a565b91507f455243313135353a206163636f756e747320616e6420696473206c656e67746860008301527f206d69736d6174636800000000000000000000000000000000000000000000006020830152604082019050919050565b6000611d9e60288361220a565b91507f455243313135353a2069647320616e6420616d6f756e7473206c656e6774682060008301527f6d69736d617463680000000000000000000000000000000000000000000000006020830152604082019050919050565b611e008161230f565b82525050565b611e0f8161230f565b82525050565b600060a082019050611e2a600083018861190d565b611e37602083018761190d565b8181036040830152611e49818661191c565b90508181036060830152611e5d818561191c565b90508181036080830152611e718184611989565b90509695505050505050565b600060a082019050611e92600083018861190d565b611e9f602083018761190d565b611eac6040830186611e06565b611eb96060830185611e06565b8181036080830152611ecb8184611989565b90509695505050505050565b60006020820190508181036000830152611ef1818461191c565b905092915050565b60006040820190508181036000830152611f13818561191c565b90508181036020830152611f27818461191c565b90509392505050565b6000602082019050611f45600083018461197a565b92915050565b60006020820190508181036000830152611f6581846119c2565b905092915050565b60006020820190508181036000830152611f86816119fb565b9050919050565b60006020820190508181036000830152611fa681611a61565b9050919050565b60006020820190508181036000830152611fc681611ac7565b9050919050565b60006020820190508181036000830152611fe681611b2d565b9050919050565b6000602082019050818103600083015261200681611b93565b9050919050565b6000602082019050818103600083015261202681611bf9565b9050919050565b6000602082019050818103600083015261204681611c5f565b9050919050565b6000602082019050818103600083015261206681611cc5565b9050919050565b6000602082019050818103600083015261208681611d2b565b9050919050565b600060208201905081810360008301526120a681611d91565b9050919050565b60006020820190506120c26000830184611e06565b92915050565b60006040820190506120dd6000830185611e06565b6120ea6020830184611e06565b9392505050565b6000604051905081810181811067ffffffffffffffff8211171561211857612117612434565b5b8060405250919050565b600067ffffffffffffffff82111561213d5761213c612434565b5b602082029050602081019050919050565b600067ffffffffffffffff82111561216957612168612434565b5b602082029050602081019050919050565b600067ffffffffffffffff82111561219557612194612434565b5b601f19601f8301169050602081019050919050565b6000819050602082019050919050565b600081519050919050565b600081519050919050565b600081519050919050565b6000602082019050919050565b600082825260208201905092915050565b600082825260208201905092915050565b600082825260208201905092915050565b60006122268261230f565b91506122318361230f565b9250827fffffffffffffffffffffffffffffffffffffffffffffffffffffffffffffffff03821115612266576122656123d6565b5b828201905092915050565b600061227c8261230f565b91506122878361230f565b92508282101561229a576122996123d6565b5b828203905092915050565b60006122b0826122ef565b9050919050565b60008115159050919050565b60007fffffffff0000000000000000000000000000000000000000000000000000000082169050919050565b600073ffffffffffffffffffffffffffffffffffffffff82169050919050565b6000819050919050565b82818337600083830152505050565b60005b8381101561234657808201518184015260208101905061232b565b83811115612355576000848401525b50505050565b6000600282049050600182168061237357607f821691505b6020821081141561238757612386612405565b5b50919050565b60006123988261230f565b91507fffffffffffffffffffffffffffffffffffffffffffffffffffffffffffffffff8214156123cb576123ca6123d6565b5b600182019050919050565b7f4e487b7100000000000000000000000000000000000000000000000000000000600052601160045260246000fd5b7f4e487b7100000000000000000000000000000000000000000000000000000000600052602260045260246000fd5b7f4e487b7100000000000000000000000000000000000000000000000000000000600052604160045260246000fd5b6000601f19601f8301169050919050565b60008160e01c9050919050565b600060443d101561249157612534565b60046000803e6124a2600051612474565b6308c379a081146124b35750612534565b60405160043d036004823e80513d602482011167ffffffffffffffff821117156124df57505050612534565b808201805167ffffffffffffffff8111156124fe575050505050612534565b8060208301013d850181111561251957505050505050612534565b61252282612463565b60208401016040528296505050505050505b90565b612540816122a5565b811461254b57600080fd5b50565b612557816122b7565b811461256257600080fd5b50565b61256e816122c3565b811461257957600080fd5b50565b6125858161230f565b811461259057600080fd5b5056fea26469706673582212205c35feeab8ee24638efe6fa191a67fb0720216f306818e23ee663d9e47c5e04564736f6c63430008000033",
  "immutableReferences": {},
  "source": "/**\n * @dev PHOENIX: Modified the way token URIs are set to a mapping to enable\n * minting compatibility with IPFS.\n */\n\n// SPDX-License-Identifier: MIT\n\npragma solidity ^0.8.0;\n\nimport \"./IERC1155.sol\";\nimport \"./IERC1155Receiver.sol\";\nimport \"./IERC1155MetadataURI.sol\";\nimport \"./Address.sol\";\nimport \"./Context.sol\";\nimport \"./ERC165.sol\";\n\n/**\n * @dev Implementation of the basic standard multi-token.\n * See https://eips.ethereum.org/EIPS/eip-1155\n * Originally based on code by Enjin: https://github.com/enjin/erc-1155\n *\n * _Available since v3.1._\n */\ncontract ERC1155 is Context, ERC165, IERC1155, IERC1155MetadataURI {\n    using Address for address;\n\n    // Mapping from token ID to account balances\n    mapping (uint256 => mapping(address => uint256)) private _balances;\n\n    // Mapping from account to operator approvals\n    mapping (address => mapping(address => bool)) private _operatorApprovals;\n\n    // Used as the URI for all token types by relying on ID substitution, e.g. https://token-cdn-domain/{id}.json\n    mapping(uint256 => string) private _uri;\n\n    /**\n     * @dev See {_setURI}.\n     */\n    constructor () {}\n\n    /**\n     * @dev See {IERC165-supportsInterface}.\n     */\n    function supportsInterface(bytes4 interfaceId) public view virtual override(ERC165, IERC165) returns (bool) {\n        return interfaceId == type(IERC1155).interfaceId\n            || interfaceId == type(IERC1155MetadataURI).interfaceId\n            || super.supportsInterface(interfaceId);\n    }\n\n    /**\n     * @dev See {IERC1155MetadataURI-uri}.\n     *\n     * This implementation returns the same URI for *all* token types. It relies\n     * on the token type ID substitution mechanism\n     * https://eips.ethereum.org/EIPS/eip-1155#metadata[defined in the EIP].\n     *\n     * Clients calling this function must replace the `\\{id\\}` substring with the\n     * actual token type ID.\n     */\n    function uri(uint256 tokenID) public view virtual override returns (string memory) {\n        return _uri[tokenID];\n    }\n\n    /**\n     * @dev See {IERC1155-balanceOf}.\n     *\n     * Requirements:\n     *\n     * - `account` cannot be the zero address.\n     */\n    function balanceOf(address account, uint256 id) public view virtual override returns (uint256) {\n        require(account != address(0), \"ERC1155: balance query for the zero address\");\n        return _balances[id][account];\n    }\n\n    /**\n     * @dev See {IERC1155-balanceOfBatch}.\n     *\n     * Requirements:\n     *\n     * - `accounts` and `ids` must have the same length.\n     */\n    function balanceOfBatch(\n        address[] memory accounts,\n        uint256[] memory ids\n    )\n        public\n        view\n        virtual\n        override\n        returns (uint256[] memory)\n    {\n        require(accounts.length == ids.length, \"ERC1155: accounts and ids length mismatch\");\n\n        uint256[] memory batchBalances = new uint256[](accounts.length);\n\n        for (uint256 i = 0; i < accounts.length; ++i) {\n            batchBalances[i] = balanceOf(accounts[i], ids[i]);\n        }\n\n        return batchBalances;\n    }\n\n    /**\n     * @dev See {IERC1155-setApprovalForAll}.\n     */\n    function setApprovalForAll(address operator, bool approved) public virtual override {\n        require(_msgSender() != operator, \"ERC1155: setting approval status for self\");\n\n        _operatorApprovals[_msgSender()][operator] = approved;\n        emit ApprovalForAll(_msgSender(), operator, approved);\n    }\n\n    /**\n     * @dev See {IERC1155-isApprovedForAll}.\n     */\n    function isApprovedForAll(address account, address operator) public view virtual override returns (bool) {\n        return _operatorApprovals[account][operator];\n    }\n\n    /**\n     * @dev See {IERC1155-safeTransferFrom}.\n     */\n    function safeTransferFrom(\n        address from,\n        address to,\n        uint256 id,\n        uint256 amount,\n        bytes memory data\n    )\n        public\n        virtual\n        override\n    {\n        require(\n            from == _msgSender() || isApprovedForAll(from, _msgSender()),\n            \"ERC1155: caller is not owner nor approved\"\n        );\n        _safeTransferFrom(from, to, id, amount, data);\n    }\n\n    /**\n     * @dev See {IERC1155-safeBatchTransferFrom}.\n     */\n    function safeBatchTransferFrom(\n        address from,\n        address to,\n        uint256[] memory ids,\n        uint256[] memory amounts,\n        bytes memory data\n    )\n        public\n        virtual\n        override\n    {\n        require(\n            from == _msgSender() || isApprovedForAll(from, _msgSender()),\n            \"ERC1155: transfer caller is not owner nor approved\"\n        );\n        _safeBatchTransferFrom(from, to, ids, amounts, data);\n    }\n\n    /**\n     * @dev Transfers `amount` tokens of token type `id` from `from` to `to`.\n     *\n     * Emits a {TransferSingle} event.\n     *\n     * Requirements:\n     *\n     * - `to` cannot be the zero address.\n     * - `from` must have a balance of tokens of type `id` of at least `amount`.\n     * - If `to` refers to a smart contract, it must implement {IERC1155Receiver-onERC1155Received} and return the\n     * acceptance magic value.\n     */\n    function _safeTransferFrom(\n        address from,\n        address to,\n        uint256 id,\n        uint256 amount,\n        bytes memory data\n    )\n        internal\n        virtual\n    {\n        require(to != address(0), \"ERC1155: transfer to the zero address\");\n\n        address operator = _msgSender();\n\n        _beforeTokenTransfer(operator, from, to, _asSingletonArray(id), _asSingletonArray(amount), data);\n\n        uint256 fromBalance = _balances[id][from];\n        require(fromBalance >= amount, \"ERC1155: insufficient balance for transfer\");\n        _balances[id][from] = fromBalance - amount;\n        _balances[id][to] += amount;\n\n        emit TransferSingle(operator, from, to, id, amount);\n\n        _doSafeTransferAcceptanceCheck(operator, from, to, id, amount, data);\n    }\n\n    /**\n     * @dev xref:ROOT:erc1155.adoc#batch-operations[Batched] version of {_safeTransferFrom}.\n     *\n     * Emits a {TransferBatch} event.\n     *\n     * Requirements:\n     *\n     * - If `to` refers to a smart contract, it must implement {IERC1155Receiver-onERC1155BatchReceived} and return the\n     * acceptance magic value.\n     */\n    function _safeBatchTransferFrom(\n        address from,\n        address to,\n        uint256[] memory ids,\n        uint256[] memory amounts,\n        bytes memory data\n    )\n        internal\n        virtual\n    {\n        require(ids.length == amounts.length, \"ERC1155: ids and amounts length mismatch\");\n        require(to != address(0), \"ERC1155: transfer to the zero address\");\n\n        address operator = _msgSender();\n\n        _beforeTokenTransfer(operator, from, to, ids, amounts, data);\n\n        for (uint256 i = 0; i < ids.length; ++i) {\n            uint256 id = ids[i];\n            uint256 amount = amounts[i];\n\n            uint256 fromBalance = _balances[id][from];\n            require(fromBalance >= amount, \"ERC1155: insufficient balance for transfer\");\n            _balances[id][from] = fromBalance - amount;\n            _balances[id][to] += amount;\n        }\n\n        emit TransferBatch(operator, from, to, ids, amounts);\n\n        _doSafeBatchTransferAcceptanceCheck(operator, from, to, ids, amounts, data);\n    }\n\n    /**\n     * @dev Sets a new URI for all token types, by relying on the token type ID\n     * substitution mechanism\n     * https://eips.ethereum.org/EIPS/eip-1155#metadata[defined in the EIP].\n     *\n     * By this mechanism, any occurrence of the `\\{id\\}` substring in either the\n     * URI or any of the amounts in the JSON file at said URI will be replaced by\n     * clients with the token type ID.\n     *\n     * For example, the `https://token-cdn-domain/\\{id\\}.json` URI would be\n     * interpreted by clients as\n     * `https://token-cdn-domain/000000000000000000000000000000000000000000000000000000000004cce0.json`\n     * for token type ID 0x4cce0.\n     *\n     * See {uri}.\n     *\n     * Because these URIs cannot be meaningfully represented by the {URI} event,\n     * this function emits no events.\n     */\n    function _setURI(string memory newuri, uint256 tokenID) internal virtual {\n        _uri[tokenID] = newuri;\n    }\n\n    /**\n     * @dev Creates `amount` tokens of token type `id`, and assigns them to `account`.\n     *\n     * Emits a {TransferSingle} event.\n     *\n     * Requirements:\n     *\n     * - `account` cannot be the zero address.\n     * - If `account` refers to a smart contract, it must implement {IERC1155Receiver-onERC1155Received} and return the\n     * acceptance magic value.\n     */\n    function _mint(address account, uint256 id, uint256 amount, bytes memory data) internal virtual {\n        require(account != address(0), \"ERC1155: mint to the zero address\");\n\n        address operator = _msgSender();\n\n        _beforeTokenTransfer(operator, address(0), account, _asSingletonArray(id), _asSingletonArray(amount), data);\n\n        _balances[id][account] += amount;\n        emit TransferSingle(operator, address(0), account, id, amount);\n\n        _doSafeTransferAcceptanceCheck(operator, address(0), account, id, amount, data);\n    }\n\n    /**\n     * @dev xref:ROOT:erc1155.adoc#batch-operations[Batched] version of {_mint}.\n     *\n     * Requirements:\n     *\n     * - `ids` and `amounts` must have the same length.\n     * - If `to` refers to a smart contract, it must implement {IERC1155Receiver-onERC1155BatchReceived} and return the\n     * acceptance magic value.\n     */\n    function _mintBatch(address to, uint256[] memory ids, uint256[] memory amounts, bytes memory data) internal virtual {\n        require(to != address(0), \"ERC1155: mint to the zero address\");\n        require(ids.length == amounts.length, \"ERC1155: ids and amounts length mismatch\");\n\n        address operator = _msgSender();\n\n        _beforeTokenTransfer(operator, address(0), to, ids, amounts, data);\n\n        for (uint i = 0; i < ids.length; i++) {\n            _balances[ids[i]][to] += amounts[i];\n        }\n\n        emit TransferBatch(operator, address(0), to, ids, amounts);\n\n        _doSafeBatchTransferAcceptanceCheck(operator, address(0), to, ids, amounts, data);\n    }\n\n    /**\n     * @dev Destroys `amount` tokens of token type `id` from `account`\n     *\n     * Requirements:\n     *\n     * - `account` cannot be the zero address.\n     * - `account` must have at least `amount` tokens of token type `id`.\n     */\n    function _burn(address account, uint256 id, uint256 amount) internal virtual {\n        require(account != address(0), \"ERC1155: burn from the zero address\");\n\n        address operator = _msgSender();\n\n        _beforeTokenTransfer(operator, account, address(0), _asSingletonArray(id), _asSingletonArray(amount), \"\");\n\n        uint256 accountBalance = _balances[id][account];\n        require(accountBalance >= amount, \"ERC1155: burn amount exceeds balance\");\n        _balances[id][account] = accountBalance - amount;\n\n        emit TransferSingle(operator, account, address(0), id, amount);\n    }\n\n    /**\n     * @dev xref:ROOT:erc1155.adoc#batch-operations[Batched] version of {_burn}.\n     *\n     * Requirements:\n     *\n     * - `ids` and `amounts` must have the same length.\n     */\n    function _burnBatch(address account, uint256[] memory ids, uint256[] memory amounts) internal virtual {\n        require(account != address(0), \"ERC1155: burn from the zero address\");\n        require(ids.length == amounts.length, \"ERC1155: ids and amounts length mismatch\");\n\n        address operator = _msgSender();\n\n        _beforeTokenTransfer(operator, account, address(0), ids, amounts, \"\");\n\n        for (uint i = 0; i < ids.length; i++) {\n            uint256 id = ids[i];\n            uint256 amount = amounts[i];\n\n            uint256 accountBalance = _balances[id][account];\n            require(accountBalance >= amount, \"ERC1155: burn amount exceeds balance\");\n            _balances[id][account] = accountBalance - amount;\n        }\n\n        emit TransferBatch(operator, account, address(0), ids, amounts);\n    }\n\n    /**\n     * @dev Hook that is called before any token transfer. This includes minting\n     * and burning, as well as batched variants.\n     *\n     * The same hook is called on both single and batched variants. For single\n     * transfers, the length of the `id` and `amount` arrays will be 1.\n     *\n     * Calling conditions (for each `id` and `amount` pair):\n     *\n     * - When `from` and `to` are both non-zero, `amount` of ``from``'s tokens\n     * of token type `id` will be  transferred to `to`.\n     * - When `from` is zero, `amount` tokens of token type `id` will be minted\n     * for `to`.\n     * - when `to` is zero, `amount` of ``from``'s tokens of token type `id`\n     * will be burned.\n     * - `from` and `to` are never both zero.\n     * - `ids` and `amounts` have the same, non-zero length.\n     *\n     * To learn more about hooks, head to xref:ROOT:extending-contracts.adoc#using-hooks[Using Hooks].\n     */\n    function _beforeTokenTransfer(\n        address operator,\n        address from,\n        address to,\n        uint256[] memory ids,\n        uint256[] memory amounts,\n        bytes memory data\n    )\n        internal\n        virtual\n    { }\n\n    function _doSafeTransferAcceptanceCheck(\n        address operator,\n        address from,\n        address to,\n        uint256 id,\n        uint256 amount,\n        bytes memory data\n    )\n        private\n    {\n        if (to.isContract()) {\n            try IERC1155Receiver(to).onERC1155Received(operator, from, id, amount, data) returns (bytes4 response) {\n                if (response != IERC1155Receiver(to).onERC1155Received.selector) {\n                    revert(\"ERC1155: ERC1155Receiver rejected tokens\");\n                }\n            } catch Error(string memory reason) {\n                revert(reason);\n            } catch {\n                revert(\"ERC1155: transfer to non ERC1155Receiver implementer\");\n            }\n        }\n    }\n\n    function _doSafeBatchTransferAcceptanceCheck(\n        address operator,\n        address from,\n        address to,\n        uint256[] memory ids,\n        uint256[] memory amounts,\n        bytes memory data\n    )\n        private\n    {\n        if (to.isContract()) {\n            try IERC1155Receiver(to).onERC1155BatchReceived(operator, from, ids, amounts, data) returns (bytes4 response) {\n                if (response != IERC1155Receiver(to).onERC1155BatchReceived.selector) {\n                    revert(\"ERC1155: ERC1155Receiver rejected tokens\");\n                }\n            } catch Error(string memory reason) {\n                revert(reason);\n            } catch {\n                revert(\"ERC1155: transfer to non ERC1155Receiver implementer\");\n            }\n        }\n    }\n\n    function _asSingletonArray(uint256 element) private pure returns (uint256[] memory) {\n        uint256[] memory array = new uint256[](1);\n        array[0] = element;\n\n        return array;\n    }\n}\n",
  "sourcePath": "C:/Users/solus/Documents/Solidity/Hackathon/contentnfts V0/contracts/Dependencies/ERC1155.sol",
  "compiler": {
    "name": "solc",
    "version": "0.8.0+commit.c7dfd78e.Emscripten.clang"
  },
  "schemaVersion": "3.4.1",
  "updatedAt": "2021-12-13T17:24:10.796Z",
  "devdoc": {
    "details": "Implementation of the basic standard multi-token. See https://eips.ethereum.org/EIPS/eip-1155 Originally based on code by Enjin: https://github.com/enjin/erc-1155 _Available since v3.1._",
    "kind": "dev",
    "methods": {
      "balanceOf(address,uint256)": {
        "details": "See {IERC1155-balanceOf}. Requirements: - `account` cannot be the zero address."
      },
      "balanceOfBatch(address[],uint256[])": {
        "details": "See {IERC1155-balanceOfBatch}. Requirements: - `accounts` and `ids` must have the same length."
      },
      "constructor": {
        "details": "See {_setURI}."
      },
      "isApprovedForAll(address,address)": {
        "details": "See {IERC1155-isApprovedForAll}."
      },
      "safeBatchTransferFrom(address,address,uint256[],uint256[],bytes)": {
        "details": "See {IERC1155-safeBatchTransferFrom}."
      },
      "safeTransferFrom(address,address,uint256,uint256,bytes)": {
        "details": "See {IERC1155-safeTransferFrom}."
      },
      "setApprovalForAll(address,bool)": {
        "details": "See {IERC1155-setApprovalForAll}."
      },
      "supportsInterface(bytes4)": {
        "details": "See {IERC165-supportsInterface}."
      },
      "uri(uint256)": {
        "details": "See {IERC1155MetadataURI-uri}. This implementation returns the same URI for *all* token types. It relies on the token type ID substitution mechanism https://eips.ethereum.org/EIPS/eip-1155#metadata[defined in the EIP]. Clients calling this function must replace the `\\{id\\}` substring with the actual token type ID."
      }
    },
    "version": 1
  },
  "userdoc": {
    "kind": "user",
    "methods": {},
    "version": 1
  }
}