{
  "contractName": "ERC1155PresetMinterPauser",
  "abi": [
    {
      "inputs": [],
      "stateMutability": "nonpayable",
      "type": "constructor"
    },
    {
      "anonymous": false,
      "inputs": [
        {
          "indexed": true,
          "internalType": "address",
          "name": "account",
          "type": "address"
        },
        {
          "indexed": true,
          "internalType": "address",
          "name": "operator",
          "type": "address"
        },
        {
          "indexed": false,
          "internalType": "bool",
          "name": "approved",
          "type": "bool"
        }
      ],
      "name": "ApprovalForAll",
      "type": "event"
    },
    {
      "anonymous": false,
      "inputs": [
        {
          "indexed": false,
          "internalType": "address",
          "name": "account",
          "type": "address"
        }
      ],
      "name": "Paused",
      "type": "event"
    },
    {
      "anonymous": false,
      "inputs": [
        {
          "indexed": true,
          "internalType": "bytes32",
          "name": "role",
          "type": "bytes32"
        },
        {
          "indexed": true,
          "internalType": "bytes32",
          "name": "previousAdminRole",
          "type": "bytes32"
        },
        {
          "indexed": true,
          "internalType": "bytes32",
          "name": "newAdminRole",
          "type": "bytes32"
        }
      ],
      "name": "RoleAdminChanged",
      "type": "event"
    },
    {
      "anonymous": false,
      "inputs": [
        {
          "indexed": true,
          "internalType": "bytes32",
          "name": "role",
          "type": "bytes32"
        },
        {
          "indexed": true,
          "internalType": "address",
          "name": "account",
          "type": "address"
        },
        {
          "indexed": true,
          "internalType": "address",
          "name": "sender",
          "type": "address"
        }
      ],
      "name": "RoleGranted",
      "type": "event"
    },
    {
      "anonymous": false,
      "inputs": [
        {
          "indexed": true,
          "internalType": "bytes32",
          "name": "role",
          "type": "bytes32"
        },
        {
          "indexed": true,
          "internalType": "address",
          "name": "account",
          "type": "address"
        },
        {
          "indexed": true,
          "internalType": "address",
          "name": "sender",
          "type": "address"
        }
      ],
      "name": "RoleRevoked",
      "type": "event"
    },
    {
      "anonymous": false,
      "inputs": [
        {
          "indexed": true,
          "internalType": "address",
          "name": "operator",
          "type": "address"
        },
        {
          "indexed": true,
          "internalType": "address",
          "name": "from",
          "type": "address"
        },
        {
          "indexed": true,
          "internalType": "address",
          "name": "to",
          "type": "address"
        },
        {
          "indexed": false,
          "internalType": "uint256[]",
          "name": "ids",
          "type": "uint256[]"
        },
        {
          "indexed": false,
          "internalType": "uint256[]",
          "name": "values",
          "type": "uint256[]"
        }
      ],
      "name": "TransferBatch",
      "type": "event"
    },
    {
      "anonymous": false,
      "inputs": [
        {
          "indexed": true,
          "internalType": "address",
          "name": "operator",
          "type": "address"
        },
        {
          "indexed": true,
          "internalType": "address",
          "name": "from",
          "type": "address"
        },
        {
          "indexed": true,
          "internalType": "address",
          "name": "to",
          "type": "address"
        },
        {
          "indexed": false,
          "internalType": "uint256",
          "name": "id",
          "type": "uint256"
        },
        {
          "indexed": false,
          "internalType": "uint256",
          "name": "value",
          "type": "uint256"
        }
      ],
      "name": "TransferSingle",
      "type": "event"
    },
    {
      "anonymous": false,
      "inputs": [
        {
          "indexed": false,
          "internalType": "string",
          "name": "value",
          "type": "string"
        },
        {
          "indexed": true,
          "internalType": "uint256",
          "name": "id",
          "type": "uint256"
        }
      ],
      "name": "URI",
      "type": "event"
    },
    {
      "anonymous": false,
      "inputs": [
        {
          "indexed": false,
          "internalType": "address",
          "name": "account",
          "type": "address"
        }
      ],
      "name": "Unpaused",
      "type": "event"
    },
    {
      "inputs": [],
      "name": "DEFAULT_ADMIN_ROLE",
      "outputs": [
        {
          "internalType": "bytes32",
          "name": "",
          "type": "bytes32"
        }
      ],
      "stateMutability": "view",
      "type": "function",
      "constant": true
    },
    {
      "inputs": [],
      "name": "MINTER_ROLE",
      "outputs": [
        {
          "internalType": "bytes32",
          "name": "",
          "type": "bytes32"
        }
      ],
      "stateMutability": "view",
      "type": "function",
      "constant": true
    },
    {
      "inputs": [],
      "name": "PAUSER_ROLE",
      "outputs": [
        {
          "internalType": "bytes32",
          "name": "",
          "type": "bytes32"
        }
      ],
      "stateMutability": "view",
      "type": "function",
      "constant": true
    },
    {
      "inputs": [
        {
          "internalType": "address",
          "name": "account",
          "type": "address"
        },
        {
          "internalType": "uint256",
          "name": "id",
          "type": "uint256"
        }
      ],
      "name": "balanceOf",
      "outputs": [
        {
          "internalType": "uint256",
          "name": "",
          "type": "uint256"
        }
      ],
      "stateMutability": "view",
      "type": "function",
      "constant": true
    },
    {
      "inputs": [
        {
          "internalType": "address[]",
          "name": "accounts",
          "type": "address[]"
        },
        {
          "internalType": "uint256[]",
          "name": "ids",
          "type": "uint256[]"
        }
      ],
      "name": "balanceOfBatch",
      "outputs": [
        {
          "internalType": "uint256[]",
          "name": "",
          "type": "uint256[]"
        }
      ],
      "stateMutability": "view",
      "type": "function",
      "constant": true
    },
    {
      "inputs": [
        {
          "internalType": "address",
          "name": "account",
          "type": "address"
        },
        {
          "internalType": "uint256",
          "name": "id",
          "type": "uint256"
        },
        {
          "internalType": "uint256",
          "name": "value",
          "type": "uint256"
        }
      ],
      "name": "burn",
      "outputs": [],
      "stateMutability": "nonpayable",
      "type": "function"
    },
    {
      "inputs": [
        {
          "internalType": "address",
          "name": "account",
          "type": "address"
        },
        {
          "internalType": "uint256[]",
          "name": "ids",
          "type": "uint256[]"
        },
        {
          "internalType": "uint256[]",
          "name": "values",
          "type": "uint256[]"
        }
      ],
      "name": "burnBatch",
      "outputs": [],
      "stateMutability": "nonpayable",
      "type": "function"
    },
    {
      "inputs": [
        {
          "internalType": "bytes32",
          "name": "role",
          "type": "bytes32"
        }
      ],
      "name": "getRoleAdmin",
      "outputs": [
        {
          "internalType": "bytes32",
          "name": "",
          "type": "bytes32"
        }
      ],
      "stateMutability": "view",
      "type": "function",
      "constant": true
    },
    {
      "inputs": [
        {
          "internalType": "bytes32",
          "name": "role",
          "type": "bytes32"
        },
        {
          "internalType": "uint256",
          "name": "index",
          "type": "uint256"
        }
      ],
      "name": "getRoleMember",
      "outputs": [
        {
          "internalType": "address",
          "name": "",
          "type": "address"
        }
      ],
      "stateMutability": "view",
      "type": "function",
      "constant": true
    },
    {
      "inputs": [
        {
          "internalType": "bytes32",
          "name": "role",
          "type": "bytes32"
        }
      ],
      "name": "getRoleMemberCount",
      "outputs": [
        {
          "internalType": "uint256",
          "name": "",
          "type": "uint256"
        }
      ],
      "stateMutability": "view",
      "type": "function",
      "constant": true
    },
    {
      "inputs": [
        {
          "internalType": "bytes32",
          "name": "role",
          "type": "bytes32"
        },
        {
          "internalType": "address",
          "name": "account",
          "type": "address"
        }
      ],
      "name": "grantRole",
      "outputs": [],
      "stateMutability": "nonpayable",
      "type": "function"
    },
    {
      "inputs": [
        {
          "internalType": "bytes32",
          "name": "role",
          "type": "bytes32"
        },
        {
          "internalType": "address",
          "name": "account",
          "type": "address"
        }
      ],
      "name": "hasRole",
      "outputs": [
        {
          "internalType": "bool",
          "name": "",
          "type": "bool"
        }
      ],
      "stateMutability": "view",
      "type": "function",
      "constant": true
    },
    {
      "inputs": [
        {
          "internalType": "address",
          "name": "account",
          "type": "address"
        },
        {
          "internalType": "address",
          "name": "operator",
          "type": "address"
        }
      ],
      "name": "isApprovedForAll",
      "outputs": [
        {
          "internalType": "bool",
          "name": "",
          "type": "bool"
        }
      ],
      "stateMutability": "view",
      "type": "function",
      "constant": true
    },
    {
      "inputs": [],
      "name": "paused",
      "outputs": [
        {
          "internalType": "bool",
          "name": "",
          "type": "bool"
        }
      ],
      "stateMutability": "view",
      "type": "function",
      "constant": true
    },
    {
      "inputs": [
        {
          "internalType": "bytes32",
          "name": "role",
          "type": "bytes32"
        },
        {
          "internalType": "address",
          "name": "account",
          "type": "address"
        }
      ],
      "name": "renounceRole",
      "outputs": [],
      "stateMutability": "nonpayable",
      "type": "function"
    },
    {
      "inputs": [
        {
          "internalType": "bytes32",
          "name": "role",
          "type": "bytes32"
        },
        {
          "internalType": "address",
          "name": "account",
          "type": "address"
        }
      ],
      "name": "revokeRole",
      "outputs": [],
      "stateMutability": "nonpayable",
      "type": "function"
    },
    {
      "inputs": [
        {
          "internalType": "address",
          "name": "from",
          "type": "address"
        },
        {
          "internalType": "address",
          "name": "to",
          "type": "address"
        },
        {
          "internalType": "uint256[]",
          "name": "ids",
          "type": "uint256[]"
        },
        {
          "internalType": "uint256[]",
          "name": "amounts",
          "type": "uint256[]"
        },
        {
          "internalType": "bytes",
          "name": "data",
          "type": "bytes"
        }
      ],
      "name": "safeBatchTransferFrom",
      "outputs": [],
      "stateMutability": "nonpayable",
      "type": "function"
    },
    {
      "inputs": [
        {
          "internalType": "address",
          "name": "from",
          "type": "address"
        },
        {
          "internalType": "address",
          "name": "to",
          "type": "address"
        },
        {
          "internalType": "uint256",
          "name": "id",
          "type": "uint256"
        },
        {
          "internalType": "uint256",
          "name": "amount",
          "type": "uint256"
        },
        {
          "internalType": "bytes",
          "name": "data",
          "type": "bytes"
        }
      ],
      "name": "safeTransferFrom",
      "outputs": [],
      "stateMutability": "nonpayable",
      "type": "function"
    },
    {
      "inputs": [
        {
          "internalType": "address",
          "name": "operator",
          "type": "address"
        },
        {
          "internalType": "bool",
          "name": "approved",
          "type": "bool"
        }
      ],
      "name": "setApprovalForAll",
      "outputs": [],
      "stateMutability": "nonpayable",
      "type": "function"
    },
    {
      "inputs": [
        {
          "internalType": "uint256",
          "name": "tokenID",
          "type": "uint256"
        }
      ],
      "name": "uri",
      "outputs": [
        {
          "internalType": "string",
          "name": "",
          "type": "string"
        }
      ],
      "stateMutability": "view",
      "type": "function",
      "constant": true
    },
    {
      "inputs": [
        {
          "internalType": "address",
          "name": "to",
          "type": "address"
        },
        {
          "internalType": "uint256",
          "name": "id",
          "type": "uint256"
        },
        {
          "internalType": "uint256",
          "name": "amount",
          "type": "uint256"
        },
        {
          "internalType": "string",
          "name": "uri",
          "type": "string"
        },
        {
          "internalType": "bytes",
          "name": "data",
          "type": "bytes"
        }
      ],
      "name": "mint",
      "outputs": [],
      "stateMutability": "nonpayable",
      "type": "function"
    },
    {
      "inputs": [
        {
          "internalType": "address",
          "name": "to",
          "type": "address"
        },
        {
          "internalType": "uint256[]",
          "name": "ids",
          "type": "uint256[]"
        },
        {
          "internalType": "uint256[]",
          "name": "amounts",
          "type": "uint256[]"
        },
        {
          "internalType": "string[]",
          "name": "uris",
          "type": "string[]"
        },
        {
          "internalType": "bytes",
          "name": "data",
          "type": "bytes"
        }
      ],
      "name": "mintBatch",
      "outputs": [],
      "stateMutability": "nonpayable",
      "type": "function"
    },
    {
      "inputs": [],
      "name": "pause",
      "outputs": [],
      "stateMutability": "nonpayable",
      "type": "function"
    },
    {
      "inputs": [],
      "name": "unpause",
      "outputs": [],
      "stateMutability": "nonpayable",
      "type": "function"
    },
    {
      "inputs": [
        {
          "internalType": "bytes4",
          "name": "interfaceId",
          "type": "bytes4"
        }
      ],
      "name": "supportsInterface",
      "outputs": [
        {
          "internalType": "bool",
          "name": "",
          "type": "bool"
        }
      ],
      "stateMutability": "view",
      "type": "function",
      "constant": true
    }
  ],
  "bytecode": "0x60806040523480156200001157600080fd5b506000600560006101000a81548160ff021916908315150217905550620000516000801b62000045620000d960201b60201c565b620000e160201b60201c565b620000927f9f2df0fed2c77648de5860a4cc508cd0818c85b8b8a1ab4ceeef8d981c8956a662000086620000d960201b60201c565b620000e160201b60201c565b620000d37f65d7a28e3265b37a6474929f336521b332c1681b933f6cb9f3376673440d862a620000c7620000d960201b60201c565b620000e160201b60201c565b6200036f565b600033905090565b620000f882826200012960201b6200116e1760201c565b6200012481600160008581526020019081526020016000206200013f60201b6200117c1790919060201c565b505050565b6200013b82826200017760201b60201c565b5050565b60006200016f836000018373ffffffffffffffffffffffffffffffffffffffff1660001b6200026860201b60201c565b905092915050565b620001898282620002e260201b60201c565b6200026457600160008084815260200190815260200160002060000160008373ffffffffffffffffffffffffffffffffffffffff1673ffffffffffffffffffffffffffffffffffffffff16815260200190815260200160002060006101000a81548160ff02191690831515021790555062000209620000d960201b60201c565b73ffffffffffffffffffffffffffffffffffffffff168173ffffffffffffffffffffffffffffffffffffffff16837f2f8788117e7eff1d82e926ec794901d17c78024a50270940304540a733656f0d60405160405180910390a45b5050565b60006200027c83836200034c60201b60201c565b620002d7578260000182908060018154018082558091505060019003906000526020600020016000909190919091505582600001805490508360010160008481526020019081526020016000208190555060019050620002dc565b600090505b92915050565b600080600084815260200190815260200160002060000160008373ffffffffffffffffffffffffffffffffffffffff1673ffffffffffffffffffffffffffffffffffffffff16815260200190815260200160002060009054906101000a900460ff16905092915050565b600080836001016000848152602001908152602001600020541415905092915050565b615067806200037f6000396000f3fe608060405234801561001057600080fd5b50600436106101725760003560e01c80639010d07c116100de578063ca15c87311610097578063e63ab1e911610071578063e63ab1e914610445578063e985e9c514610463578063f242432a14610493578063f5298aca146104af57610172565b8063ca15c873146103db578063d53913931461040b578063d547741f1461042957610172565b80639010d07c1461030957806391d1485414610339578063a217fddf14610369578063a22cb46514610387578063a4b645eb146103a3578063b9571e84146103bf57610172565b806336568abe1161013057806336568abe1461026f5780633f4ba83a1461028b5780634e1273f4146102955780635c975abb146102c55780636b20c454146102e35780638456cb59146102ff57610172565b8062fdd58e1461017757806301ffc9a7146101a75780630e89341c146101d7578063248a9ca3146102075780632eb2c2d6146102375780632f2ff15d14610253575b600080fd5b610191600480360381019061018c919061394d565b6104cb565b60405161019e9190614a3f565b60405180910390f35b6101c160048036038101906101bc9190613b8c565b610595565b6040516101ce9190614747565b60405180910390f35b6101f160048036038101906101ec9190613bde565b6105a7565b6040516101fe919061477d565b60405180910390f35b610221600480360381019061021c9190613aeb565b61064c565b60405161022e9190614762565b60405180910390f35b610251600480360381019061024c919061366d565b61066b565b005b61026d60048036038101906102689190613b14565b61070c565b005b61028960048036038101906102849190613b14565b610740565b005b610293610774565b005b6102af60048036038101906102aa9190613a7f565b6107ee565b6040516102bc91906146ee565b60405180910390f35b6102cd61099f565b6040516102da9190614747565b60405180910390f35b6102fd60048036038101906102f891906137bb565b6109b6565b005b610307610a53565b005b610323600480360381019061031e9190613b50565b610acd565b6040516103309190614611565b60405180910390f35b610353600480360381019061034e9190613b14565b610afc565b6040516103609190614747565b60405180910390f35b610371610b66565b60405161037e9190614762565b60405180910390f35b6103a1600480360381019061039c9190613911565b610b6d565b005b6103bd60048036038101906103b891906139d8565b610cee565b005b6103d960048036038101906103d4919061383a565b610d85565b005b6103f560048036038101906103f09190613aeb565b610efc565b6040516104029190614a3f565b60405180910390f35b610413610f20565b6040516104209190614762565b60405180910390f35b610443600480360381019061043e9190613b14565b610f44565b005b61044d610f78565b60405161045a9190614762565b60405180910390f35b61047d60048036038101906104789190613631565b610f9c565b60405161048a9190614747565b60405180910390f35b6104ad60048036038101906104a8919061372c565b611030565b005b6104c960048036038101906104c49190613989565b6110d1565b005b60008073ffffffffffffffffffffffffffffffffffffffff168373ffffffffffffffffffffffffffffffffffffffff16141561053c576040517f08c379a00000000000000000000000000000000000000000000000000000000081526004016105339061481f565b60405180910390fd5b6002600083815260200190815260200160002060008473ffffffffffffffffffffffffffffffffffffffff1673ffffffffffffffffffffffffffffffffffffffff16815260200190815260200160002054905092915050565b60006105a0826111ac565b9050919050565b60606004600083815260200190815260200160002080546105c790614de2565b80601f01602080910402602001604051908101604052809291908181526020018280546105f390614de2565b80156106405780601f1061061557610100808354040283529160200191610640565b820191906000526020600020905b81548152906001019060200180831161062357829003601f168201915b50505050509050919050565b6000806000838152602001908152602001600020600101549050919050565b61067361128e565b73ffffffffffffffffffffffffffffffffffffffff168573ffffffffffffffffffffffffffffffffffffffff1614806106b957506106b8856106b361128e565b610f9c565b5b6106f8576040517f08c379a00000000000000000000000000000000000000000000000000000000081526004016106ef906148df565b60405180910390fd5b6107058585858585611296565b5050505050565b6107168282611602565b61073b816001600085815260200190815260200160002061117c90919063ffffffff16565b505050565b61074a828261162b565b61076f81600160008581526020019081526020016000206116ae90919063ffffffff16565b505050565b6107a57f65d7a28e3265b37a6474929f336521b332c1681b933f6cb9f3376673440d862a6107a061128e565b610afc565b6107e4576040517f08c379a00000000000000000000000000000000000000000000000000000000081526004016107db9061495f565b60405180910390fd5b6107ec6116de565b565b60608151835114610834576040517f08c379a000000000000000000000000000000000000000000000000000000000815260040161082b906149bf565b60405180910390fd5b6000835167ffffffffffffffff811115610877577f4e487b7100000000000000000000000000000000000000000000000000000000600052604160045260246000fd5b6040519080825280602002602001820160405280156108a55781602001602082028036833780820191505090505b50905060005b84518110156109945761093e8582815181106108f0577f4e487b7100000000000000000000000000000000000000000000000000000000600052603260045260246000fd5b6020026020010151858381518110610931577f4e487b7100000000000000000000000000000000000000000000000000000000600052603260045260246000fd5b60200260200101516104cb565b828281518110610977577f4e487b7100000000000000000000000000000000000000000000000000000000600052603260045260246000fd5b6020026020010181815250508061098d90614e14565b90506108ab565b508091505092915050565b6000600560009054906101000a900460ff16905090565b6109be61128e565b73ffffffffffffffffffffffffffffffffffffffff168373ffffffffffffffffffffffffffffffffffffffff161480610a045750610a03836109fe61128e565b610f9c565b5b610a43576040517f08c379a0000000000000000000000000000000000000000000000000000000008152600401610a3a9061487f565b60405180910390fd5b610a4e838383611780565b505050565b610a847f65d7a28e3265b37a6474929f336521b332c1681b933f6cb9f3376673440d862a610a7f61128e565b610afc565b610ac3576040517f08c379a0000000000000000000000000000000000000000000000000000000008152600401610aba9061497f565b60405180910390fd5b610acb611a88565b565b6000610af48260016000868152602001908152602001600020611b2b90919063ffffffff16565b905092915050565b600080600084815260200190815260200160002060000160008373ffffffffffffffffffffffffffffffffffffffff1673ffffffffffffffffffffffffffffffffffffffff16815260200190815260200160002060009054906101000a900460ff16905092915050565b6000801b81565b8173ffffffffffffffffffffffffffffffffffffffff16610b8c61128e565b73ffffffffffffffffffffffffffffffffffffffff161415610be3576040517f08c379a0000000000000000000000000000000000000000000000000000000008152600401610bda9061499f565b60405180910390fd5b8060036000610bf061128e565b73ffffffffffffffffffffffffffffffffffffffff1673ffffffffffffffffffffffffffffffffffffffff16815260200190815260200160002060008473ffffffffffffffffffffffffffffffffffffffff1673ffffffffffffffffffffffffffffffffffffffff16815260200190815260200160002060006101000a81548160ff0219169083151502179055508173ffffffffffffffffffffffffffffffffffffffff16610c9d61128e565b73ffffffffffffffffffffffffffffffffffffffff167f17307eab39ab6107e8899845ad3d59bd9653f200f220920489ca2b5937696c3183604051610ce29190614747565b60405180910390a35050565b610d1f7f9f2df0fed2c77648de5860a4cc508cd0818c85b8b8a1ab4ceeef8d981c8956a6610d1a61128e565b610afc565b610d5e576040517f08c379a0000000000000000000000000000000000000000000000000000000008152600401610d559061491f565b60405180910390fd5b6000825114610d7257610d718285611b45565b5b610d7e85858584611b71565b5050505050565b610db67f9f2df0fed2c77648de5860a4cc508cd0818c85b8b8a1ab4ceeef8d981c8956a6610db161128e565b610afc565b610df5576040517f08c379a0000000000000000000000000000000000000000000000000000000008152600401610dec9061491f565b60405180910390fd5b60005b8251811015610ee8576000838281518110610e3c577f4e487b7100000000000000000000000000000000000000000000000000000000600052603260045260246000fd5b60200260200101515114610ed557610ed4838281518110610e86577f4e487b7100000000000000000000000000000000000000000000000000000000600052603260045260246000fd5b6020026020010151868381518110610ec7577f4e487b7100000000000000000000000000000000000000000000000000000000600052603260045260246000fd5b6020026020010151611b45565b5b8080610ee090614e14565b915050610df8565b50610ef585858584611d08565b5050505050565b6000610f1960016000848152602001908152602001600020611f73565b9050919050565b7f9f2df0fed2c77648de5860a4cc508cd0818c85b8b8a1ab4ceeef8d981c8956a681565b610f4e8282611f88565b610f7381600160008581526020019081526020016000206116ae90919063ffffffff16565b505050565b7f65d7a28e3265b37a6474929f336521b332c1681b933f6cb9f3376673440d862a81565b6000600360008473ffffffffffffffffffffffffffffffffffffffff1673ffffffffffffffffffffffffffffffffffffffff16815260200190815260200160002060008373ffffffffffffffffffffffffffffffffffffffff1673ffffffffffffffffffffffffffffffffffffffff16815260200190815260200160002060009054906101000a900460ff16905092915050565b61103861128e565b73ffffffffffffffffffffffffffffffffffffffff168573ffffffffffffffffffffffffffffffffffffffff16148061107e575061107d8561107861128e565b610f9c565b5b6110bd576040517f08c379a00000000000000000000000000000000000000000000000000000000081526004016110b49061487f565b60405180910390fd5b6110ca8585858585611fb1565b5050505050565b6110d961128e565b73ffffffffffffffffffffffffffffffffffffffff168373ffffffffffffffffffffffffffffffffffffffff16148061111f575061111e8361111961128e565b610f9c565b5b61115e576040517f08c379a00000000000000000000000000000000000000000000000000000000081526004016111559061487f565b60405180910390fd5b61116983838361223f565b505050565b6111788282612467565b5050565b60006111a4836000018373ffffffffffffffffffffffffffffffffffffffff1660001b612547565b905092915050565b60007fd9b67a26000000000000000000000000000000000000000000000000000000007bffffffffffffffffffffffffffffffffffffffffffffffffffffffff1916827bffffffffffffffffffffffffffffffffffffffffffffffffffffffff1916148061127757507f0e89341c000000000000000000000000000000000000000000000000000000007bffffffffffffffffffffffffffffffffffffffffffffffffffffffff1916827bffffffffffffffffffffffffffffffffffffffffffffffffffffffff1916145b806112875750611286826125b7565b5b9050919050565b600033905090565b81518351146112da576040517f08c379a00000000000000000000000000000000000000000000000000000000081526004016112d1906149df565b60405180910390fd5b600073ffffffffffffffffffffffffffffffffffffffff168473ffffffffffffffffffffffffffffffffffffffff16141561134a576040517f08c379a0000000000000000000000000000000000000000000000000000000008152600401611341906148bf565b60405180910390fd5b600061135461128e565b9050611364818787878787612631565b60005b845181101561156d5760008582815181106113ab577f4e487b7100000000000000000000000000000000000000000000000000000000600052603260045260246000fd5b6020026020010151905060008583815181106113f0577f4e487b7100000000000000000000000000000000000000000000000000000000600052603260045260246000fd5b6020026020010151905060006002600084815260200190815260200160002060008b73ffffffffffffffffffffffffffffffffffffffff1673ffffffffffffffffffffffffffffffffffffffff16815260200190815260200160002054905081811015611492576040517f08c379a00000000000000000000000000000000000000000000000000000000081526004016114899061493f565b60405180910390fd5b818161149e9190614cc4565b6002600085815260200190815260200160002060008c73ffffffffffffffffffffffffffffffffffffffff1673ffffffffffffffffffffffffffffffffffffffff16815260200190815260200160002081905550816002600085815260200190815260200160002060008b73ffffffffffffffffffffffffffffffffffffffff1673ffffffffffffffffffffffffffffffffffffffff16815260200190815260200160002060008282546115529190614c14565b925050819055505050508061156690614e14565b9050611367565b508473ffffffffffffffffffffffffffffffffffffffff168673ffffffffffffffffffffffffffffffffffffffff168273ffffffffffffffffffffffffffffffffffffffff167f4a39dc06d4c0dbc64b70af90fd698a233a518aa5d07e595d983b8c0526c8f7fb87876040516115e4929190614710565b60405180910390a46115fa818787878787612647565b505050505050565b61160b8261064c565b61161c8161161761128e565b612817565b6116268383612467565b505050565b61163361128e565b73ffffffffffffffffffffffffffffffffffffffff168173ffffffffffffffffffffffffffffffffffffffff16146116a0576040517f08c379a000000000000000000000000000000000000000000000000000000000815260040161169790614a1f565b60405180910390fd5b6116aa82826128b4565b5050565b60006116d6836000018373ffffffffffffffffffffffffffffffffffffffff1660001b612995565b905092915050565b6116e661099f565b611725576040517f08c379a000000000000000000000000000000000000000000000000000000000815260040161171c906147ff565b60405180910390fd5b6000600560006101000a81548160ff0219169083151502179055507f5db9ee0a495bf2e6ff9c91a7834c1ba4fdd244a5e8aa4e537bd38aeae4b073aa61176961128e565b6040516117769190614611565b60405180910390a1565b600073ffffffffffffffffffffffffffffffffffffffff168373ffffffffffffffffffffffffffffffffffffffff1614156117f0576040517f08c379a00000000000000000000000000000000000000000000000000000000081526004016117e7906148ff565b60405180910390fd5b8051825114611834576040517f08c379a000000000000000000000000000000000000000000000000000000000815260040161182b906149df565b60405180910390fd5b600061183e61128e565b905061185e81856000868660405180602001604052806000815250612631565b60005b8351811015611a025760008482815181106118a5577f4e487b7100000000000000000000000000000000000000000000000000000000600052603260045260246000fd5b6020026020010151905060008483815181106118ea577f4e487b7100000000000000000000000000000000000000000000000000000000600052603260045260246000fd5b6020026020010151905060006002600084815260200190815260200160002060008973ffffffffffffffffffffffffffffffffffffffff1673ffffffffffffffffffffffffffffffffffffffff1681526020019081526020016000205490508181101561198c576040517f08c379a00000000000000000000000000000000000000000000000000000000081526004016119839061483f565b60405180910390fd5b81816119989190614cc4565b6002600085815260200190815260200160002060008a73ffffffffffffffffffffffffffffffffffffffff1673ffffffffffffffffffffffffffffffffffffffff1681526020019081526020016000208190555050505080806119fa90614e14565b915050611861565b50600073ffffffffffffffffffffffffffffffffffffffff168473ffffffffffffffffffffffffffffffffffffffff168273ffffffffffffffffffffffffffffffffffffffff167f4a39dc06d4c0dbc64b70af90fd698a233a518aa5d07e595d983b8c0526c8f7fb8686604051611a7a929190614710565b60405180910390a450505050565b611a9061099f565b15611ad0576040517f08c379a0000000000000000000000000000000000000000000000000000000008152600401611ac79061489f565b60405180910390fd5b6001600560006101000a81548160ff0219169083151502179055507f62e78cea01bee320cd4e420270b5ea74000d11b0c9f74754ebdbfc544b05a258611b1461128e565b604051611b219190614611565b60405180910390a1565b6000611b3a8360000183612b1b565b60001c905092915050565b81600460008381526020019081526020016000209080519060200190611b6c92919061328d565b505050565b600073ffffffffffffffffffffffffffffffffffffffff168473ffffffffffffffffffffffffffffffffffffffff161415611be1576040517f08c379a0000000000000000000000000000000000000000000000000000000008152600401611bd8906149ff565b60405180910390fd5b6000611beb61128e565b9050611c0c81600087611bfd88612b6c565b611c0688612b6c565b87612631565b826002600086815260200190815260200160002060008773ffffffffffffffffffffffffffffffffffffffff1673ffffffffffffffffffffffffffffffffffffffff1681526020019081526020016000206000828254611c6c9190614c14565b925050819055508473ffffffffffffffffffffffffffffffffffffffff16600073ffffffffffffffffffffffffffffffffffffffff168273ffffffffffffffffffffffffffffffffffffffff167fc3d58168c5ae7397731d063d5bbf3d657854427343f4c083240f7aacaa2d0f628787604051611cea929190614a5a565b60405180910390a4611d0181600087878787612c32565b5050505050565b600073ffffffffffffffffffffffffffffffffffffffff168473ffffffffffffffffffffffffffffffffffffffff161415611d78576040517f08c379a0000000000000000000000000000000000000000000000000000000008152600401611d6f906149ff565b60405180910390fd5b8151835114611dbc576040517f08c379a0000000000000000000000000000000000000000000000000000000008152600401611db3906149df565b60405180910390fd5b6000611dc661128e565b9050611dd781600087878787612631565b60005b8451811015611edd57838181518110611e1c577f4e487b7100000000000000000000000000000000000000000000000000000000600052603260045260246000fd5b602002602001015160026000878481518110611e61577f4e487b7100000000000000000000000000000000000000000000000000000000600052603260045260246000fd5b6020026020010151815260200190815260200160002060008873ffffffffffffffffffffffffffffffffffffffff1673ffffffffffffffffffffffffffffffffffffffff1681526020019081526020016000206000828254611ec39190614c14565b925050819055508080611ed590614e14565b915050611dda565b508473ffffffffffffffffffffffffffffffffffffffff16600073ffffffffffffffffffffffffffffffffffffffff168273ffffffffffffffffffffffffffffffffffffffff167f4a39dc06d4c0dbc64b70af90fd698a233a518aa5d07e595d983b8c0526c8f7fb8787604051611f55929190614710565b60405180910390a4611f6c81600087878787612647565b5050505050565b6000611f8182600001612e02565b9050919050565b611f918261064c565b611fa281611f9d61128e565b612817565b611fac83836128b4565b505050565b600073ffffffffffffffffffffffffffffffffffffffff168473ffffffffffffffffffffffffffffffffffffffff161415612021576040517f08c379a0000000000000000000000000000000000000000000000000000000008152600401612018906148bf565b60405180910390fd5b600061202b61128e565b905061204b81878761203c88612b6c565b61204588612b6c565b87612631565b60006002600086815260200190815260200160002060008873ffffffffffffffffffffffffffffffffffffffff1673ffffffffffffffffffffffffffffffffffffffff168152602001908152602001600020549050838110156120e3576040517f08c379a00000000000000000000000000000000000000000000000000000000081526004016120da9061493f565b60405180910390fd5b83816120ef9190614cc4565b6002600087815260200190815260200160002060008973ffffffffffffffffffffffffffffffffffffffff1673ffffffffffffffffffffffffffffffffffffffff16815260200190815260200160002081905550836002600087815260200190815260200160002060008873ffffffffffffffffffffffffffffffffffffffff1673ffffffffffffffffffffffffffffffffffffffff16815260200190815260200160002060008282546121a39190614c14565b925050819055508573ffffffffffffffffffffffffffffffffffffffff168773ffffffffffffffffffffffffffffffffffffffff168373ffffffffffffffffffffffffffffffffffffffff167fc3d58168c5ae7397731d063d5bbf3d657854427343f4c083240f7aacaa2d0f628888604051612220929190614a5a565b60405180910390a4612236828888888888612c32565b50505050505050565b600073ffffffffffffffffffffffffffffffffffffffff168373ffffffffffffffffffffffffffffffffffffffff1614156122af576040517f08c379a00000000000000000000000000000000000000000000000000000000081526004016122a6906148ff565b60405180910390fd5b60006122b961128e565b90506122e9818560006122cb87612b6c565b6122d487612b6c565b60405180602001604052806000815250612631565b60006002600085815260200190815260200160002060008673ffffffffffffffffffffffffffffffffffffffff1673ffffffffffffffffffffffffffffffffffffffff16815260200190815260200160002054905082811015612381576040517f08c379a00000000000000000000000000000000000000000000000000000000081526004016123789061483f565b60405180910390fd5b828161238d9190614cc4565b6002600086815260200190815260200160002060008773ffffffffffffffffffffffffffffffffffffffff1673ffffffffffffffffffffffffffffffffffffffff16815260200190815260200160002081905550600073ffffffffffffffffffffffffffffffffffffffff168573ffffffffffffffffffffffffffffffffffffffff168373ffffffffffffffffffffffffffffffffffffffff167fc3d58168c5ae7397731d063d5bbf3d657854427343f4c083240f7aacaa2d0f628787604051612458929190614a5a565b60405180910390a45050505050565b6124718282610afc565b61254357600160008084815260200190815260200160002060000160008373ffffffffffffffffffffffffffffffffffffffff1673ffffffffffffffffffffffffffffffffffffffff16815260200190815260200160002060006101000a81548160ff0219169083151502179055506124e861128e565b73ffffffffffffffffffffffffffffffffffffffff168173ffffffffffffffffffffffffffffffffffffffff16837f2f8788117e7eff1d82e926ec794901d17c78024a50270940304540a733656f0d60405160405180910390a45b5050565b60006125538383612e13565b6125ac5782600001829080600181540180825580915050600190039060005260206000200160009091909190915055826000018054905083600101600084815260200190815260200160002081905550600190506125b1565b600090505b92915050565b60007f5a05180f000000000000000000000000000000000000000000000000000000007bffffffffffffffffffffffffffffffffffffffffffffffffffffffff1916827bffffffffffffffffffffffffffffffffffffffffffffffffffffffff1916148061262a575061262982612e36565b5b9050919050565b61263f868686868686612eb0565b505050505050565b6126668473ffffffffffffffffffffffffffffffffffffffff16612f0e565b1561280f578373ffffffffffffffffffffffffffffffffffffffff1663bc197c8187878686866040518663ffffffff1660e01b81526004016126ac95949392919061462c565b602060405180830381600087803b1580156126c657600080fd5b505af19250505080156126f757506040513d601f19601f820116820180604052508101906126f49190613bb5565b60015b61278657612703614f08565b8061270e575061274b565b806040517f08c379a0000000000000000000000000000000000000000000000000000000008152600401612742919061477d565b60405180910390fd5b6040517f08c379a000000000000000000000000000000000000000000000000000000000815260040161277d9061479f565b60405180910390fd5b63bc197c8160e01b7bffffffffffffffffffffffffffffffffffffffffffffffffffffffff1916817bffffffffffffffffffffffffffffffffffffffffffffffffffffffff19161461280d576040517f08c379a0000000000000000000000000000000000000000000000000000000008152600401612804906147df565b60405180910390fd5b505b505050505050565b6128218282610afc565b6128b0576128468173ffffffffffffffffffffffffffffffffffffffff166014612f21565b6128548360001c6020612f21565b6040516020016128659291906145d7565b6040516020818303038152906040526040517f08c379a00000000000000000000000000000000000000000000000000000000081526004016128a7919061477d565b60405180910390fd5b5050565b6128be8282610afc565b1561299157600080600084815260200190815260200160002060000160008373ffffffffffffffffffffffffffffffffffffffff1673ffffffffffffffffffffffffffffffffffffffff16815260200190815260200160002060006101000a81548160ff02191690831515021790555061293661128e565b73ffffffffffffffffffffffffffffffffffffffff168173ffffffffffffffffffffffffffffffffffffffff16837ff6391f5c32d9c69d2a47ea670b442974b53935d1edc7fd64eb21e047a839171b60405160405180910390a45b5050565b60008083600101600084815260200190815260200160002054905060008114612b0f5760006001826129c79190614cc4565b90506000600186600001805490506129df9190614cc4565b9050818114612a9a576000866000018281548110612a26577f4e487b7100000000000000000000000000000000000000000000000000000000600052603260045260246000fd5b9060005260206000200154905080876000018481548110612a70577f4e487b7100000000000000000000000000000000000000000000000000000000600052603260045260246000fd5b90600052602060002001819055508387600101600083815260200190815260200160002081905550505b85600001805480612ad4577f4e487b7100000000000000000000000000000000000000000000000000000000600052603160045260246000fd5b600190038181906000526020600020016000905590558560010160008681526020019081526020016000206000905560019350505050612b15565b60009150505b92915050565b6000826000018281548110612b59577f4e487b7100000000000000000000000000000000000000000000000000000000600052603260045260246000fd5b9060005260206000200154905092915050565b60606000600167ffffffffffffffff811115612bb1577f4e487b7100000000000000000000000000000000000000000000000000000000600052604160045260246000fd5b604051908082528060200260200182016040528015612bdf5781602001602082028036833780820191505090505b5090508281600081518110612c1d577f4e487b7100000000000000000000000000000000000000000000000000000000600052603260045260246000fd5b60200260200101818152505080915050919050565b612c518473ffffffffffffffffffffffffffffffffffffffff16612f0e565b15612dfa578373ffffffffffffffffffffffffffffffffffffffff1663f23a6e6187878686866040518663ffffffff1660e01b8152600401612c97959493929190614694565b602060405180830381600087803b158015612cb157600080fd5b505af1925050508015612ce257506040513d601f19601f82011682018060405250810190612cdf9190613bb5565b60015b612d7157612cee614f08565b80612cf95750612d36565b806040517f08c379a0000000000000000000000000000000000000000000000000000000008152600401612d2d919061477d565b60405180910390fd5b6040517f08c379a0000000000000000000000000000000000000000000000000000000008152600401612d689061479f565b60405180910390fd5b63f23a6e6160e01b7bffffffffffffffffffffffffffffffffffffffffffffffffffffffff1916817bffffffffffffffffffffffffffffffffffffffffffffffffffffffff191614612df8576040517f08c379a0000000000000000000000000000000000000000000000000000000008152600401612def906147df565b60405180910390fd5b505b505050505050565b600081600001805490509050919050565b600080836001016000848152602001908152602001600020541415905092915050565b60007f7965db0b000000000000000000000000000000000000000000000000000000007bffffffffffffffffffffffffffffffffffffffffffffffffffffffff1916827bffffffffffffffffffffffffffffffffffffffffffffffffffffffff19161480612ea95750612ea88261321b565b5b9050919050565b612ebe868686868686613285565b612ec661099f565b15612f06576040517f08c379a0000000000000000000000000000000000000000000000000000000008152600401612efd9061485f565b60405180910390fd5b505050505050565b600080823b905060008111915050919050565b606060006002836002612f349190614c6a565b612f3e9190614c14565b67ffffffffffffffff811115612f7d577f4e487b7100000000000000000000000000000000000000000000000000000000600052604160045260246000fd5b6040519080825280601f01601f191660200182016040528015612faf5781602001600182028036833780820191505090505b5090507f30000000000000000000000000000000000000000000000000000000000000008160008151811061300d577f4e487b7100000000000000000000000000000000000000000000000000000000600052603260045260246000fd5b60200101907effffffffffffffffffffffffffffffffffffffffffffffffffffffffffffff1916908160001a9053507f780000000000000000000000000000000000000000000000000000000000000081600181518110613097577f4e487b7100000000000000000000000000000000000000000000000000000000600052603260045260246000fd5b60200101907effffffffffffffffffffffffffffffffffffffffffffffffffffffffffffff1916908160001a905350600060018460026130d79190614c6a565b6130e19190614c14565b90505b60018111156131cd577f3031323334353637383961626364656600000000000000000000000000000000600f861660108110613149577f4e487b7100000000000000000000000000000000000000000000000000000000600052603260045260246000fd5b1a60f81b828281518110613186577f4e487b7100000000000000000000000000000000000000000000000000000000600052603260045260246000fd5b60200101907effffffffffffffffffffffffffffffffffffffffffffffffffffffffffffff1916908160001a905350600485901c9450806131c690614db8565b90506130e4565b5060008414613211576040517f08c379a0000000000000000000000000000000000000000000000000000000008152600401613208906147bf565b60405180910390fd5b8091505092915050565b60007f01ffc9a7000000000000000000000000000000000000000000000000000000007bffffffffffffffffffffffffffffffffffffffffffffffffffffffff1916827bffffffffffffffffffffffffffffffffffffffffffffffffffffffff1916149050919050565b505050505050565b82805461329990614de2565b90600052602060002090601f0160209004810192826132bb5760008555613302565b82601f106132d457805160ff1916838001178555613302565b82800160010185558215613302579182015b828111156133015782518255916020019190600101906132e6565b5b50905061330f9190613313565b5090565b5b8082111561332c576000816000905550600101613314565b5090565b600061334361333e84614ab4565b614a83565b9050808382526020820190508285602086028201111561336257600080fd5b60005b85811015613392578161337888826134e1565b845260208401935060208301925050600181019050613365565b5050509392505050565b60006133af6133aa84614ae0565b614a83565b9050808382526020820190508260005b858110156133ef57813585016133d588826135f2565b8452602084019350602083019250506001810190506133bf565b5050509392505050565b600061340c61340784614b0c565b614a83565b9050808382526020820190508285602086028201111561342b57600080fd5b60005b8581101561345b5781613441888261361c565b84526020840193506020830192505060018101905061342e565b5050509392505050565b600061347861347384614b38565b614a83565b90508281526020810184848401111561349057600080fd5b61349b848285614d76565b509392505050565b60006134b66134b184614b68565b614a83565b9050828152602081018484840111156134ce57600080fd5b6134d9848285614d76565b509392505050565b6000813590506134f081614fbe565b92915050565b600082601f83011261350757600080fd5b8135613517848260208601613330565b91505092915050565b600082601f83011261353157600080fd5b813561354184826020860161339c565b91505092915050565b600082601f83011261355b57600080fd5b813561356b8482602086016133f9565b91505092915050565b60008135905061358381614fd5565b92915050565b60008135905061359881614fec565b92915050565b6000813590506135ad81615003565b92915050565b6000815190506135c281615003565b92915050565b600082601f8301126135d957600080fd5b81356135e9848260208601613465565b91505092915050565b600082601f83011261360357600080fd5b81356136138482602086016134a3565b91505092915050565b60008135905061362b8161501a565b92915050565b6000806040838503121561364457600080fd5b6000613652858286016134e1565b9250506020613663858286016134e1565b9150509250929050565b600080600080600060a0868803121561368557600080fd5b6000613693888289016134e1565b95505060206136a4888289016134e1565b945050604086013567ffffffffffffffff8111156136c157600080fd5b6136cd8882890161354a565b935050606086013567ffffffffffffffff8111156136ea57600080fd5b6136f68882890161354a565b925050608086013567ffffffffffffffff81111561371357600080fd5b61371f888289016135c8565b9150509295509295909350565b600080600080600060a0868803121561374457600080fd5b6000613752888289016134e1565b9550506020613763888289016134e1565b94505060406137748882890161361c565b93505060606137858882890161361c565b925050608086013567ffffffffffffffff8111156137a257600080fd5b6137ae888289016135c8565b9150509295509295909350565b6000806000606084860312156137d057600080fd5b60006137de868287016134e1565b935050602084013567ffffffffffffffff8111156137fb57600080fd5b6138078682870161354a565b925050604084013567ffffffffffffffff81111561382457600080fd5b6138308682870161354a565b9150509250925092565b600080600080600060a0868803121561385257600080fd5b6000613860888289016134e1565b955050602086013567ffffffffffffffff81111561387d57600080fd5b6138898882890161354a565b945050604086013567ffffffffffffffff8111156138a657600080fd5b6138b28882890161354a565b935050606086013567ffffffffffffffff8111156138cf57600080fd5b6138db88828901613520565b925050608086013567ffffffffffffffff8111156138f857600080fd5b613904888289016135c8565b9150509295509295909350565b6000806040838503121561392457600080fd5b6000613932858286016134e1565b925050602061394385828601613574565b9150509250929050565b6000806040838503121561396057600080fd5b600061396e858286016134e1565b925050602061397f8582860161361c565b9150509250929050565b60008060006060848603121561399e57600080fd5b60006139ac868287016134e1565b93505060206139bd8682870161361c565b92505060406139ce8682870161361c565b9150509250925092565b600080600080600060a086880312156139f057600080fd5b60006139fe888289016134e1565b9550506020613a0f8882890161361c565b9450506040613a208882890161361c565b935050606086013567ffffffffffffffff811115613a3d57600080fd5b613a49888289016135f2565b925050608086013567ffffffffffffffff811115613a6657600080fd5b613a72888289016135c8565b9150509295509295909350565b60008060408385031215613a9257600080fd5b600083013567ffffffffffffffff811115613aac57600080fd5b613ab8858286016134f6565b925050602083013567ffffffffffffffff811115613ad557600080fd5b613ae18582860161354a565b9150509250929050565b600060208284031215613afd57600080fd5b6000613b0b84828501613589565b91505092915050565b60008060408385031215613b2757600080fd5b6000613b3585828601613589565b9250506020613b46858286016134e1565b9150509250929050565b60008060408385031215613b6357600080fd5b6000613b7185828601613589565b9250506020613b828582860161361c565b9150509250929050565b600060208284031215613b9e57600080fd5b6000613bac8482850161359e565b91505092915050565b600060208284031215613bc757600080fd5b6000613bd5848285016135b3565b91505092915050565b600060208284031215613bf057600080fd5b6000613bfe8482850161361c565b91505092915050565b6000613c1383836145b9565b60208301905092915050565b613c2881614cf8565b82525050565b6000613c3982614ba8565b613c438185614bd6565b9350613c4e83614b98565b8060005b83811015613c7f578151613c668882613c07565b9750613c7183614bc9565b925050600181019050613c52565b5085935050505092915050565b613c9581614d0a565b82525050565b613ca481614d16565b82525050565b6000613cb582614bb3565b613cbf8185614be7565b9350613ccf818560208601614d85565b613cd881614eea565b840191505092915050565b6000613cee82614bbe565b613cf88185614bf8565b9350613d08818560208601614d85565b613d1181614eea565b840191505092915050565b6000613d2782614bbe565b613d318185614c09565b9350613d41818560208601614d85565b80840191505092915050565b6000613d5a603483614bf8565b91507f455243313135353a207472616e7366657220746f206e6f6e204552433131353560008301527f526563656976657220696d706c656d656e7465720000000000000000000000006020830152604082019050919050565b6000613dc0602083614bf8565b91507f537472696e67733a20686578206c656e67746820696e73756666696369656e746000830152602082019050919050565b6000613e00602883614bf8565b91507f455243313135353a204552433131353552656365697665722072656a6563746560008301527f6420746f6b656e730000000000000000000000000000000000000000000000006020830152604082019050919050565b6000613e66601483614bf8565b91507f5061757361626c653a206e6f74207061757365640000000000000000000000006000830152602082019050919050565b6000613ea6602b83614bf8565b91507f455243313135353a2062616c616e636520717565727920666f7220746865207a60008301527f65726f20616464726573730000000000000000000000000000000000000000006020830152604082019050919050565b6000613f0c602483614bf8565b91507f455243313135353a206275726e20616d6f756e7420657863656564732062616c60008301527f616e6365000000000000000000000000000000000000000000000000000000006020830152604082019050919050565b6000613f72602c83614bf8565b91507f455243313135355061757361626c653a20746f6b656e207472616e736665722060008301527f7768696c652070617573656400000000000000000000000000000000000000006020830152604082019050919050565b6000613fd8602983614bf8565b91507f455243313135353a2063616c6c6572206973206e6f74206f776e6572206e6f7260008301527f20617070726f76656400000000000000000000000000000000000000000000006020830152604082019050919050565b600061403e601083614bf8565b91507f5061757361626c653a20706175736564000000000000000000000000000000006000830152602082019050919050565b600061407e602583614bf8565b91507f455243313135353a207472616e7366657220746f20746865207a65726f20616460008301527f64726573730000000000000000000000000000000000000000000000000000006020830152604082019050919050565b60006140e4603283614bf8565b91507f455243313135353a207472616e736665722063616c6c6572206973206e6f742060008301527f6f776e6572206e6f7220617070726f76656400000000000000000000000000006020830152604082019050919050565b600061414a602383614bf8565b91507f455243313135353a206275726e2066726f6d20746865207a65726f206164647260008301527f65737300000000000000000000000000000000000000000000000000000000006020830152604082019050919050565b60006141b0603883614bf8565b91507f455243313135355072657365744d696e7465725061757365723a206d7573742060008301527f68617665206d696e74657220726f6c6520746f206d696e7400000000000000006020830152604082019050919050565b6000614216602a83614bf8565b91507f455243313135353a20696e73756666696369656e742062616c616e636520666f60008301527f72207472616e73666572000000000000000000000000000000000000000000006020830152604082019050919050565b600061427c603b83614bf8565b91507f455243313135355072657365744d696e7465725061757365723a206d7573742060008301527f686176652070617573657220726f6c6520746f20756e706175736500000000006020830152604082019050919050565b60006142e2603983614bf8565b91507f455243313135355072657365744d696e7465725061757365723a206d7573742060008301527f686176652070617573657220726f6c6520746f207061757365000000000000006020830152604082019050919050565b6000614348601783614c09565b91507f416363657373436f6e74726f6c3a206163636f756e74200000000000000000006000830152601782019050919050565b6000614388602983614bf8565b91507f455243313135353a2073657474696e6720617070726f76616c2073746174757360008301527f20666f722073656c6600000000000000000000000000000000000000000000006020830152604082019050919050565b60006143ee602983614bf8565b91507f455243313135353a206163636f756e747320616e6420696473206c656e67746860008301527f206d69736d6174636800000000000000000000000000000000000000000000006020830152604082019050919050565b6000614454602883614bf8565b91507f455243313135353a2069647320616e6420616d6f756e7473206c656e6774682060008301527f6d69736d617463680000000000000000000000000000000000000000000000006020830152604082019050919050565b60006144ba602183614bf8565b91507f455243313135353a206d696e7420746f20746865207a65726f2061646472657360008301527f73000000000000000000000000000000000000000000000000000000000000006020830152604082019050919050565b6000614520601183614c09565b91507f206973206d697373696e6720726f6c65200000000000000000000000000000006000830152601182019050919050565b6000614560602f83614bf8565b91507f416363657373436f6e74726f6c3a2063616e206f6e6c792072656e6f756e636560008301527f20726f6c657320666f722073656c6600000000000000000000000000000000006020830152604082019050919050565b6145c281614d6c565b82525050565b6145d181614d6c565b82525050565b60006145e28261433b565b91506145ee8285613d1c565b91506145f982614513565b91506146058284613d1c565b91508190509392505050565b60006020820190506146266000830184613c1f565b92915050565b600060a0820190506146416000830188613c1f565b61464e6020830187613c1f565b81810360408301526146608186613c2e565b905081810360608301526146748185613c2e565b905081810360808301526146888184613caa565b90509695505050505050565b600060a0820190506146a96000830188613c1f565b6146b66020830187613c1f565b6146c360408301866145c8565b6146d060608301856145c8565b81810360808301526146e28184613caa565b90509695505050505050565b600060208201905081810360008301526147088184613c2e565b905092915050565b6000604082019050818103600083015261472a8185613c2e565b9050818103602083015261473e8184613c2e565b90509392505050565b600060208201905061475c6000830184613c8c565b92915050565b60006020820190506147776000830184613c9b565b92915050565b600060208201905081810360008301526147978184613ce3565b905092915050565b600060208201905081810360008301526147b881613d4d565b9050919050565b600060208201905081810360008301526147d881613db3565b9050919050565b600060208201905081810360008301526147f881613df3565b9050919050565b6000602082019050818103600083015261481881613e59565b9050919050565b6000602082019050818103600083015261483881613e99565b9050919050565b6000602082019050818103600083015261485881613eff565b9050919050565b6000602082019050818103600083015261487881613f65565b9050919050565b6000602082019050818103600083015261489881613fcb565b9050919050565b600060208201905081810360008301526148b881614031565b9050919050565b600060208201905081810360008301526148d881614071565b9050919050565b600060208201905081810360008301526148f8816140d7565b9050919050565b600060208201905081810360008301526149188161413d565b9050919050565b60006020820190508181036000830152614938816141a3565b9050919050565b6000602082019050818103600083015261495881614209565b9050919050565b600060208201905081810360008301526149788161426f565b9050919050565b60006020820190508181036000830152614998816142d5565b9050919050565b600060208201905081810360008301526149b88161437b565b9050919050565b600060208201905081810360008301526149d8816143e1565b9050919050565b600060208201905081810360008301526149f881614447565b9050919050565b60006020820190508181036000830152614a18816144ad565b9050919050565b60006020820190508181036000830152614a3881614553565b9050919050565b6000602082019050614a5460008301846145c8565b92915050565b6000604082019050614a6f60008301856145c8565b614a7c60208301846145c8565b9392505050565b6000604051905081810181811067ffffffffffffffff82111715614aaa57614aa9614ebb565b5b8060405250919050565b600067ffffffffffffffff821115614acf57614ace614ebb565b5b602082029050602081019050919050565b600067ffffffffffffffff821115614afb57614afa614ebb565b5b602082029050602081019050919050565b600067ffffffffffffffff821115614b2757614b26614ebb565b5b602082029050602081019050919050565b600067ffffffffffffffff821115614b5357614b52614ebb565b5b601f19601f8301169050602081019050919050565b600067ffffffffffffffff821115614b8357614b82614ebb565b5b601f19601f8301169050602081019050919050565b6000819050602082019050919050565b600081519050919050565b600081519050919050565b600081519050919050565b6000602082019050919050565b600082825260208201905092915050565b600082825260208201905092915050565b600082825260208201905092915050565b600081905092915050565b6000614c1f82614d6c565b9150614c2a83614d6c565b9250827fffffffffffffffffffffffffffffffffffffffffffffffffffffffffffffffff03821115614c5f57614c5e614e5d565b5b828201905092915050565b6000614c7582614d6c565b9150614c8083614d6c565b9250817fffffffffffffffffffffffffffffffffffffffffffffffffffffffffffffffff0483118215151615614cb957614cb8614e5d565b5b828202905092915050565b6000614ccf82614d6c565b9150614cda83614d6c565b925082821015614ced57614cec614e5d565b5b828203905092915050565b6000614d0382614d4c565b9050919050565b60008115159050919050565b6000819050919050565b60007fffffffff0000000000000000000000000000000000000000000000000000000082169050919050565b600073ffffffffffffffffffffffffffffffffffffffff82169050919050565b6000819050919050565b82818337600083830152505050565b60005b83811015614da3578082015181840152602081019050614d88565b83811115614db2576000848401525b50505050565b6000614dc382614d6c565b91506000821415614dd757614dd6614e5d565b5b600182039050919050565b60006002820490506001821680614dfa57607f821691505b60208210811415614e0e57614e0d614e8c565b5b50919050565b6000614e1f82614d6c565b91507fffffffffffffffffffffffffffffffffffffffffffffffffffffffffffffffff821415614e5257614e51614e5d565b5b600182019050919050565b7f4e487b7100000000000000000000000000000000000000000000000000000000600052601160045260246000fd5b7f4e487b7100000000000000000000000000000000000000000000000000000000600052602260045260246000fd5b7f4e487b7100000000000000000000000000000000000000000000000000000000600052604160045260246000fd5b6000601f19601f8301169050919050565b60008160e01c9050919050565b600060443d1015614f1857614fbb565b60046000803e614f29600051614efb565b6308c379a08114614f3a5750614fbb565b60405160043d036004823e80513d602482011167ffffffffffffffff82111715614f6657505050614fbb565b808201805167ffffffffffffffff811115614f85575050505050614fbb565b8060208301013d8501811115614fa057505050505050614fbb565b614fa982614eea565b60208401016040528296505050505050505b90565b614fc781614cf8565b8114614fd257600080fd5b50565b614fde81614d0a565b8114614fe957600080fd5b50565b614ff581614d16565b811461500057600080fd5b50565b61500c81614d20565b811461501757600080fd5b50565b61502381614d6c565b811461502e57600080fd5b5056fea264697066735822122009b5463522543c4d1e9258a1ee2d004b79b2cddc6cef56b6ccd0c8da84207c6764736f6c63430008000033",
  "immutableReferences": {},
  "source": "/**\n * @dev PHOENIX: Modified the token URI design for minting compatibility with IPFS\n */\n\n// SPDX-License-Identifier: MIT\n\npragma solidity ^0.8.0;\n\nimport \"./ERC1155.sol\";\nimport \"./ERC1155Burnable.sol\";\nimport \"./ERC1155Pausable.sol\";\nimport \"./AccessControlEnumerable.sol\";\nimport \"./Context.sol\";\n\n/**\n * @dev {ERC1155} token, including:\n *\n *  - ability for holders to burn (destroy) their tokens\n *  - a minter role that allows for token minting (creation)\n *  - a pauser role that allows to stop all token transfers\n *\n * This contract uses {AccessControl} to lock permissioned functions using the\n * different roles - head to its documentation for details.\n *\n * The account that deploys the contract will be granted the minter and pauser\n * roles, as well as the default admin role, which will let it grant both minter\n * and pauser roles to other accounts.\n */\ncontract ERC1155PresetMinterPauser is Context, AccessControlEnumerable, ERC1155Burnable, ERC1155Pausable {\n    bytes32 public constant MINTER_ROLE = keccak256(\"MINTER_ROLE\");\n    bytes32 public constant PAUSER_ROLE = keccak256(\"PAUSER_ROLE\");\n\n    /**\n     * @dev Grants `DEFAULT_ADMIN_ROLE`, `MINTER_ROLE`, and `PAUSER_ROLE` to the account that\n     * deploys the contract.\n     */\n    constructor() {\n        _setupRole(DEFAULT_ADMIN_ROLE, _msgSender());\n\n        _setupRole(MINTER_ROLE, _msgSender());\n        _setupRole(PAUSER_ROLE, _msgSender());\n    }\n\n    /**\n     * @dev Creates `amount` new tokens for `to`, of token type `id`.\n     *\n     * See {ERC1155-_mint}.\n     *\n     * Requirements:\n     *\n     * - the caller must have the `MINTER_ROLE`.\n     */\n    function mint(address to, uint256 id, uint256 amount, string memory uri, bytes memory data) public virtual {\n        require(hasRole(MINTER_ROLE, _msgSender()), \"ERC1155PresetMinterPauser: must have minter role to mint\");\n\n        if(bytes(uri).length != 0){\n            _setURI(uri, id);\n        }\n\n        _mint(to, id, amount, data);\n    }\n\n    /**\n     * @dev xref:ROOT:erc1155.adoc#batch-operations[Batched] variant of {mint}.\n     */\n    function mintBatch(address to, uint256[] memory ids, uint256[] memory amounts, string[] memory uris, bytes memory data) public virtual {\n        require(hasRole(MINTER_ROLE, _msgSender()), \"ERC1155PresetMinterPauser: must have minter role to mint\");\n        \n        for(uint i = 0; i < uris.length; i++){\n            if(bytes(uris[i]).length != 0){\n                _setURI(uris[i], ids[i]);\n            }\n        }\n        _mintBatch(to, ids, amounts, data);\n    }\n\n    /**\n     * @dev Pauses all token transfers.\n     *\n     * See {ERC1155Pausable} and {Pausable-_pause}.\n     *\n     * Requirements:\n     *\n     * - the caller must have the `PAUSER_ROLE`.\n     */\n    function pause() public virtual {\n        require(hasRole(PAUSER_ROLE, _msgSender()), \"ERC1155PresetMinterPauser: must have pauser role to pause\");\n        _pause();\n    }\n\n    /**\n     * @dev Unpauses all token transfers.\n     *\n     * See {ERC1155Pausable} and {Pausable-_unpause}.\n     *\n     * Requirements:\n     *\n     * - the caller must have the `PAUSER_ROLE`.\n     */\n    function unpause() public virtual {\n        require(hasRole(PAUSER_ROLE, _msgSender()), \"ERC1155PresetMinterPauser: must have pauser role to unpause\");\n        _unpause();\n    }\n\n    /**\n     * @dev See {IERC165-supportsInterface}.\n     */\n    function supportsInterface(bytes4 interfaceId) public view virtual override(AccessControlEnumerable, ERC1155) returns (bool) {\n        return super.supportsInterface(interfaceId);\n    }\n\n    function _beforeTokenTransfer(\n        address operator,\n        address from,\n        address to,\n        uint256[] memory ids,\n        uint256[] memory amounts,\n        bytes memory data\n    )\n        internal virtual override(ERC1155, ERC1155Pausable)\n    {\n        super._beforeTokenTransfer(operator, from, to, ids, amounts, data);\n    }\n}\n",
  "sourcePath": "C:/Users/solus/Documents/Solidity/Hackathon/contentnfts V0/contracts/Dependencies/ERC1155PresetMinterPauser.sol",
  "compiler": {
    "name": "solc",
    "version": "0.8.0+commit.c7dfd78e.Emscripten.clang"
  },
  "schemaVersion": "3.4.1",
  "updatedAt": "2021-12-13T20:25:17.929Z",
  "networkType": "ethereum",
  "devdoc": {
    "details": "{ERC1155} token, including:  - ability for holders to burn (destroy) their tokens  - a minter role that allows for token minting (creation)  - a pauser role that allows to stop all token transfers This contract uses {AccessControl} to lock permissioned functions using the different roles - head to its documentation for details. The account that deploys the contract will be granted the minter and pauser roles, as well as the default admin role, which will let it grant both minter and pauser roles to other accounts.",
    "kind": "dev",
    "methods": {
      "balanceOf(address,uint256)": {
        "details": "See {IERC1155-balanceOf}. Requirements: - `account` cannot be the zero address."
      },
      "balanceOfBatch(address[],uint256[])": {
        "details": "See {IERC1155-balanceOfBatch}. Requirements: - `accounts` and `ids` must have the same length."
      },
      "constructor": {
        "details": "Grants `DEFAULT_ADMIN_ROLE`, `MINTER_ROLE`, and `PAUSER_ROLE` to the account that deploys the contract."
      },
      "getRoleAdmin(bytes32)": {
        "details": "Returns the admin role that controls `role`. See {grantRole} and {revokeRole}. To change a role's admin, use {_setRoleAdmin}."
      },
      "getRoleMember(bytes32,uint256)": {
        "details": "Returns one of the accounts that have `role`. `index` must be a value between 0 and {getRoleMemberCount}, non-inclusive. Role bearers are not sorted in any particular way, and their ordering may change at any point. WARNING: When using {getRoleMember} and {getRoleMemberCount}, make sure you perform all queries on the same block. See the following https://forum.openzeppelin.com/t/iterating-over-elements-on-enumerableset-in-openzeppelin-contracts/2296[forum post] for more information."
      },
      "getRoleMemberCount(bytes32)": {
        "details": "Returns the number of accounts that have `role`. Can be used together with {getRoleMember} to enumerate all bearers of a role."
      },
      "grantRole(bytes32,address)": {
        "details": "Overload {grantRole} to track enumerable memberships"
      },
      "hasRole(bytes32,address)": {
        "details": "Returns `true` if `account` has been granted `role`."
      },
      "isApprovedForAll(address,address)": {
        "details": "See {IERC1155-isApprovedForAll}."
      },
      "mint(address,uint256,uint256,string,bytes)": {
        "details": "Creates `amount` new tokens for `to`, of token type `id`. See {ERC1155-_mint}. Requirements: - the caller must have the `MINTER_ROLE`."
      },
      "mintBatch(address,uint256[],uint256[],string[],bytes)": {
        "details": "xref:ROOT:erc1155.adoc#batch-operations[Batched] variant of {mint}."
      },
      "pause()": {
        "details": "Pauses all token transfers. See {ERC1155Pausable} and {Pausable-_pause}. Requirements: - the caller must have the `PAUSER_ROLE`."
      },
      "paused()": {
        "details": "Returns true if the contract is paused, and false otherwise."
      },
      "renounceRole(bytes32,address)": {
        "details": "Overload {renounceRole} to track enumerable memberships"
      },
      "revokeRole(bytes32,address)": {
        "details": "Overload {revokeRole} to track enumerable memberships"
      },
      "safeBatchTransferFrom(address,address,uint256[],uint256[],bytes)": {
        "details": "See {IERC1155-safeBatchTransferFrom}."
      },
      "safeTransferFrom(address,address,uint256,uint256,bytes)": {
        "details": "See {IERC1155-safeTransferFrom}."
      },
      "setApprovalForAll(address,bool)": {
        "details": "See {IERC1155-setApprovalForAll}."
      },
      "supportsInterface(bytes4)": {
        "details": "See {IERC165-supportsInterface}."
      },
      "unpause()": {
        "details": "Unpauses all token transfers. See {ERC1155Pausable} and {Pausable-_unpause}. Requirements: - the caller must have the `PAUSER_ROLE`."
      },
      "uri(uint256)": {
        "details": "See {IERC1155MetadataURI-uri}. This implementation returns the same URI for *all* token types. It relies on the token type ID substitution mechanism https://eips.ethereum.org/EIPS/eip-1155#metadata[defined in the EIP]. Clients calling this function must replace the `\\{id\\}` substring with the actual token type ID."
      }
    },
    "version": 1
  },
  "userdoc": {
    "kind": "user",
    "methods": {},
    "version": 1
  }
}