{
  "contractName": "FactoryProxy",
  "abi": [
    {
      "inputs": [
        {
          "internalType": "address",
          "name": "_currentAddress",
          "type": "address"
        }
      ],
      "stateMutability": "nonpayable",
      "type": "constructor"
    },
    {
      "anonymous": false,
      "inputs": [
        {
          "indexed": false,
          "internalType": "bool",
          "name": "isAccepted",
          "type": "bool"
        },
        {
          "indexed": false,
          "internalType": "address",
          "name": "contractAddress",
          "type": "address"
        }
      ],
      "name": "contractAccepted",
      "type": "event"
    },
    {
      "anonymous": false,
      "inputs": [
        {
          "indexed": false,
          "internalType": "address",
          "name": "creatorAddress",
          "type": "address"
        },
        {
          "indexed": false,
          "internalType": "address",
          "name": "contractAddress",
          "type": "address"
        },
        {
          "indexed": false,
          "internalType": "uint256",
          "name": "contractID",
          "type": "uint256"
        }
      ],
      "name": "contractCreated",
      "type": "event"
    },
    {
      "anonymous": false,
      "inputs": [
        {
          "indexed": false,
          "internalType": "address",
          "name": "newAddress",
          "type": "address"
        }
      ],
      "name": "contractUpgraded",
      "type": "event"
    },
    {
      "stateMutability": "nonpayable",
      "type": "fallback"
    },
    {
      "inputs": [
        {
          "internalType": "address",
          "name": "_creatorAddress",
          "type": "address"
        }
      ],
      "name": "getAllContracts",
      "outputs": [
        {
          "internalType": "address[]",
          "name": "",
          "type": "address[]"
        }
      ],
      "stateMutability": "view",
      "type": "function"
    },
    {
      "inputs": [
        {
          "internalType": "address",
          "name": "_creatorAddress",
          "type": "address"
        }
      ],
      "name": "numberContractsCreated",
      "outputs": [
        {
          "internalType": "uint256",
          "name": "contractsCreated",
          "type": "uint256"
        }
      ],
      "stateMutability": "view",
      "type": "function"
    },
    {
      "inputs": [],
      "name": "totalCreators",
      "outputs": [
        {
          "internalType": "uint256",
          "name": "",
          "type": "uint256"
        }
      ],
      "stateMutability": "view",
      "type": "function"
    },
    {
      "inputs": [
        {
          "internalType": "address",
          "name": "_newOwner",
          "type": "address"
        },
        {
          "internalType": "address",
          "name": "_contract",
          "type": "address"
        }
      ],
      "name": "updateOwner",
      "outputs": [
        {
          "internalType": "bool",
          "name": "",
          "type": "bool"
        }
      ],
      "stateMutability": "nonpayable",
      "type": "function"
    },
    {
      "inputs": [
        {
          "internalType": "address",
          "name": "_newAddress",
          "type": "address"
        }
      ],
      "name": "upgrade",
      "outputs": [],
      "stateMutability": "nonpayable",
      "type": "function"
    },
    {
      "inputs": [
        {
          "internalType": "bool",
          "name": "isAccepted",
          "type": "bool"
        }
      ],
      "name": "acceptUpgrade",
      "outputs": [],
      "stateMutability": "nonpayable",
      "type": "function"
    },
    {
      "inputs": [
        {
          "internalType": "address",
          "name": "_DAOAddress",
          "type": "address"
        }
      ],
      "name": "initializeDAO",
      "outputs": [],
      "stateMutability": "nonpayable",
      "type": "function"
    }
  ],
  "bytecode": "0x608060405234801561001057600080fd5b506040516110f63803806110f683398181016040528101906100329190610110565b33600760006101000a81548173ffffffffffffffffffffffffffffffffffffffff021916908373ffffffffffffffffffffffffffffffffffffffff16021790555033600860006101000a81548173ffffffffffffffffffffffffffffffffffffffff021916908373ffffffffffffffffffffffffffffffffffffffff16021790555080600960006101000a81548173ffffffffffffffffffffffffffffffffffffffff021916908373ffffffffffffffffffffffffffffffffffffffff16021790555050610182565b60008151905061010a8161016b565b92915050565b60006020828403121561012257600080fd5b6000610130848285016100fb565b91505092915050565b60006101448261014b565b9050919050565b600073ffffffffffffffffffffffffffffffffffffffff82169050919050565b61017481610139565b811461017f57600080fd5b50565b610f65806101916000396000f3fe608060405234801561001057600080fd5b50600436106100815760003560e01c8063277c376b1161005b578063277c376b146101d157806383c3565214610201578063a6348c8014610231578063f0642aaa1461026157610082565b806303b9d2281461017b5780630900f0101461019757806311c0036c146101b357610082565b5b600c60009054906101000a900460ff16156100d2576040517f08c379a00000000000000000000000000000000000000000000000000000000081526004016100c990610dd4565b60405180910390fd5b6000600960009054906101000a900473ffffffffffffffffffffffffffffffffffffffff169050600073ffffffffffffffffffffffffffffffffffffffff16600960009054906101000a900473ffffffffffffffffffffffffffffffffffffffff1673ffffffffffffffffffffffffffffffffffffffff16141561015557600080fd5b3660008037600080366000845af43d6000803e8060008114610176573d6000f35b3d6000fd5b61019560048036038101906101909190610a1b565b61027d565b005b6101b160048036038101906101ac9190610a1b565b61038b565b005b6101bb6105e9565b6040516101c89190610e54565b60405180910390f35b6101eb60048036038101906101e69190610a1b565b6105ef565b6040516101f89190610e54565b60405180910390f35b61021b60048036038101906102169190610a1b565b61063a565b6040516102289190610d4e565b60405180910390f35b61024b60048036038101906102469190610a44565b610706565b6040516102589190610d70565b60405180910390f35b61027b60048036038101906102769190610a80565b610800565b005b600860009054906101000a900473ffffffffffffffffffffffffffffffffffffffff1673ffffffffffffffffffffffffffffffffffffffff163373ffffffffffffffffffffffffffffffffffffffff161461030d576040517f08c379a000000000000000000000000000000000000000000000000000000000815260040161030490610db4565b60405180910390fd5b600073ffffffffffffffffffffffffffffffffffffffff168173ffffffffffffffffffffffffffffffffffffffff16141561034757600080fd5b80600760006101000a81548173ffffffffffffffffffffffffffffffffffffffff021916908373ffffffffffffffffffffffffffffffffffffffff16021790555050565b600860009054906101000a900473ffffffffffffffffffffffffffffffffffffffff1673ffffffffffffffffffffffffffffffffffffffff163373ffffffffffffffffffffffffffffffffffffffff161461041b576040517f08c379a000000000000000000000000000000000000000000000000000000000815260040161041290610db4565b60405180910390fd5b600c60009054906101000a900460ff161561046b576040517f08c379a000000000000000000000000000000000000000000000000000000000815260040161046290610df4565b60405180910390fd5b600960009054906101000a900473ffffffffffffffffffffffffffffffffffffffff16600a60006101000a81548173ffffffffffffffffffffffffffffffffffffffff021916908373ffffffffffffffffffffffffffffffffffffffff16021790555080600960006101000a81548173ffffffffffffffffffffffffffffffffffffffff021916908373ffffffffffffffffffffffffffffffffffffffff160217905550600b600a60009054906101000a900473ffffffffffffffffffffffffffffffffffffffff169080600181540180825580915050600190039060005260206000200160009091909190916101000a81548173ffffffffffffffffffffffffffffffffffffffff021916908373ffffffffffffffffffffffffffffffffffffffff1602179055507f5d69240a8ff9b6a07dd17608da00ea3f703c6705480edf1746b16f025f11a185816040516105c39190610d33565b60405180910390a16001600c60006101000a81548160ff02191690831515021790555050565b60045481565b60008060008373ffffffffffffffffffffffffffffffffffffffff1673ffffffffffffffffffffffffffffffffffffffff168152602001908152602001600020805490509050919050565b60606000808373ffffffffffffffffffffffffffffffffffffffff1673ffffffffffffffffffffffffffffffffffffffff1681526020019081526020016000208054806020026020016040519081016040528092919081815260200182805480156106fa57602002820191906000526020600020905b8160009054906101000a900473ffffffffffffffffffffffffffffffffffffffff1673ffffffffffffffffffffffffffffffffffffffff16815260200190600101908083116106b0575b50505050509050919050565b6000818073ffffffffffffffffffffffffffffffffffffffff163373ffffffffffffffffffffffffffffffffffffffff1614610777576040517f08c379a000000000000000000000000000000000000000000000000000000000815260040161076e90610e14565b60405180910390fd5b83600160008573ffffffffffffffffffffffffffffffffffffffff1673ffffffffffffffffffffffffffffffffffffffff16815260200190815260200160002060006101000a81548173ffffffffffffffffffffffffffffffffffffffff021916908373ffffffffffffffffffffffffffffffffffffffff160217905550600191505092915050565b600760009054906101000a900473ffffffffffffffffffffffffffffffffffffffff1673ffffffffffffffffffffffffffffffffffffffff163373ffffffffffffffffffffffffffffffffffffffff1614610890576040517f08c379a000000000000000000000000000000000000000000000000000000000815260040161088790610e34565b60405180910390fd5b801561090e576000600c60006101000a81548160ff0219169083151502179055507fb716e7dfd0055ec73a8895c2e07334ca2e04c6e22c0eaf79d0b899fb962486056001600960009054906101000a900473ffffffffffffffffffffffffffffffffffffffff16604051610905929190610d8b565b60405180910390a15b806109ee57600a60009054906101000a900473ffffffffffffffffffffffffffffffffffffffff16600960006101000a81548173ffffffffffffffffffffffffffffffffffffffff021916908373ffffffffffffffffffffffffffffffffffffffff1602179055506000600c60006101000a81548160ff0219169083151502179055507fb716e7dfd0055ec73a8895c2e07334ca2e04c6e22c0eaf79d0b899fb962486056000600960009054906101000a900473ffffffffffffffffffffffffffffffffffffffff166040516109e5929190610d8b565b60405180910390a15b50565b600081359050610a0081610f01565b92915050565b600081359050610a1581610f18565b92915050565b600060208284031215610a2d57600080fd5b6000610a3b848285016109f1565b91505092915050565b60008060408385031215610a5757600080fd5b6000610a65858286016109f1565b9250506020610a76858286016109f1565b9150509250929050565b600060208284031215610a9257600080fd5b6000610aa084828501610a06565b91505092915050565b6000610ab58383610ac1565b60208301905092915050565b610aca81610eb9565b82525050565b610ad981610eb9565b82525050565b6000610aea82610e7f565b610af48185610e97565b9350610aff83610e6f565b8060005b83811015610b30578151610b178882610aa9565b9750610b2283610e8a565b925050600181019050610b03565b5085935050505092915050565b610b4681610ecb565b82525050565b6000610b59602683610ea8565b91507f4f6e6c7920646576656c6f706572732063616e2063616c6c207468697320667560008301527f6e6374696f6e00000000000000000000000000000000000000000000000000006020830152604082019050919050565b6000610bbf603183610ea8565b91507f436f6e7472616374466163746f7279206c6f636b656420756e74696c2044414f60008301527f20617070726f76657320757067726164650000000000000000000000000000006020830152604082019050919050565b6000610c25600f83610ea8565b91507f436f6e74726163742070617573656400000000000000000000000000000000006000830152602082019050919050565b6000610c65602583610ea8565b91507f4f6e6c79206368696c6420636f6e74726163742063616e2063616c6c2066756e60008301527f6374696f6e0000000000000000000000000000000000000000000000000000006020830152604082019050919050565b6000610ccb602883610ea8565b91507f4f6e6c792044414f20636f6e74726163742063616e2063616c6c20746869732060008301527f66756e6374696f6e0000000000000000000000000000000000000000000000006020830152604082019050919050565b610d2d81610ef7565b82525050565b6000602082019050610d486000830184610ad0565b92915050565b60006020820190508181036000830152610d688184610adf565b905092915050565b6000602082019050610d856000830184610b3d565b92915050565b6000604082019050610da06000830185610b3d565b610dad6020830184610ad0565b9392505050565b60006020820190508181036000830152610dcd81610b4c565b9050919050565b60006020820190508181036000830152610ded81610bb2565b9050919050565b60006020820190508181036000830152610e0d81610c18565b9050919050565b60006020820190508181036000830152610e2d81610c58565b9050919050565b60006020820190508181036000830152610e4d81610cbe565b9050919050565b6000602082019050610e696000830184610d24565b92915050565b6000819050602082019050919050565b600081519050919050565b6000602082019050919050565b600082825260208201905092915050565b600082825260208201905092915050565b6000610ec482610ed7565b9050919050565b60008115159050919050565b600073ffffffffffffffffffffffffffffffffffffffff82169050919050565b6000819050919050565b610f0a81610eb9565b8114610f1557600080fd5b50565b610f2181610ecb565b8114610f2c57600080fd5b5056fea264697066735822122029a202dac8cba9742bef5626b913a606fc0d8c0a73a44eeb9816536c627011b364736f6c63430008000033",
  "immutableReferences": {},
  "source": "/**\r\n * This is the proxy contract for the ContractFactory contract. The proxy\r\n * contract forwards all function/value calls to the contract specified at\r\n * currentAddress, which enables upgradable functionality for the contract.\r\n * We will want upgradability for the contract factory so we can upgrade\r\n * our offerings to creators.\r\n */\r\n\r\n//SPDX-License-Identifier: UNLICENSED\r\npragma solidity ^0.8.0;\r\n\r\nimport \"./FactoryStorage.sol\";\r\n\r\ncontract FactoryProxy is FactoryStorage {\r\n\r\n  // Current address where stable version of ContractFactory is located;\r\n  address private currentAddress;\r\n  // Previous address of last stable version of ContractFactory;\r\n  address private previousStableAddress;\r\n  // Array of all previous ContractFactory versions;\r\n  address[] private allPreviousAddresses;\r\n\r\n  // Allows factory to pause after upgrade so DAO can check off on change;\r\n  bool private paused;\r\n\r\n  constructor(address _currentAddress) {\r\n    currentAddress = _currentAddress;\r\n  }\r\n\r\n  // Upgrades ContractFactory to newest version;\r\n  // - upgrade() is restricted to dev wallet;\r\n  // - Upon successful upgrade, the ContractFactory will pause and await\r\n  //   DAO approval to unpause. Until then, nothing else can be done.\r\n  function upgrade(address _newAddress) external {\r\n    require(msg.sender == devWallet, \"Only developers can call this function\");\r\n    require(!paused, \"Contract paused\");\r\n\r\n    previousStableAddress = currentAddress;\r\n    currentAddress = _newAddress;\r\n    allPreviousAddresses.push(previousStableAddress);\r\n\r\n    emit contractUpgraded(_newAddress);\r\n    paused = true;\r\n  }\r\n\r\n  // Unpauses contract after a successful upgrade, requires DAO authorization to pass;\r\n  // - isAccepted = true: ContractFactory unpauses and begins operation\r\n  // - isAccepted = false: ContractFactory reverts to previous stable address and unpauses\r\n  function acceptUpgrade(bool isAccepted) external onlyDAO {\r\n    if(isAccepted){\r\n      paused = false;\r\n      emit contractAccepted(true, currentAddress);\r\n    }\r\n    if(!isAccepted){\r\n      currentAddress = previousStableAddress;\r\n      paused = false;\r\n      emit contractAccepted(false, currentAddress);\r\n    }\r\n  }\r\n\r\n  // Redirects all function calls/value to the contract at currentAddress;\r\n  // Auto-locks after an upgrade until DAO accepts the upgrade;\r\n  fallback() external {\r\n    require(!paused, \"ContractFactory locked until DAO approves upgrade\");\r\n      address implementation = currentAddress;\r\n      require(currentAddress != address(0));\r\n\r\n      assembly {\r\n        calldatacopy(0, 0, calldatasize())\r\n        let result := delegatecall(gas(), implementation, 0, calldatasize(), 0, 0)\r\n        returndatacopy(0, 0, returndatasize())\r\n        switch result\r\n        case 0 {revert(0, returndatasize())}\r\n        default {return(0, returndatasize())}\r\n      }\r\n    \r\n  }\r\n\r\n  function initializeDAO(address _DAOAddress) external {\r\n    require(msg.sender == devWallet, \"Only developers can call this function\");\r\n    require(_DAOAddress != address(0));\r\n    DAOContract = _DAOAddress;\r\n  }\r\n\r\n}",
  "sourcePath": "C:/Users/solus/Documents/Solidity/Hackathon/contentnfts V0/contracts/TokenFactory/FactoryProxy.sol",
  "compiler": {
    "name": "solc",
    "version": "0.8.0+commit.c7dfd78e.Emscripten.clang"
  },
  "schemaVersion": "3.4.1",
  "updatedAt": "2021-12-13T17:18:47.073Z",
  "devdoc": {
    "kind": "dev",
    "methods": {},
    "version": 1
  },
  "userdoc": {
    "kind": "user",
    "methods": {},
    "version": 1
  }
}