{
  "contractName": "FactoryStorage",
  "abi": [
    {
      "inputs": [],
      "stateMutability": "nonpayable",
      "type": "constructor"
    },
    {
      "anonymous": false,
      "inputs": [
        {
          "indexed": false,
          "internalType": "bool",
          "name": "isAccepted",
          "type": "bool"
        },
        {
          "indexed": false,
          "internalType": "address",
          "name": "contractAddress",
          "type": "address"
        }
      ],
      "name": "contractAccepted",
      "type": "event"
    },
    {
      "anonymous": false,
      "inputs": [
        {
          "indexed": false,
          "internalType": "address",
          "name": "creatorAddress",
          "type": "address"
        },
        {
          "indexed": false,
          "internalType": "address",
          "name": "contractAddress",
          "type": "address"
        },
        {
          "indexed": false,
          "internalType": "uint256",
          "name": "contractID",
          "type": "uint256"
        }
      ],
      "name": "contractCreated",
      "type": "event"
    },
    {
      "anonymous": false,
      "inputs": [
        {
          "indexed": false,
          "internalType": "address",
          "name": "newAddress",
          "type": "address"
        }
      ],
      "name": "contractUpgraded",
      "type": "event"
    },
    {
      "inputs": [],
      "name": "totalCreators",
      "outputs": [
        {
          "internalType": "uint256",
          "name": "",
          "type": "uint256"
        }
      ],
      "stateMutability": "view",
      "type": "function"
    },
    {
      "inputs": [
        {
          "internalType": "address",
          "name": "_creatorAddress",
          "type": "address"
        }
      ],
      "name": "getAllContracts",
      "outputs": [
        {
          "internalType": "address[]",
          "name": "",
          "type": "address[]"
        }
      ],
      "stateMutability": "view",
      "type": "function"
    },
    {
      "inputs": [
        {
          "internalType": "address",
          "name": "_creatorAddress",
          "type": "address"
        }
      ],
      "name": "numberContractsCreated",
      "outputs": [
        {
          "internalType": "uint256",
          "name": "contractsCreated",
          "type": "uint256"
        }
      ],
      "stateMutability": "view",
      "type": "function"
    },
    {
      "inputs": [
        {
          "internalType": "address",
          "name": "_newOwner",
          "type": "address"
        },
        {
          "internalType": "address",
          "name": "_contract",
          "type": "address"
        }
      ],
      "name": "updateOwner",
      "outputs": [
        {
          "internalType": "bool",
          "name": "",
          "type": "bool"
        }
      ],
      "stateMutability": "nonpayable",
      "type": "function"
    }
  ],
  "bytecode": "0x608060405234801561001057600080fd5b5033600760006101000a81548173ffffffffffffffffffffffffffffffffffffffff021916908373ffffffffffffffffffffffffffffffffffffffff16021790555033600860006101000a81548173ffffffffffffffffffffffffffffffffffffffff021916908373ffffffffffffffffffffffffffffffffffffffff1602179055506105f0806100a26000396000f3fe608060405234801561001057600080fd5b506004361061004c5760003560e01c806311c0036c14610051578063277c376b1461006f57806383c356521461009f578063a6348c80146100cf575b600080fd5b6100596100ff565b60405161006691906104f6565b60405180910390f35b6100896004803603810190610084919061032b565b610105565b60405161009691906104f6565b60405180910390f35b6100b960048036038101906100b4919061032b565b610150565b6040516100c69190610499565b60405180910390f35b6100e960048036038101906100e49190610354565b61021c565b6040516100f691906104bb565b60405180910390f35b60045481565b60008060008373ffffffffffffffffffffffffffffffffffffffff1673ffffffffffffffffffffffffffffffffffffffff168152602001908152602001600020805490509050919050565b60606000808373ffffffffffffffffffffffffffffffffffffffff1673ffffffffffffffffffffffffffffffffffffffff16815260200190815260200160002080548060200260200160405190810160405280929190818152602001828054801561021057602002820191906000526020600020905b8160009054906101000a900473ffffffffffffffffffffffffffffffffffffffff1673ffffffffffffffffffffffffffffffffffffffff16815260200190600101908083116101c6575b50505050509050919050565b6000818073ffffffffffffffffffffffffffffffffffffffff163373ffffffffffffffffffffffffffffffffffffffff161461028d576040517f08c379a0000000000000000000000000000000000000000000000000000000008152600401610284906104d6565b60405180910390fd5b83600160008573ffffffffffffffffffffffffffffffffffffffff1673ffffffffffffffffffffffffffffffffffffffff16815260200190815260200160002060006101000a81548173ffffffffffffffffffffffffffffffffffffffff021916908373ffffffffffffffffffffffffffffffffffffffff160217905550600191505092915050565b600081359050610325816105a3565b92915050565b60006020828403121561033d57600080fd5b600061034b84828501610316565b91505092915050565b6000806040838503121561036757600080fd5b600061037585828601610316565b925050602061038685828601610316565b9150509250929050565b600061039c83836103a8565b60208301905092915050565b6103b18161055b565b82525050565b60006103c282610521565b6103cc8185610539565b93506103d783610511565b8060005b838110156104085781516103ef8882610390565b97506103fa8361052c565b9250506001810190506103db565b5085935050505092915050565b61041e8161056d565b82525050565b600061043160258361054a565b91507f4f6e6c79206368696c6420636f6e74726163742063616e2063616c6c2066756e60008301527f6374696f6e0000000000000000000000000000000000000000000000000000006020830152604082019050919050565b61049381610599565b82525050565b600060208201905081810360008301526104b381846103b7565b905092915050565b60006020820190506104d06000830184610415565b92915050565b600060208201905081810360008301526104ef81610424565b9050919050565b600060208201905061050b600083018461048a565b92915050565b6000819050602082019050919050565b600081519050919050565b6000602082019050919050565b600082825260208201905092915050565b600082825260208201905092915050565b600061056682610579565b9050919050565b60008115159050919050565b600073ffffffffffffffffffffffffffffffffffffffff82169050919050565b6000819050919050565b6105ac8161055b565b81146105b757600080fd5b5056fea2646970667358221220403f3a517d6ff7108aa8d7e3627c4b3af14a140c55d4b90b4e533ce636c0c82264736f6c63430008000033",
  "immutableReferences": {},
  "source": "/**\r\n * @dev This contract stores all variables and functions that can never\r\n * be upgraded when the ContractFactory is upgraded. Information about the contracts\r\n * owned by addresses is stored here, along with a modifier/function combo which \r\n * updates the owner of a contract when ownership has been transferred.\r\n *\r\n * We can use this data to track token collections and the addresses that own them.\r\n * This may come in handy later if we run into legal issues around piracy of \r\n * exclusive content. We will be able to determine which addresses to punish/restrict\r\n * when content disputes arise.\r\n */\r\n\r\n// SPDX-License-Identifier: MIT\r\npragma solidity ^0.8.0;\r\n\r\ncontract FactoryStorage {\r\n\r\n    // Fires when a new contract is created; \r\n    event contractCreated(address creatorAddress, address contractAddress, uint contractID);\r\n\r\n    // Fires when an upgrade has successfully passed;\r\n    event contractUpgraded(address newAddress);\r\n\r\n    // Fires when DAO accepts new contract;\r\n    event contractAccepted(bool isAccepted, address contractAddress);\r\n\r\n    // Stores information about the contract creation event;\r\n    struct contractCreation{\r\n        uint256 contractID; // ID of contract\r\n        address contractAddress; // Address of new contract\r\n        address creatorAddress; // Address of contract creator\r\n        uint32 contractType; // Number corresponding to contract type\r\n        uint256 creationTime; // Block time of contract creation\r\n    }\r\n\r\n    // Mapping of all contracts created by an address;\r\n    // creatorAddress => contractAddresses\r\n    mapping(address => address[]) contractsCreatedBy;\r\n\r\n    // Mapping of a contract's owner's address;\r\n    // contractAddress => creatorAddress\r\n    mapping(address => address) contractOwnedBy;\r\n\r\n    // Mapping to show if address has created contracts;\r\n    // Used for incrementing totalCreators;\r\n    mapping(address => bool) isContractCreator;\r\n\r\n    // Mapping of contractID to contractCreation struct;\r\n    mapping(uint => contractCreation) contractID;\r\n\r\n    // Number of total unique creator addresses;\r\n    uint256 public totalCreators;\r\n\r\n    // Counter for contract IDs;\r\n    uint256 contractIDCounter;\r\n\r\n    // Array of all addresses created by this factory;\r\n    address[] contractClones;\r\n\r\n    // Contract address of the DAO contract;\r\n    // Initially belongs to dev wallet;\r\n    address DAOContract;\r\n\r\n    // Address of the developers' multi-sig wallet;\r\n    // Initially belongs to contract dev;\r\n    address devWallet;\r\n\r\n    constructor() {\r\n        DAOContract = msg.sender;\r\n        devWallet = msg.sender;\r\n    }\r\n\r\n    function getAllContracts(address _creatorAddress) public view returns(address[] memory){\r\n        return contractsCreatedBy[_creatorAddress];\r\n    }\r\n\r\n    function numberContractsCreated(address _creatorAddress) public view returns(uint256 contractsCreated) {\r\n        return contractsCreatedBy[_creatorAddress].length;\r\n    }\r\n\r\n    // Stores information about contract creation event\r\n     function _storeInfo(address newContract, uint32 contractType) internal {\r\n         // Push new contract to list of all contracts created by this factory\r\n         contractClones.push(newContract);\r\n         // Push new contract to list of all contracts created by creator\r\n         contractsCreatedBy[msg.sender].push(newContract);\r\n         // Assign ownership of new contract to creator\r\n         contractOwnedBy[newContract] = msg.sender;\r\n\r\n        // Flag address as being a contract creator, if not already\r\n        if(!isContractCreator[msg.sender]){\r\n            isContractCreator[msg.sender] = true;\r\n            totalCreators++; // Add to total count of all creators\r\n        }\r\n\r\n        // Create and store contractCreation struct in contractID mapping\r\n        contractCreation memory newContractCreation = \r\n            contractCreation(\r\n                contractIDCounter,\r\n                newContract,\r\n                msg.sender,\r\n                contractType,\r\n                block.timestamp);\r\n        \r\n        contractID[contractIDCounter] = newContractCreation;\r\n\r\n        // Increment the ID counter uint\r\n        contractIDCounter++;\r\n        emit contractCreated(msg.sender, newContract, newContractCreation.creationTime);\r\n     }\r\n\r\n\r\n    // Modifier restricting access only to a smart contract;\r\n    /* \r\n     * Use in function to update owner of contract, but only\r\n     * contract can call the function. Include an external\r\n     * function call to this contract to update the owner.\r\n     */\r\n    modifier onlyContract(address _contract) {\r\n        require(msg.sender == _contract, \"Only child contract can call function\");\r\n        _;\r\n    }\r\n\r\n    // Restricts access to the DAO contract;\r\n    modifier onlyDAO() {\r\n        require(msg.sender == DAOContract, \"Only DAO contract can call this function\");\r\n        _;\r\n    }\r\n\r\n    // Updates the owner of a contract\r\n    // Only the smart contract being updated for can call this function;\r\n    function updateOwner(\r\n        address _newOwner, \r\n        address _contract) external onlyContract(_contract) returns (bool) {\r\n            contractOwnedBy[_contract] = _newOwner;\r\n            return true;\r\n    }\r\n\r\n\r\n}\r\n\r\n\r\n",
  "sourcePath": "C:/Users/solus/Documents/Solidity/Hackathon/contentnfts V0/contracts/TokenFactory/FactoryStorage.sol",
  "compiler": {
    "name": "solc",
    "version": "0.8.0+commit.c7dfd78e.Emscripten.clang"
  },
  "schemaVersion": "3.4.1",
  "updatedAt": "2021-12-13T17:19:27.681Z",
  "devdoc": {
    "kind": "dev",
    "methods": {},
    "version": 1
  },
  "userdoc": {
    "kind": "user",
    "methods": {},
    "version": 1
  }
}