{
  "contractName": "MarketplaceV0",
  "abi": [
    {
      "anonymous": false,
      "inputs": [
        {
          "indexed": true,
          "internalType": "uint256",
          "name": "itemID",
          "type": "uint256"
        },
        {
          "indexed": true,
          "internalType": "address",
          "name": "nftContract",
          "type": "address"
        },
        {
          "indexed": true,
          "internalType": "uint256",
          "name": "tokenID",
          "type": "uint256"
        },
        {
          "indexed": false,
          "internalType": "address",
          "name": "seller",
          "type": "address"
        },
        {
          "indexed": false,
          "internalType": "address",
          "name": "owner",
          "type": "address"
        },
        {
          "indexed": false,
          "internalType": "uint256",
          "name": "price",
          "type": "uint256"
        },
        {
          "indexed": false,
          "internalType": "uint256",
          "name": "amount",
          "type": "uint256"
        }
      ],
      "name": "MarketItemCreated",
      "type": "event"
    },
    {
      "anonymous": false,
      "inputs": [
        {
          "indexed": true,
          "internalType": "uint256",
          "name": "itemID",
          "type": "uint256"
        },
        {
          "indexed": false,
          "internalType": "uint256",
          "name": "amount",
          "type": "uint256"
        },
        {
          "indexed": false,
          "internalType": "address",
          "name": "owner",
          "type": "address"
        }
      ],
      "name": "MarketItemSold",
      "type": "event"
    },
    {
      "inputs": [
        {
          "internalType": "address",
          "name": "nftContract",
          "type": "address"
        },
        {
          "internalType": "uint256",
          "name": "tokenID",
          "type": "uint256"
        },
        {
          "internalType": "uint256",
          "name": "price",
          "type": "uint256"
        },
        {
          "internalType": "uint256",
          "name": "amount",
          "type": "uint256"
        }
      ],
      "name": "createMarketItem",
      "outputs": [],
      "stateMutability": "payable",
      "type": "function",
      "payable": true
    },
    {
      "inputs": [
        {
          "internalType": "uint256",
          "name": "_itemID",
          "type": "uint256"
        },
        {
          "internalType": "uint256",
          "name": "_amount",
          "type": "uint256"
        }
      ],
      "name": "buyMarketItem",
      "outputs": [],
      "stateMutability": "payable",
      "type": "function",
      "payable": true
    },
    {
      "inputs": [],
      "name": "fetchMarketItems",
      "outputs": [
        {
          "components": [
            {
              "internalType": "uint256",
              "name": "itemID",
              "type": "uint256"
            },
            {
              "internalType": "address",
              "name": "nftContract",
              "type": "address"
            },
            {
              "internalType": "uint256",
              "name": "tokenID",
              "type": "uint256"
            },
            {
              "internalType": "address payable",
              "name": "seller",
              "type": "address"
            },
            {
              "internalType": "address payable",
              "name": "owner",
              "type": "address"
            },
            {
              "internalType": "uint256",
              "name": "price",
              "type": "uint256"
            },
            {
              "internalType": "uint256",
              "name": "amount",
              "type": "uint256"
            }
          ],
          "internalType": "struct MarketplaceV0.MarketItem[]",
          "name": "",
          "type": "tuple[]"
        }
      ],
      "stateMutability": "view",
      "type": "function",
      "constant": true
    }
  ],
  "bytecode": "0x608060405234801561001057600080fd5b5060016000819055506111ec806100286000396000f3fe6080604052600436106100345760003560e01c80630f08efe014610039578063599ba23414610064578063c1617fd014610080575b600080fd5b34801561004557600080fd5b5061004e61009c565b60405161005b9190610e8d565b60405180910390f35b61007e60048036038101906100799190610a2a565b610335565b005b61009a60048036038101906100959190610a8d565b610577565b005b606060006100aa600161095d565b905060006100b8600261095d565b6100c2600161095d565b6100cc9190611058565b905060008167ffffffffffffffff811115610110577f4e487b7100000000000000000000000000000000000000000000000000000000600052604160045260246000fd5b60405190808252806020026020018201604052801561014957816020015b610136610981565b81526020019060019003908161012e5790505b5090506000600190505b83811161032b57600060036000838152602001908152602001600020600601541115610318576000600360008381526020019081526020016000206040518060e0016040529081600082015481526020016001820160009054906101000a900473ffffffffffffffffffffffffffffffffffffffff1673ffffffffffffffffffffffffffffffffffffffff1673ffffffffffffffffffffffffffffffffffffffff168152602001600282015481526020016003820160009054906101000a900473ffffffffffffffffffffffffffffffffffffffff1673ffffffffffffffffffffffffffffffffffffffff1673ffffffffffffffffffffffffffffffffffffffff1681526020016004820160009054906101000a900473ffffffffffffffffffffffffffffffffffffffff1673ffffffffffffffffffffffffffffffffffffffff1673ffffffffffffffffffffffffffffffffffffffff16815260200160058201548152602001600682015481525050905080836001846102d49190611058565b8151811061030b577f4e487b7100000000000000000000000000000000000000000000000000000000600052603260045260246000fd5b6020026020010181905250505b808061032390611110565b915050610153565b5080935050505090565b60008211610378576040517f08c379a000000000000000000000000000000000000000000000000000000000815260040161036f90610f4f565b60405180910390fd5b610382600161096b565b600061038e600161095d565b90506040518060e001604052808281526020018673ffffffffffffffffffffffffffffffffffffffff1681526020018581526020013373ffffffffffffffffffffffffffffffffffffffff168152602001600073ffffffffffffffffffffffffffffffffffffffff16815260200184815260200183815250600360008381526020019081526020016000206000820151816000015560208201518160010160006101000a81548173ffffffffffffffffffffffffffffffffffffffff021916908373ffffffffffffffffffffffffffffffffffffffff1602179055506040820151816002015560608201518160030160006101000a81548173ffffffffffffffffffffffffffffffffffffffff021916908373ffffffffffffffffffffffffffffffffffffffff16021790555060808201518160040160006101000a81548173ffffffffffffffffffffffffffffffffffffffff021916908373ffffffffffffffffffffffffffffffffffffffff16021790555060a0820151816005015560c08201518160060155905050838573ffffffffffffffffffffffffffffffffffffffff16827fc3ff4a764c9b9e1277108ea23607246687fc68d2d8d7ad5ef37a8702d444375933600087896040516105689493929190610e48565b60405180910390a45050505050565b600260005414156105bd576040517f08c379a00000000000000000000000000000000000000000000000000000000081526004016105b490610f2f565b60405180910390fd5b600260008190555060006003600084815260200190815260200160002060010160009054906101000a900473ffffffffffffffffffffffffffffffffffffffff16905060006003600085815260200190815260200160002060050154905060006003600086815260200190815260200160002060000154905060006003600087815260200190815260200160002060030160009054906101000a900473ffffffffffffffffffffffffffffffffffffffff16905060006003600088815260200190815260200160002060060154905060008114156106d0576040517f08c379a00000000000000000000000000000000000000000000000000000000081526004016106c790610ecf565b60405180910390fd5b80861115610713576040517f08c379a000000000000000000000000000000000000000000000000000000000815260040161070a90610f0f565b60405180910390fd5b858461071f9190610ffe565b3414610760576040517f08c379a000000000000000000000000000000000000000000000000000000000815260040161075790610eaf565b60405180910390fd5b827f18ea31d45b430c5a6a343a2912f8b8510eedd2f3f655126496535893b3bc9a5a8733604051610792929190610f6f565b60405180910390a2336003600089815260200190815260200160002060040160006101000a81548173ffffffffffffffffffffffffffffffffffffffff021916908373ffffffffffffffffffffffffffffffffffffffff1602179055506107f9600261096b565b80861161082e57856003600089815260200190815260200160002060060160008282546108269190611058565b925050819055505b60008273ffffffffffffffffffffffffffffffffffffffff168560405161085490610ddb565b60006040518083038185875af1925050503d8060008114610891576040519150601f19603f3d011682016040523d82523d6000602084013e610896565b606091505b50509050806108da576040517f08c379a00000000000000000000000000000000000000000000000000000000081526004016108d190610eef565b60405180910390fd5b8573ffffffffffffffffffffffffffffffffffffffff1663f242432a8433878b6040518563ffffffff1660e01b81526004016109199493929190610df0565b600060405180830381600087803b15801561093357600080fd5b505af1158015610947573d6000803e3d6000fd5b5050505050505050505060016000819055505050565b600081600001549050919050565b6001816000016000828254019250508190555050565b6040518060e0016040528060008152602001600073ffffffffffffffffffffffffffffffffffffffff16815260200160008152602001600073ffffffffffffffffffffffffffffffffffffffff168152602001600073ffffffffffffffffffffffffffffffffffffffff16815260200160008152602001600081525090565b600081359050610a0f81611188565b92915050565b600081359050610a248161119f565b92915050565b60008060008060808587031215610a4057600080fd5b6000610a4e87828801610a00565b9450506020610a5f87828801610a15565b9350506040610a7087828801610a15565b9250506060610a8187828801610a15565b91505092959194509250565b60008060408385031215610aa057600080fd5b6000610aae85828601610a15565b9250506020610abf85828601610a15565b9150509250929050565b6000610ad58383610d2f565b60e08301905092915050565b610aea816110da565b82525050565b610af98161109e565b82525050565b610b088161108c565b82525050565b610b178161108c565b82525050565b6000610b2882610fa8565b610b328185610fc0565b9350610b3d83610f98565b8060005b83811015610b6e578151610b558882610ac9565b9750610b6083610fb3565b925050600181019050610b41565b5085935050505092915050565b6000610b88601283610fed565b91507f496e73756666696369656e742066756e647300000000000000000000000000006000830152602082019050919050565b6000610bc8600d83610fed565b91507f4974656d20736f6c64206f7574000000000000000000000000000000000000006000830152602082019050919050565b6000610c08600083610fd1565b9150600082019050919050565b6000610c22600083610fe2565b9150600082019050919050565b6000610c3c601083610fed565b91507f5472616e73666572206661696c65642e000000000000000000000000000000006000830152602082019050919050565b6000610c7c601c83610fed565b91507f496e73756666696369656e7420746f6b656e7320666f722073616c65000000006000830152602082019050919050565b6000610cbc601f83610fed565b91507f5265656e7472616e637947756172643a207265656e7472616e742063616c6c006000830152602082019050919050565b6000610cfc601c83610fed565b91507f5072696365206d7573742062652067726561746572207468616e2030000000006000830152602082019050919050565b60e082016000820151610d456000850182610dbd565b506020820151610d586020850182610aff565b506040820151610d6b6040850182610dbd565b506060820151610d7e6060850182610af0565b506080820151610d916080850182610af0565b5060a0820151610da460a0850182610dbd565b5060c0820151610db760c0850182610dbd565b50505050565b610dc6816110d0565b82525050565b610dd5816110d0565b82525050565b6000610de682610c15565b9150819050919050565b600060a082019050610e056000830187610ae1565b610e126020830186610b0e565b610e1f6040830185610dcc565b610e2c6060830184610dcc565b8181036080830152610e3d81610bfb565b905095945050505050565b6000608082019050610e5d6000830187610b0e565b610e6a6020830186610b0e565b610e776040830185610dcc565b610e846060830184610dcc565b95945050505050565b60006020820190508181036000830152610ea78184610b1d565b905092915050565b60006020820190508181036000830152610ec881610b7b565b9050919050565b60006020820190508181036000830152610ee881610bbb565b9050919050565b60006020820190508181036000830152610f0881610c2f565b9050919050565b60006020820190508181036000830152610f2881610c6f565b9050919050565b60006020820190508181036000830152610f4881610caf565b9050919050565b60006020820190508181036000830152610f6881610cef565b9050919050565b6000604082019050610f846000830185610dcc565b610f916020830184610b0e565b9392505050565b6000819050602082019050919050565b600081519050919050565b6000602082019050919050565b600082825260208201905092915050565b600082825260208201905092915050565b600081905092915050565b600082825260208201905092915050565b6000611009826110d0565b9150611014836110d0565b9250817fffffffffffffffffffffffffffffffffffffffffffffffffffffffffffffffff048311821515161561104d5761104c611159565b5b828202905092915050565b6000611063826110d0565b915061106e836110d0565b92508282101561108157611080611159565b5b828203905092915050565b6000611097826110b0565b9050919050565b60006110a9826110b0565b9050919050565b600073ffffffffffffffffffffffffffffffffffffffff82169050919050565b6000819050919050565b60006110e5826110ec565b9050919050565b60006110f7826110fe565b9050919050565b6000611109826110b0565b9050919050565b600061111b826110d0565b91507fffffffffffffffffffffffffffffffffffffffffffffffffffffffffffffffff82141561114e5761114d611159565b5b600182019050919050565b7f4e487b7100000000000000000000000000000000000000000000000000000000600052601160045260246000fd5b6111918161108c565b811461119c57600080fd5b50565b6111a8816110d0565b81146111b357600080fd5b5056fea26469706673582212200267d5132d119c0bbb8e11dad82a5f4f5c0e1e2e1e13cd2884218db1aae4bc6464736f6c63430008000033",
  "immutableReferences": {},
  "source": "// SPDX-License-Identifier: MIT\r\npragma solidity ^0.8.0;\r\n\r\nimport \"../Dependencies/Counters.sol\";\r\nimport \"../Dependencies/IERC1155.sol\";\r\nimport \"../Dependencies/IERC721.sol\";\r\nimport \"../Dependencies/IERC20.sol\";\r\nimport \"../Dependencies/ReentrancyGuard.sol\";\r\n\r\ncontract MarketplaceV0 is ReentrancyGuard {\r\n    using Counters for Counters.Counter;\r\n    Counters.Counter private _itemIDs; // Counter for MarketItem ID numbers\r\n    Counters.Counter private _itemsSoldOut; // Counter for items that are sold out\r\n     \r\n     // Struct for market items being sold;\r\n     struct MarketItem {\r\n         uint itemID;\r\n         address nftContract;\r\n         uint256 tokenID;\r\n         address payable seller;\r\n         address payable owner;\r\n         uint256 price;\r\n         uint256 amount;\r\n     }\r\n     \r\n     // Mapping that maps item IDs to their MarketItem structs: itemID => MarketItem\r\n     mapping(uint256 => MarketItem) private idToMarketItem;\r\n\r\n    // Fires when token is put on market;     \r\n     event MarketItemCreated (\r\n        uint indexed itemID,\r\n        address indexed nftContract,\r\n        uint256 indexed tokenID,\r\n        address seller,\r\n        address owner,\r\n        uint256 price,\r\n        uint256 amount\r\n     );\r\n     \r\n     // Fires when token is sold;\r\n     event MarketItemSold (\r\n         uint indexed itemID,\r\n         uint amount,\r\n         address owner\r\n         );\r\n     \r\n    \r\n    /**\r\n     * @dev Creates a MarketItem struct and assigns it an itemID (V0)\r\n     * \r\n     * @param nftContract Contract address of the item being sold\r\n     * @param tokenID The token ID of the item being sold\r\n     * @param price The price--in AVAX--of the item being sold\r\n     * @param amount The amount of tokens being sold, if applicable, otherwise amount == 1.\r\n     *\r\n     * note Front-end must call IERC1155.setApprovalForAll(marketAddress, true) before calling\r\n     * this function. The user has to give permission for the marketplace to handle their\r\n     * tokens before this function will pass. I will modify the token contract to auto-approve\r\n     * the market's address so this will not be necessary once implemented.\r\n     *\r\n     * note When payment splitter is implemented this function will need to be reworked so that\r\n     * instead of the seller's address it will be passed an ID or a hash telling the payment\r\n     * splitter which path to take when it receives the value. The front-end will grab this\r\n     * parameter from a mapping in the marketplace contract. For MVP, the payment splitter will\r\n     * split payments three ways: One for the seller, one for the creator, and one for the treasury.\r\n     * In next version we can offer a payment splitter clone for creators that will allow them to\r\n     * further split their payment among any other creators who contributed to their content.\r\n     */\r\n    \r\n    function createMarketItem(\r\n        address nftContract,\r\n        uint256 tokenID,\r\n        uint256 price,\r\n        uint256 amount\r\n        ) public payable {\r\n            require(price > 0, \"Price must be greater than 0\");\r\n\r\n            // Increases _itemIDs by 1, stores current value as itemID\r\n            _itemIDs.increment();\r\n            uint256 itemID = _itemIDs.current();\r\n\r\n            // Assigns MarketItem to itemID\r\n            idToMarketItem[itemID] =  MarketItem(\r\n                itemID,\r\n                nftContract,\r\n                tokenID,\r\n                payable(msg.sender),\r\n                payable(address(0)),\r\n                price,\r\n                amount\r\n            );\r\n\r\n            // Emits MarketItemCreated event\r\n            emit MarketItemCreated(\r\n                itemID,\r\n                nftContract,\r\n                tokenID,\r\n                msg.sender,\r\n                address(0),\r\n                amount,\r\n                price\r\n            );\r\n        }\r\n\r\n    //CREATE FUNCTION FOR REMOVING ITEM FOR SALE\r\n\r\n    /**\r\n     * NOTE: Design a token swapper contract that automatically\r\n     * calls Pangolin / Trader Joe DEX and converts buyer's\r\n     * tokens into AVAX before submitting this transaction.\r\n     * This auto-swap feature should be optional, since it will\r\n     * carry much heavier gas fees that could cost around $1.00.\r\n     * \r\n     * Same token-swapper should be able to work in reverse,\r\n     * where it takes AVAX as input and outputs any arbitrary\r\n     * token. This will work in conjunction with our payment\r\n     * splitter to provide better UX.\r\n     */\r\n\r\n    /**\r\n     * @dev Purchases market item itemID\r\n     * \r\n     * @param _itemID ID of item being bought\r\n     * @param _amount Amount of item itemID being purchased\r\n     */\r\n    function buyMarketItem(uint256 _itemID, uint256 _amount) external payable nonReentrant {\r\n\r\n            // Pull data from itemID's MarketItem struct\r\n            address nftContract = idToMarketItem[_itemID].nftContract;\r\n            uint price = idToMarketItem[_itemID].price;\r\n            uint tokenID = idToMarketItem[_itemID].itemID;\r\n            address payable seller = idToMarketItem[_itemID].seller;\r\n            uint amount = idToMarketItem[_itemID].amount;\r\n\r\n            // CHECKS:\r\n            require(amount != 0, \"Item sold out\");\r\n            require(_amount <= amount, \"Insufficient tokens for sale\");\r\n            require(msg.value == price * _amount, \"Insufficient funds\");\r\n\r\n            // EFFECTS\r\n            emit MarketItemSold(tokenID, _amount, msg.sender);\r\n            idToMarketItem[_itemID].owner = payable(msg.sender);\r\n            _itemsSoldOut.increment();\r\n            if(_amount <= amount){\r\n                idToMarketItem[_itemID].amount -= _amount;\r\n            }\r\n\r\n            //INTERACTIONS\r\n            // Transfer AVAX from buyer to seller\r\n            /* \r\n             * note: When payment splitter is implemented, I will replace this\r\n             * operation with a function call to payment splitter with value attached.\r\n             */\r\n            (bool success, ) = seller.call{value: price}(\"\");\r\n            require(success, \"Transfer failed.\");\r\n            \r\n            // Call token contract and transfer token from seller to buyer\r\n            IERC1155(nftContract).safeTransferFrom(seller, msg.sender, tokenID, _amount, \"\");\r\n        }        \r\n\r\n    /**\r\n     * @dev Returns an array of all items for sale on marketplace\r\n     *\r\n     * note This is from the clone OpenSea tutorial, but I modified it to be\r\n     * slimmer, lighter, and easier to understand.\r\n     */\r\n    function fetchMarketItems() public view returns (MarketItem[] memory) {\r\n        // Fetch total item count, both sold and unsold\r\n        uint itemCount = _itemIDs.current();\r\n        // Calculate total unsold items\r\n        uint unsoldItemCount = _itemIDs.current() - _itemsSoldOut.current();\r\n\r\n        // Create empty array of all unsold MarketItem structs with length unsoldItemCount\r\n        MarketItem[] memory items = new MarketItem[](unsoldItemCount);\r\n\r\n        // Loop that populates the items[] array \r\n        // note We begin counting at 1 because item IDs start at 1\r\n        for (uint i = 1; i <= itemCount; i++) {\r\n            if (idToMarketItem[i].amount > 0) { // All unsold items have amount > 0\r\n                MarketItem memory unsoldItem = idToMarketItem[i]; // Store MarketItem as unsoldItem\r\n                items[i - 1] = unsoldItem; // Assign unsoldItem to position i - 1 in items[] array\r\n            }\r\n        }\r\n        // Return populated array of all unsold items\r\n        return items;\r\n    }\r\n      \r\n}\r\n\r\n\r\n\r\n",
  "sourcePath": "C:/Users/solus/Documents/Solidity/Hackathon/contentnfts V0/contracts/Marketplace/MarketplaceV0.sol",
  "compiler": {
    "name": "solc",
    "version": "0.8.0+commit.c7dfd78e.Emscripten.clang"
  },
  "schemaVersion": "3.4.1",
  "updatedAt": "2021-12-13T20:25:17.904Z",
  "networkType": "ethereum",
  "devdoc": {
    "kind": "dev",
    "methods": {
      "buyMarketItem(uint256,uint256)": {
        "details": "Purchases market item itemID ",
        "params": {
          "_amount": "Amount of item itemID being purchased",
          "_itemID": "ID of item being bought"
        }
      },
      "createMarketItem(address,uint256,uint256,uint256)": {
        "details": "Creates a MarketItem struct and assigns it an itemID (V0) ",
        "params": {
          "amount": "The amount of tokens being sold, if applicable, otherwise amount == 1. note Front-end must call IERC1155.setApprovalForAll(marketAddress, true) before calling this function. The user has to give permission for the marketplace to handle their tokens before this function will pass. I will modify the token contract to auto-approve the market's address so this will not be necessary once implemented. note When payment splitter is implemented this function will need to be reworked so that instead of the seller's address it will be passed an ID or a hash telling the payment splitter which path to take when it receives the value. The front-end will grab this parameter from a mapping in the marketplace contract. For MVP, the payment splitter will split payments three ways: One for the seller, one for the creator, and one for the treasury. In next version we can offer a payment splitter clone for creators that will allow them to further split their payment among any other creators who contributed to their content.",
          "nftContract": "Contract address of the item being sold",
          "price": "The price--in AVAX--of the item being sold",
          "tokenID": "The token ID of the item being sold"
        }
      },
      "fetchMarketItems()": {
        "details": "Returns an array of all items for sale on marketplace note This is from the clone OpenSea tutorial, but I modified it to be slimmer, lighter, and easier to understand."
      }
    },
    "version": 1
  },
  "userdoc": {
    "kind": "user",
    "methods": {},
    "version": 1
  }
}